{
  "_format": "hh-sol-artifact-1",
  "contractName": "AuditTrail",
  "sourceName": "contracts/AuditTrail.sol",
  "abi": [
    {
      "anonymous": false,
      "inputs": [
        {
          "indexed": false,
          "internalType": "bytes28",
          "name": "transactionIdentifier",
          "type": "bytes28"
        },
        {
          "indexed": false,
          "internalType": "bytes32",
          "name": "dataHash",
          "type": "bytes32"
        }
      ],
      "name": "Audit",
      "type": "event"
    },
    {
      "anonymous": false,
      "inputs": [
        {
          "indexed": false,
          "internalType": "string",
          "name": "id",
          "type": "string"
        },
        {
          "indexed": false,
          "internalType": "string",
          "name": "name",
          "type": "string"
        }
      ],
      "name": "NewDepartment",
      "type": "event"
    },
    {
      "anonymous": false,
      "inputs": [
        {
          "indexed": false,
          "internalType": "string",
          "name": "id",
          "type": "string"
        },
        {
          "components": [
            {
              "internalType": "string",
              "name": "id",
              "type": "string"
            },
            {
              "internalType": "string",
              "name": "name",
              "type": "string"
            }
          ],
          "indexed": false,
          "internalType": "struct TransactionFactory.Department",
          "name": "department",
          "type": "tuple"
        },
        {
          "components": [
            {
              "internalType": "string",
              "name": "id",
              "type": "string"
            },
            {
              "internalType": "string",
              "name": "name",
              "type": "string"
            },
            {
              "internalType": "string",
              "name": "itemCode",
              "type": "string"
            }
          ],
          "indexed": false,
          "internalType": "struct TransactionFactory.ItemType",
          "name": "itemType",
          "type": "tuple"
        },
        {
          "indexed": false,
          "internalType": "uint32",
          "name": "price",
          "type": "uint32"
        }
      ],
      "name": "NewItem",
      "type": "event"
    },
    {
      "anonymous": false,
      "inputs": [
        {
          "indexed": false,
          "internalType": "string",
          "name": "id",
          "type": "string"
        },
        {
          "indexed": false,
          "internalType": "string",
          "name": "receiptNumber",
          "type": "string"
        },
        {
          "indexed": false,
          "internalType": "string",
          "name": "user",
          "type": "string"
        },
        {
          "indexed": false,
          "internalType": "string",
          "name": "source",
          "type": "string"
        },
        {
          "indexed": false,
          "internalType": "string[]",
          "name": "receivedItems",
          "type": "string[]"
        }
      ],
      "name": "NewReceivingTransaction",
      "type": "event"
    },
    {
      "anonymous": false,
      "inputs": [
        {
          "indexed": false,
          "internalType": "string",
          "name": "id",
          "type": "string"
        },
        {
          "indexed": false,
          "internalType": "string",
          "name": "receiptNumber",
          "type": "string"
        },
        {
          "indexed": false,
          "internalType": "string",
          "name": "user",
          "type": "string"
        },
        {
          "indexed": false,
          "internalType": "string",
          "name": "department",
          "type": "string"
        },
        {
          "indexed": false,
          "internalType": "uint256",
          "name": "requiredDate",
          "type": "uint256"
        },
        {
          "indexed": false,
          "internalType": "string[]",
          "name": "requestedItems",
          "type": "string[]"
        }
      ],
      "name": "NewRequestingTransaction",
      "type": "event"
    },
    {
      "anonymous": false,
      "inputs": [
        {
          "indexed": false,
          "internalType": "string",
          "name": "id",
          "type": "string"
        },
        {
          "indexed": false,
          "internalType": "string",
          "name": "receiptNumber",
          "type": "string"
        },
        {
          "indexed": false,
          "internalType": "string",
          "name": "user",
          "type": "string"
        },
        {
          "indexed": false,
          "internalType": "string",
          "name": "department",
          "type": "string"
        },
        {
          "indexed": false,
          "internalType": "uint256",
          "name": "returnedDate",
          "type": "uint256"
        },
        {
          "indexed": false,
          "internalType": "string[]",
          "name": "returnedItems",
          "type": "string[]"
        }
      ],
      "name": "NewReturningTransaction",
      "type": "event"
    },
    {
      "anonymous": false,
      "inputs": [
        {
          "indexed": false,
          "internalType": "string",
          "name": "id",
          "type": "string"
        },
        {
          "indexed": false,
          "internalType": "string",
          "name": "name",
          "type": "string"
        }
      ],
      "name": "NewSubinventory",
      "type": "event"
    },
    {
      "anonymous": false,
      "inputs": [
        {
          "indexed": false,
          "internalType": "string",
          "name": "id",
          "type": "string"
        },
        {
          "indexed": false,
          "internalType": "string",
          "name": "receiptNumber",
          "type": "string"
        },
        {
          "indexed": false,
          "internalType": "string",
          "name": "department",
          "type": "string"
        },
        {
          "indexed": false,
          "internalType": "string",
          "name": "requestingTransaction",
          "type": "string"
        },
        {
          "indexed": false,
          "internalType": "string",
          "name": "transferredItem",
          "type": "string"
        }
      ],
      "name": "NewTransferredTransaction",
      "type": "event"
    },
    {
      "anonymous": false,
      "inputs": [
        {
          "indexed": false,
          "internalType": "string",
          "name": "id",
          "type": "string"
        },
        {
          "indexed": false,
          "internalType": "string",
          "name": "username",
          "type": "string"
        },
        {
          "indexed": false,
          "internalType": "string",
          "name": "email",
          "type": "string"
        },
        {
          "indexed": false,
          "internalType": "string",
          "name": "role",
          "type": "string"
        }
      ],
      "name": "NewUser",
      "type": "event"
    },
    {
      "anonymous": false,
      "inputs": [
        {
          "indexed": false,
          "internalType": "string",
          "name": "username",
          "type": "string"
        },
        {
          "indexed": false,
          "internalType": "string",
          "name": "message",
          "type": "string"
        }
      ],
      "name": "UpdatePassword",
      "type": "event"
    },
    {
      "anonymous": false,
      "inputs": [
        {
          "indexed": false,
          "internalType": "string",
          "name": "username",
          "type": "string"
        },
        {
          "indexed": false,
          "internalType": "string",
          "name": "oldRole",
          "type": "string"
        },
        {
          "indexed": false,
          "internalType": "string",
          "name": "newRole",
          "type": "string"
        }
      ],
      "name": "UpdateRole",
      "type": "event"
    },
    {
      "inputs": [
        {
          "internalType": "bytes28",
          "name": "transactionIdentifier",
          "type": "bytes28"
        },
        {
          "internalType": "bytes32",
          "name": "dataHash",
          "type": "bytes32"
        }
      ],
      "name": "auditTransaction",
      "outputs": [],
      "stateMutability": "nonpayable",
      "type": "function"
    },
    {
      "inputs": [
        {
          "internalType": "uint256",
          "name": "",
          "type": "uint256"
        }
      ],
      "name": "auditedTransactions",
      "outputs": [
        {
          "internalType": "bytes28",
          "name": "",
          "type": "bytes28"
        }
      ],
      "stateMutability": "view",
      "type": "function"
    },
    {
      "inputs": [
        {
          "internalType": "string",
          "name": "username",
          "type": "string"
        }
      ],
      "name": "changePassword",
      "outputs": [
        {
          "internalType": "string",
          "name": "",
          "type": "string"
        }
      ],
      "stateMutability": "view",
      "type": "function"
    },
    {
      "inputs": [
        {
          "internalType": "string",
          "name": "id",
          "type": "string"
        },
        {
          "internalType": "string",
          "name": "name",
          "type": "string"
        }
      ],
      "name": "createDepartment",
      "outputs": [],
      "stateMutability": "nonpayable",
      "type": "function"
    },
    {
      "inputs": [
        {
          "internalType": "string",
          "name": "id",
          "type": "string"
        },
        {
          "components": [
            {
              "internalType": "string",
              "name": "id",
              "type": "string"
            },
            {
              "internalType": "string",
              "name": "name",
              "type": "string"
            }
          ],
          "internalType": "struct TransactionFactory.Department",
          "name": "department",
          "type": "tuple"
        },
        {
          "components": [
            {
              "internalType": "string",
              "name": "id",
              "type": "string"
            },
            {
              "internalType": "string",
              "name": "name",
              "type": "string"
            },
            {
              "internalType": "string",
              "name": "itemCode",
              "type": "string"
            }
          ],
          "internalType": "struct TransactionFactory.ItemType",
          "name": "itemType",
          "type": "tuple"
        },
        {
          "internalType": "uint32",
          "name": "price",
          "type": "uint32"
        }
      ],
      "name": "createItem",
      "outputs": [],
      "stateMutability": "nonpayable",
      "type": "function"
    },
    {
      "inputs": [
        {
          "internalType": "string",
          "name": "id",
          "type": "string"
        },
        {
          "internalType": "string",
          "name": "name",
          "type": "string"
        },
        {
          "internalType": "string",
          "name": "itemCode",
          "type": "string"
        }
      ],
      "name": "createItemType",
      "outputs": [],
      "stateMutability": "nonpayable",
      "type": "function"
    },
    {
      "inputs": [
        {
          "internalType": "string",
          "name": "id",
          "type": "string"
        },
        {
          "internalType": "string",
          "name": "name",
          "type": "string"
        }
      ],
      "name": "createSubinventory",
      "outputs": [],
      "stateMutability": "nonpayable",
      "type": "function"
    },
    {
      "inputs": [
        {
          "internalType": "string",
          "name": "id",
          "type": "string"
        },
        {
          "internalType": "string",
          "name": "username",
          "type": "string"
        },
        {
          "internalType": "string",
          "name": "email",
          "type": "string"
        },
        {
          "internalType": "string",
          "name": "role",
          "type": "string"
        }
      ],
      "name": "createUsers",
      "outputs": [],
      "stateMutability": "nonpayable",
      "type": "function"
    },
    {
      "inputs": [
        {
          "internalType": "bytes28",
          "name": "",
          "type": "bytes28"
        }
      ],
      "name": "dataHashes",
      "outputs": [
        {
          "internalType": "bytes32",
          "name": "",
          "type": "bytes32"
        }
      ],
      "stateMutability": "view",
      "type": "function"
    },
    {
      "inputs": [
        {
          "internalType": "uint256",
          "name": "",
          "type": "uint256"
        }
      ],
      "name": "departments",
      "outputs": [
        {
          "internalType": "string",
          "name": "id",
          "type": "string"
        },
        {
          "internalType": "string",
          "name": "name",
          "type": "string"
        }
      ],
      "stateMutability": "view",
      "type": "function"
    },
    {
      "inputs": [
        {
          "internalType": "uint256",
          "name": "",
          "type": "uint256"
        }
      ],
      "name": "itemTypes",
      "outputs": [
        {
          "internalType": "string",
          "name": "id",
          "type": "string"
        },
        {
          "internalType": "string",
          "name": "name",
          "type": "string"
        },
        {
          "internalType": "string",
          "name": "itemCode",
          "type": "string"
        }
      ],
      "stateMutability": "view",
      "type": "function"
    },
    {
      "inputs": [
        {
          "internalType": "uint256",
          "name": "",
          "type": "uint256"
        }
      ],
      "name": "items",
      "outputs": [
        {
          "internalType": "string",
          "name": "id",
          "type": "string"
        },
        {
          "components": [
            {
              "internalType": "string",
              "name": "id",
              "type": "string"
            },
            {
              "internalType": "string",
              "name": "name",
              "type": "string"
            }
          ],
          "internalType": "struct TransactionFactory.Department",
          "name": "department",
          "type": "tuple"
        },
        {
          "components": [
            {
              "internalType": "string",
              "name": "id",
              "type": "string"
            },
            {
              "internalType": "string",
              "name": "name",
              "type": "string"
            },
            {
              "internalType": "string",
              "name": "itemCode",
              "type": "string"
            }
          ],
          "internalType": "struct TransactionFactory.ItemType",
          "name": "itemType",
          "type": "tuple"
        },
        {
          "internalType": "uint32",
          "name": "price",
          "type": "uint32"
        }
      ],
      "stateMutability": "view",
      "type": "function"
    },
    {
      "inputs": [
        {
          "internalType": "string",
          "name": "id",
          "type": "string"
        },
        {
          "internalType": "string",
          "name": "receiptNumber",
          "type": "string"
        },
        {
          "internalType": "string",
          "name": "user",
          "type": "string"
        },
        {
          "internalType": "string",
          "name": "source",
          "type": "string"
        },
        {
          "components": [
            {
              "internalType": "string",
              "name": "status",
              "type": "string"
            },
            {
              "components": [
                {
                  "internalType": "string",
                  "name": "id",
                  "type": "string"
                },
                {
                  "internalType": "string",
                  "name": "name",
                  "type": "string"
                },
                {
                  "internalType": "string",
                  "name": "itemCode",
                  "type": "string"
                }
              ],
              "internalType": "struct TransactionFactory.ItemType",
              "name": "itemtype",
              "type": "tuple"
            },
            {
              "components": [
                {
                  "internalType": "string",
                  "name": "id",
                  "type": "string"
                },
                {
                  "components": [
                    {
                      "internalType": "string",
                      "name": "id",
                      "type": "string"
                    },
                    {
                      "internalType": "string",
                      "name": "name",
                      "type": "string"
                    }
                  ],
                  "internalType": "struct TransactionFactory.Department",
                  "name": "department",
                  "type": "tuple"
                },
                {
                  "components": [
                    {
                      "internalType": "string",
                      "name": "id",
                      "type": "string"
                    },
                    {
                      "internalType": "string",
                      "name": "name",
                      "type": "string"
                    },
                    {
                      "internalType": "string",
                      "name": "itemCode",
                      "type": "string"
                    }
                  ],
                  "internalType": "struct TransactionFactory.ItemType",
                  "name": "itemType",
                  "type": "tuple"
                },
                {
                  "internalType": "uint32",
                  "name": "price",
                  "type": "uint32"
                }
              ],
              "internalType": "struct TransactionFactory.Item[]",
              "name": "items",
              "type": "tuple[]"
            },
            {
              "internalType": "uint32",
              "name": "quantity",
              "type": "uint32"
            },
            {
              "internalType": "uint32",
              "name": "unitCost",
              "type": "uint32"
            }
          ],
          "internalType": "struct TransactionFactory.ItemsOfInterest[]",
          "name": "itemsOfInterest",
          "type": "tuple[]"
        }
      ],
      "name": "receivedTransaction",
      "outputs": [],
      "stateMutability": "nonpayable",
      "type": "function"
    },
    {
      "inputs": [
        {
          "internalType": "string",
          "name": "id",
          "type": "string"
        },
        {
          "internalType": "string",
          "name": "receiptNumber",
          "type": "string"
        },
        {
          "internalType": "string",
          "name": "user",
          "type": "string"
        },
        {
          "internalType": "string",
          "name": "department",
          "type": "string"
        },
        {
          "internalType": "uint256",
          "name": "requiredDate",
          "type": "uint256"
        },
        {
          "components": [
            {
              "internalType": "string",
              "name": "status",
              "type": "string"
            },
            {
              "components": [
                {
                  "internalType": "string",
                  "name": "id",
                  "type": "string"
                },
                {
                  "internalType": "string",
                  "name": "name",
                  "type": "string"
                },
                {
                  "internalType": "string",
                  "name": "itemCode",
                  "type": "string"
                }
              ],
              "internalType": "struct TransactionFactory.ItemType",
              "name": "itemtype",
              "type": "tuple"
            },
            {
              "components": [
                {
                  "internalType": "string",
                  "name": "id",
                  "type": "string"
                },
                {
                  "components": [
                    {
                      "internalType": "string",
                      "name": "id",
                      "type": "string"
                    },
                    {
                      "internalType": "string",
                      "name": "name",
                      "type": "string"
                    }
                  ],
                  "internalType": "struct TransactionFactory.Department",
                  "name": "department",
                  "type": "tuple"
                },
                {
                  "components": [
                    {
                      "internalType": "string",
                      "name": "id",
                      "type": "string"
                    },
                    {
                      "internalType": "string",
                      "name": "name",
                      "type": "string"
                    },
                    {
                      "internalType": "string",
                      "name": "itemCode",
                      "type": "string"
                    }
                  ],
                  "internalType": "struct TransactionFactory.ItemType",
                  "name": "itemType",
                  "type": "tuple"
                },
                {
                  "internalType": "uint32",
                  "name": "price",
                  "type": "uint32"
                }
              ],
              "internalType": "struct TransactionFactory.Item[]",
              "name": "items",
              "type": "tuple[]"
            },
            {
              "internalType": "uint32",
              "name": "quantity",
              "type": "uint32"
            },
            {
              "internalType": "uint32",
              "name": "unitCost",
              "type": "uint32"
            }
          ],
          "internalType": "struct TransactionFactory.ItemsOfInterest[]",
          "name": "itemsOfInterest",
          "type": "tuple[]"
        }
      ],
      "name": "requestingTransaction",
      "outputs": [],
      "stateMutability": "nonpayable",
      "type": "function"
    },
    {
      "inputs": [
        {
          "internalType": "string",
          "name": "id",
          "type": "string"
        },
        {
          "internalType": "string",
          "name": "receiptNumber",
          "type": "string"
        },
        {
          "internalType": "string",
          "name": "user",
          "type": "string"
        },
        {
          "internalType": "string",
          "name": "department",
          "type": "string"
        },
        {
          "internalType": "uint256",
          "name": "returnedDate",
          "type": "uint256"
        },
        {
          "components": [
            {
              "internalType": "string",
              "name": "status",
              "type": "string"
            },
            {
              "components": [
                {
                  "internalType": "string",
                  "name": "id",
                  "type": "string"
                },
                {
                  "internalType": "string",
                  "name": "name",
                  "type": "string"
                },
                {
                  "internalType": "string",
                  "name": "itemCode",
                  "type": "string"
                }
              ],
              "internalType": "struct TransactionFactory.ItemType",
              "name": "itemtype",
              "type": "tuple"
            },
            {
              "components": [
                {
                  "internalType": "string",
                  "name": "id",
                  "type": "string"
                },
                {
                  "components": [
                    {
                      "internalType": "string",
                      "name": "id",
                      "type": "string"
                    },
                    {
                      "internalType": "string",
                      "name": "name",
                      "type": "string"
                    }
                  ],
                  "internalType": "struct TransactionFactory.Department",
                  "name": "department",
                  "type": "tuple"
                },
                {
                  "components": [
                    {
                      "internalType": "string",
                      "name": "id",
                      "type": "string"
                    },
                    {
                      "internalType": "string",
                      "name": "name",
                      "type": "string"
                    },
                    {
                      "internalType": "string",
                      "name": "itemCode",
                      "type": "string"
                    }
                  ],
                  "internalType": "struct TransactionFactory.ItemType",
                  "name": "itemType",
                  "type": "tuple"
                },
                {
                  "internalType": "uint32",
                  "name": "price",
                  "type": "uint32"
                }
              ],
              "internalType": "struct TransactionFactory.Item[]",
              "name": "items",
              "type": "tuple[]"
            },
            {
              "internalType": "uint32",
              "name": "quantity",
              "type": "uint32"
            },
            {
              "internalType": "uint32",
              "name": "unitCost",
              "type": "uint32"
            }
          ],
          "internalType": "struct TransactionFactory.ItemsOfInterest[]",
          "name": "itemsOfInterest",
          "type": "tuple[]"
        }
      ],
      "name": "returnedTransaction",
      "outputs": [],
      "stateMutability": "nonpayable",
      "type": "function"
    },
    {
      "inputs": [
        {
          "internalType": "uint256",
          "name": "",
          "type": "uint256"
        }
      ],
      "name": "subinventories",
      "outputs": [
        {
          "internalType": "string",
          "name": "id",
          "type": "string"
        },
        {
          "internalType": "string",
          "name": "name",
          "type": "string"
        }
      ],
      "stateMutability": "view",
      "type": "function"
    },
    {
      "inputs": [
        {
          "internalType": "uint256",
          "name": "",
          "type": "uint256"
        }
      ],
      "name": "transactionsArray",
      "outputs": [
        {
          "internalType": "string",
          "name": "id",
          "type": "string"
        },
        {
          "internalType": "string",
          "name": "receiptNumber",
          "type": "string"
        },
        {
          "internalType": "string",
          "name": "user",
          "type": "string"
        },
        {
          "internalType": "string",
          "name": "department",
          "type": "string"
        },
        {
          "internalType": "string",
          "name": "source",
          "type": "string"
        },
        {
          "internalType": "uint256",
          "name": "requiredDate",
          "type": "uint256"
        },
        {
          "internalType": "uint256",
          "name": "returnedDate",
          "type": "uint256"
        },
        {
          "internalType": "string",
          "name": "requestingTransaction",
          "type": "string"
        },
        {
          "internalType": "string",
          "name": "transferredItem",
          "type": "string"
        }
      ],
      "stateMutability": "view",
      "type": "function"
    },
    {
      "inputs": [
        {
          "internalType": "string",
          "name": "id",
          "type": "string"
        },
        {
          "internalType": "string",
          "name": "receiptNumber",
          "type": "string"
        },
        {
          "internalType": "string",
          "name": "user",
          "type": "string"
        },
        {
          "internalType": "string",
          "name": "department",
          "type": "string"
        },
        {
          "internalType": "string",
          "name": "requestingTransactions",
          "type": "string"
        },
        {
          "components": [
            {
              "internalType": "string",
              "name": "status",
              "type": "string"
            },
            {
              "components": [
                {
                  "internalType": "string",
                  "name": "id",
                  "type": "string"
                },
                {
                  "internalType": "string",
                  "name": "name",
                  "type": "string"
                },
                {
                  "internalType": "string",
                  "name": "itemCode",
                  "type": "string"
                }
              ],
              "internalType": "struct TransactionFactory.ItemType",
              "name": "itemtype",
              "type": "tuple"
            },
            {
              "components": [
                {
                  "internalType": "string",
                  "name": "id",
                  "type": "string"
                },
                {
                  "components": [
                    {
                      "internalType": "string",
                      "name": "id",
                      "type": "string"
                    },
                    {
                      "internalType": "string",
                      "name": "name",
                      "type": "string"
                    }
                  ],
                  "internalType": "struct TransactionFactory.Department",
                  "name": "department",
                  "type": "tuple"
                },
                {
                  "components": [
                    {
                      "internalType": "string",
                      "name": "id",
                      "type": "string"
                    },
                    {
                      "internalType": "string",
                      "name": "name",
                      "type": "string"
                    },
                    {
                      "internalType": "string",
                      "name": "itemCode",
                      "type": "string"
                    }
                  ],
                  "internalType": "struct TransactionFactory.ItemType",
                  "name": "itemType",
                  "type": "tuple"
                },
                {
                  "internalType": "uint32",
                  "name": "price",
                  "type": "uint32"
                }
              ],
              "internalType": "struct TransactionFactory.Item[]",
              "name": "items",
              "type": "tuple[]"
            },
            {
              "internalType": "uint32",
              "name": "quantity",
              "type": "uint32"
            },
            {
              "internalType": "uint32",
              "name": "unitCost",
              "type": "uint32"
            }
          ],
          "internalType": "struct TransactionFactory.ItemsOfInterest",
          "name": "itemsOfInterest",
          "type": "tuple"
        }
      ],
      "name": "transferTransaction",
      "outputs": [],
      "stateMutability": "nonpayable",
      "type": "function"
    },
    {
      "inputs": [
        {
          "internalType": "string",
          "name": "username",
          "type": "string"
        },
        {
          "internalType": "string",
          "name": "newRole",
          "type": "string"
        }
      ],
      "name": "updateRole",
      "outputs": [],
      "stateMutability": "nonpayable",
      "type": "function"
    },
    {
      "inputs": [
        {
          "internalType": "uint256",
          "name": "",
          "type": "uint256"
        }
      ],
      "name": "users",
      "outputs": [
        {
          "internalType": "string",
          "name": "id",
          "type": "string"
        },
        {
          "internalType": "string",
          "name": "username",
          "type": "string"
        },
        {
          "internalType": "string",
          "name": "email",
          "type": "string"
        },
        {
          "internalType": "string",
          "name": "role",
          "type": "string"
        }
      ],
      "stateMutability": "view",
      "type": "function"
    },
    {
      "inputs": [
        {
          "internalType": "bytes28",
          "name": "transactionIdentifier",
          "type": "bytes28"
        },
        {
          "internalType": "bytes32",
          "name": "dataHash",
          "type": "bytes32"
        }
      ],
      "name": "validateTransaction",
      "outputs": [
        {
          "internalType": "bool",
          "name": "",
          "type": "bool"
        }
      ],
      "stateMutability": "view",
      "type": "function"
    }
  ],
  "bytecode": "0x60806040526000600660006101000a81548163ffffffff021916908363ffffffff1602179055506000600960006101000a81548163ffffffff021916908363ffffffff16021790555034801561005457600080fd5b50614260806100646000396000f3fe608060405234801561001057600080fd5b50600436106101375760003560e01c80639e17cf8e116100b8578063d24fe2c31161007c578063d24fe2c314610389578063d73b9b69146103a5578063e210ecee146103c1578063eaeb60e3146103f9578063f05394ce1461042a578063fcf9d5561461044657610137565b80639e17cf8e146102d2578063aae9535d146102ee578063bfb231d21461031e578063c4247dad14610351578063c5f169cf1461036d57610137565b80635fb320d7116100ff5780635fb320d7146102075780637a93265a1461023857806389380ebf146102545780638e598f18146102705780639acf878c146102a057610137565b80632c8b07661461013c5780632ed84dfe14610158578063365b98b2146101885780633d8d6d34146101bb5780634ff9cc51146101d7575b600080fd5b61015660048036038101906101519190612e5f565b610462565b005b610172600480360381019061016d9190612f65565b6105ef565b60405161017f9190612fc0565b60405180910390f35b6101a2600480360381019061019d9190613011565b61062b565b6040516101b294939291906130c6565b60405180910390f35b6101d560048036038101906101d09190613620565b61088b565b005b6101f160048036038101906101ec9190613727565b610cf6565b6040516101fe9190613770565b60405180910390f35b610221600480360381019061021c9190613011565b610dd6565b60405161022f929190613792565b60405180910390f35b610252600480360381019061024d91906137c9565b610f1a565b005b61026e600480360381019061026991906138a0565b610fe2565b005b61028a60048036038101906102859190613011565b611086565b6040516102979190613956565b60405180910390f35b6102ba60048036038101906102b59190613011565b6110b2565b6040516102c993929190613971565b60405180910390f35b6102ec60048036038101906102e791906139bd565b611284565b005b61030860048036038101906103039190613ad6565b6116f9565b6040516103159190613b12565b60405180910390f35b61033860048036038101906103339190613011565b611711565b6040516103489493929190613c28565b60405180910390f35b61036b600480360381019061036691906139bd565b611ad7565b005b61038760048036038101906103829190612e5f565b611f4c565b005b6103a3600480360381019061039e9190613c82565b611fcc565b005b6103bf60048036038101906103ba9190612e5f565b612111565b005b6103db60048036038101906103d69190613011565b612191565b6040516103f099989796959493929190613d4c565b60405180910390f35b610413600480360381019061040e9190613011565b6125a7565b604051610421929190613792565b60405180910390f35b610444600480360381019061043f9190612f65565b6126eb565b005b610460600480360381019061045b9190613e0a565b61280c565b005b606060005b6003805490508110156105e957836040516020016104859190613f7b565b60405160208183030381529060405280519060200120600382815481106104af576104ae613f92565b5b90600052602060002090600402016001016040516020016104d091906140b5565b60405160208183030381529060405280519060200120036105d657600381815481106104ff576104fe613f92565b5b9060005260206000209060040201600301805461051b90613ff0565b80601f016020809104026020016040519081016040528092919081815260200182805461054790613ff0565b80156105945780601f1061056957610100808354040283529160200191610594565b820191906000526020600020905b81548152906001019060200180831161057757829003601f168201915b5050505050915082600382815481106105b0576105af613f92565b5b906000526020600020906004020160030190805190602001906105d4929190612bd5565b505b80806105e1906140fb565b915050610467565b50505050565b600081600b60008563ffffffff191663ffffffff191681526020019081526020016000205414610620576000610623565b60015b905092915050565b6003818154811061063b57600080fd5b906000526020600020906004020160009150905080600001805461065e90613ff0565b80601f016020809104026020016040519081016040528092919081815260200182805461068a90613ff0565b80156106d75780601f106106ac576101008083540402835291602001916106d7565b820191906000526020600020905b8154815290600101906020018083116106ba57829003601f168201915b5050505050908060010180546106ec90613ff0565b80601f016020809104026020016040519081016040528092919081815260200182805461071890613ff0565b80156107655780601f1061073a57610100808354040283529160200191610765565b820191906000526020600020905b81548152906001019060200180831161074857829003601f168201915b50505050509080600201805461077a90613ff0565b80601f01602080910402602001604051908101604052809291908181526020018280546107a690613ff0565b80156107f35780601f106107c8576101008083540402835291602001916107f3565b820191906000526020600020905b8154815290600101906020018083116107d657829003601f168201915b50505050509080600301805461080890613ff0565b80601f016020809104026020016040519081016040528092919081815260200182805461083490613ff0565b80156108815780601f1061085657610100808354040283529160200191610881565b820191906000526020600020905b81548152906001019060200180831161086457829003601f168201915b5050505050905084565b60006009600081819054906101000a900463ffffffff16809291906108af90614143565b91906101000a81548163ffffffff021916908363ffffffff16021790555063ffffffff169050600060086000838152602001908152602001600020905086816000019080519060200190610904929190612bd5565b508581600101908051906020019061091d929190612bd5565b5084816002019080519060200190610936929190612bd5565b508381600401908051906020019061094f929190612bd5565b5060005b8351811015610cec57600060056000600660009054906101000a900463ffffffff1663ffffffff168152602001908152602001600020905084828151811061099e5761099d613f92565b5b6020026020010151600001518160000190805190602001906109c1929190612bd5565b508482815181106109d5576109d4613f92565b5b602002602001015160200151816001016000820151816000019080519060200190610a01929190612bd5565b506020820151816001019080519060200190610a1e929190612bd5565b506040820151816002019080519060200190610a3b929190612bd5565b5090505060005b858381518110610a5557610a54613f92565b5b60200260200101516040015151811015610bc757858381518110610a7c57610a7b613f92565b5b6020026020010151604001518181518110610a9a57610a99613f92565b5b6020026020010151826004018281548110610ab857610ab7613f92565b5b90600052602060002090600702016000820151816000019080519060200190610ae2929190612bd5565b506020820151816001016000820151816000019080519060200190610b08929190612bd5565b506020820151816001019080519060200190610b25929190612bd5565b5050506040820151816003016000820151816000019080519060200190610b4d929190612bd5565b506020820151816001019080519060200190610b6a929190612bd5565b506040820151816002019080519060200190610b87929190612bd5565b50505060608201518160060160006101000a81548163ffffffff021916908363ffffffff1602179055509050508080610bbf906140fb565b915050610a42565b50848281518110610bdb57610bda613f92565b5b6020026020010151606001518160050160006101000a81548163ffffffff021916908363ffffffff160217905550848281518110610c1c57610c1b613f92565b5b6020026020010151608001518160050160046101000a81548163ffffffff021916908363ffffffff1602179055508260000160076000600660009054906101000a900463ffffffff1663ffffffff1663ffffffff168152602001908152602001600020908054610c8b90613ff0565b610c96929190612c5b565b506006600081819054906101000a900463ffffffff1680929190610cb990614143565b91906101000a81548163ffffffff021916908363ffffffff16021790555050508080610ce4906140fb565b915050610953565b5050505050505050565b60608060005b600380549050811015610dcc5783604051602001610d1a9190613f7b565b6040516020818303038152906040528051906020012060038281548110610d4457610d43613f92565b5b9060005260206000209060040201600101604051602001610d6591906140b5565b6040516020818303038152906040528051906020012003610db9576040518060400160405280600781526020017f537563636573730000000000000000000000000000000000000000000000000081525091505b8080610dc4906140fb565b915050610cfc565b5080915050919050565b60048181548110610de657600080fd5b9060005260206000209060020201600091509050806000018054610e0990613ff0565b80601f0160208091040260200160405190810160405280929190818152602001828054610e3590613ff0565b8015610e825780601f10610e5757610100808354040283529160200191610e82565b820191906000526020600020905b815481529060010190602001808311610e6557829003601f168201915b505050505090806001018054610e9790613ff0565b80601f0160208091040260200160405190810160405280929190818152602001828054610ec390613ff0565b8015610f105780601f10610ee557610100808354040283529160200191610f10565b820191906000526020600020905b815481529060010190602001808311610ef357829003601f168201915b5050505050905082565b600360405180608001604052808681526020018581526020018481526020018381525090806001815401808255809150506001900390600052602060002090600402016000909190919091506000820151816000019080519060200190610f82929190612bd5565b506020820151816001019080519060200190610f9f929190612bd5565b506040820151816002019080519060200190610fbc929190612bd5565b506060820151816003019080519060200190610fd9929190612bd5565b50505050505050565b600160405180606001604052808581526020018481526020018381525090806001815401808255809150506001900390600052602060002090600302016000909190919091506000820151816000019080519060200190611044929190612bd5565b506020820151816001019080519060200190611061929190612bd5565b50604082015181600201908051906020019061107e929190612bd5565b505050505050565b600c818154811061109657600080fd5b906000526020600020016000915054906101000a900460201b81565b600181815481106110c257600080fd5b90600052602060002090600302016000915090508060000180546110e590613ff0565b80601f016020809104026020016040519081016040528092919081815260200182805461111190613ff0565b801561115e5780601f106111335761010080835404028352916020019161115e565b820191906000526020600020905b81548152906001019060200180831161114157829003601f168201915b50505050509080600101805461117390613ff0565b80601f016020809104026020016040519081016040528092919081815260200182805461119f90613ff0565b80156111ec5780601f106111c1576101008083540402835291602001916111ec565b820191906000526020600020905b8154815290600101906020018083116111cf57829003601f168201915b50505050509080600201805461120190613ff0565b80601f016020809104026020016040519081016040528092919081815260200182805461122d90613ff0565b801561127a5780601f1061124f5761010080835404028352916020019161127a565b820191906000526020600020905b81548152906001019060200180831161125d57829003601f168201915b5050505050905083565b60006009600081819054906101000a900463ffffffff16809291906112a890614143565b91906101000a81548163ffffffff021916908363ffffffff16021790555063ffffffff1690506000600860008381526020019081526020016000209050878160000190805190602001906112fd929190612bd5565b5086816001019080519060200190611316929190612bd5565b508581600201908051906020019061132f929190612bd5565b5084816003019080519060200190611348929190612bd5565b5083816005018190555060005b83518110156116ee57600060056000600660009054906101000a900463ffffffff1663ffffffff16815260200190815260200160002090508482815181106113a05761139f613f92565b5b6020026020010151600001518160000190805190602001906113c3929190612bd5565b508482815181106113d7576113d6613f92565b5b602002602001015160200151816001016000820151816000019080519060200190611403929190612bd5565b506020820151816001019080519060200190611420929190612bd5565b50604082015181600201908051906020019061143d929190612bd5565b5090505060005b85838151811061145757611456613f92565b5b602002602001015160400151518110156115c95785838151811061147e5761147d613f92565b5b602002602001015160400151818151811061149c5761149b613f92565b5b60200260200101518260040182815481106114ba576114b9613f92565b5b906000526020600020906007020160008201518160000190805190602001906114e4929190612bd5565b50602082015181600101600082015181600001908051906020019061150a929190612bd5565b506020820151816001019080519060200190611527929190612bd5565b505050604082015181600301600082015181600001908051906020019061154f929190612bd5565b50602082015181600101908051906020019061156c929190612bd5565b506040820151816002019080519060200190611589929190612bd5565b50505060608201518160060160006101000a81548163ffffffff021916908363ffffffff16021790555090505080806115c1906140fb565b915050611444565b508482815181106115dd576115dc613f92565b5b6020026020010151606001518160050160006101000a81548163ffffffff021916908363ffffffff16021790555084828151811061161e5761161d613f92565b5b6020026020010151608001518160050160046101000a81548163ffffffff021916908363ffffffff1602179055508260000160076000600660009054906101000a900463ffffffff1663ffffffff1663ffffffff16815260200190815260200160002090805461168d90613ff0565b611698929190612c5b565b506006600081819054906101000a900463ffffffff16809291906116bb90614143565b91906101000a81548163ffffffff021916908363ffffffff160217905550505080806116e6906140fb565b915050611355565b505050505050505050565b600b6020528060005260406000206000915090505481565b6002818154811061172157600080fd5b906000526020600020906007020160009150905080600001805461174490613ff0565b80601f016020809104026020016040519081016040528092919081815260200182805461177090613ff0565b80156117bd5780601f10611792576101008083540402835291602001916117bd565b820191906000526020600020905b8154815290600101906020018083116117a057829003601f168201915b505050505090806001016040518060400160405290816000820180546117e290613ff0565b80601f016020809104026020016040519081016040528092919081815260200182805461180e90613ff0565b801561185b5780601f106118305761010080835404028352916020019161185b565b820191906000526020600020905b81548152906001019060200180831161183e57829003601f168201915b5050505050815260200160018201805461187490613ff0565b80601f01602080910402602001604051908101604052809291908181526020018280546118a090613ff0565b80156118ed5780601f106118c2576101008083540402835291602001916118ed565b820191906000526020600020905b8154815290600101906020018083116118d057829003601f168201915b505050505081525050908060030160405180606001604052908160008201805461191690613ff0565b80601f016020809104026020016040519081016040528092919081815260200182805461194290613ff0565b801561198f5780601f106119645761010080835404028352916020019161198f565b820191906000526020600020905b81548152906001019060200180831161197257829003601f168201915b505050505081526020016001820180546119a890613ff0565b80601f01602080910402602001604051908101604052809291908181526020018280546119d490613ff0565b8015611a215780601f106119f657610100808354040283529160200191611a21565b820191906000526020600020905b815481529060010190602001808311611a0457829003601f168201915b50505050508152602001600282018054611a3a90613ff0565b80601f0160208091040260200160405190810160405280929190818152602001828054611a6690613ff0565b8015611ab35780601f10611a8857610100808354040283529160200191611ab3565b820191906000526020600020905b815481529060010190602001808311611a9657829003601f168201915b505050505081525050908060060160009054906101000a900463ffffffff16905084565b60006009600081819054906101000a900463ffffffff1680929190611afb90614143565b91906101000a81548163ffffffff021916908363ffffffff16021790555063ffffffff169050600060086000838152602001908152602001600020905087816000019080519060200190611b50929190612bd5565b5086816001019080519060200190611b69929190612bd5565b5085816002019080519060200190611b82929190612bd5565b5084816003019080519060200190611b9b929190612bd5565b5083816006018190555060005b8351811015611f4157600060056000600660009054906101000a900463ffffffff1663ffffffff1681526020019081526020016000209050848281518110611bf357611bf2613f92565b5b602002602001015160000151816000019080519060200190611c16929190612bd5565b50848281518110611c2a57611c29613f92565b5b602002602001015160200151816001016000820151816000019080519060200190611c56929190612bd5565b506020820151816001019080519060200190611c73929190612bd5565b506040820151816002019080519060200190611c90929190612bd5565b5090505060005b858381518110611caa57611ca9613f92565b5b60200260200101516040015151811015611e1c57858381518110611cd157611cd0613f92565b5b6020026020010151604001518181518110611cef57611cee613f92565b5b6020026020010151826004018281548110611d0d57611d0c613f92565b5b90600052602060002090600702016000820151816000019080519060200190611d37929190612bd5565b506020820151816001016000820151816000019080519060200190611d5d929190612bd5565b506020820151816001019080519060200190611d7a929190612bd5565b5050506040820151816003016000820151816000019080519060200190611da2929190612bd5565b506020820151816001019080519060200190611dbf929190612bd5565b506040820151816002019080519060200190611ddc929190612bd5565b50505060608201518160060160006101000a81548163ffffffff021916908363ffffffff1602179055509050508080611e14906140fb565b915050611c97565b50848281518110611e3057611e2f613f92565b5b6020026020010151606001518160050160006101000a81548163ffffffff021916908363ffffffff160217905550848281518110611e7157611e70613f92565b5b6020026020010151608001518160050160046101000a81548163ffffffff021916908363ffffffff1602179055508260000160076000600660009054906101000a900463ffffffff1663ffffffff1663ffffffff168152602001908152602001600020908054611ee090613ff0565b611eeb929190612c5b565b506006600081819054906101000a900463ffffffff1680929190611f0e90614143565b91906101000a81548163ffffffff021916908363ffffffff16021790555050508080611f39906140fb565b915050611ba8565b505050505050505050565b600060405180604001604052808481526020018381525090806001815401808255809150506001900390600052602060002090600202016000909190919091506000820151816000019080519060200190611fa8929190612bd5565b506020820151816001019080519060200190611fc5929190612bd5565b5050505050565b600260405180608001604052808681526020018581526020018481526020018363ffffffff168152509080600181540180825580915050600190039060005260206000209060070201600090919091909150600082015181600001908051906020019061203a929190612bd5565b506020820151816001016000820151816000019080519060200190612060929190612bd5565b50602082015181600101908051906020019061207d929190612bd5565b50505060408201518160030160008201518160000190805190602001906120a5929190612bd5565b5060208201518160010190805190602001906120c2929190612bd5565b5060408201518160020190805190602001906120df929190612bd5565b50505060608201518160060160006101000a81548163ffffffff021916908363ffffffff160217905550505050505050565b60046040518060400160405280848152602001838152509080600181540180825580915050600190039060005260206000209060020201600090919091909150600082015181600001908051906020019061216d929190612bd5565b50602082015181600101908051906020019061218a929190612bd5565b5050505050565b600a81815481106121a157600080fd5b90600052602060002090600902016000915090508060000180546121c490613ff0565b80601f01602080910402602001604051908101604052809291908181526020018280546121f090613ff0565b801561223d5780601f106122125761010080835404028352916020019161223d565b820191906000526020600020905b81548152906001019060200180831161222057829003601f168201915b50505050509080600101805461225290613ff0565b80601f016020809104026020016040519081016040528092919081815260200182805461227e90613ff0565b80156122cb5780601f106122a0576101008083540402835291602001916122cb565b820191906000526020600020905b8154815290600101906020018083116122ae57829003601f168201915b5050505050908060020180546122e090613ff0565b80601f016020809104026020016040519081016040528092919081815260200182805461230c90613ff0565b80156123595780601f1061232e57610100808354040283529160200191612359565b820191906000526020600020905b81548152906001019060200180831161233c57829003601f168201915b50505050509080600301805461236e90613ff0565b80601f016020809104026020016040519081016040528092919081815260200182805461239a90613ff0565b80156123e75780601f106123bc576101008083540402835291602001916123e7565b820191906000526020600020905b8154815290600101906020018083116123ca57829003601f168201915b5050505050908060040180546123fc90613ff0565b80601f016020809104026020016040519081016040528092919081815260200182805461242890613ff0565b80156124755780601f1061244a57610100808354040283529160200191612475565b820191906000526020600020905b81548152906001019060200180831161245857829003601f168201915b50505050509080600501549080600601549080600701805461249690613ff0565b80601f01602080910402602001604051908101604052809291908181526020018280546124c290613ff0565b801561250f5780601f106124e45761010080835404028352916020019161250f565b820191906000526020600020905b8154815290600101906020018083116124f257829003601f168201915b50505050509080600801805461252490613ff0565b80601f016020809104026020016040519081016040528092919081815260200182805461255090613ff0565b801561259d5780601f106125725761010080835404028352916020019161259d565b820191906000526020600020905b81548152906001019060200180831161258057829003601f168201915b5050505050905089565b600081815481106125b757600080fd5b90600052602060002090600202016000915090508060000180546125da90613ff0565b80601f016020809104026020016040519081016040528092919081815260200182805461260690613ff0565b80156126535780601f1061262857610100808354040283529160200191612653565b820191906000526020600020905b81548152906001019060200180831161263657829003601f168201915b50505050509080600101805461266890613ff0565b80601f016020809104026020016040519081016040528092919081815260200182805461269490613ff0565b80156126e15780601f106126b6576101008083540402835291602001916126e1565b820191906000526020600020905b8154815290600101906020018083116126c457829003601f168201915b5050505050905082565b6000801b600b60008463ffffffff191663ffffffff191681526020019081526020016000205414612751576040517f08c379a0000000000000000000000000000000000000000000000000000000008152600401612748906141e1565b60405180910390fd5b80600b60008463ffffffff191663ffffffff1916815260200190815260200160002081905550600c829080600181540180825580915050600190039060005260206000200160009091909190916101000a8154817bffffffffffffffffffffffffffffffffffffffffffffffffffffffff021916908360201c02179055507fdd1302982979fadb5454d575982f114bef9dccf8c49bcb66e3c9af8f0fefcc878282604051612800929190614201565b60405180910390a15050565b60006009600081819054906101000a900463ffffffff168092919061283090614143565b91906101000a81548163ffffffff021916908363ffffffff16021790555063ffffffff169050600060086000838152602001908152602001600020905087816000019080519060200190612885929190612bd5565b508681600101908051906020019061289e929190612bd5565b50858160020190805190602001906128b7929190612bd5565b50848160030190805190602001906128d0929190612bd5565b50838160070190805190602001906128e9929190612bd5565b50600060056000600660009054906101000a900463ffffffff1663ffffffff16815260200190815260200160002090508360000151816000019080519060200190612935929190612bd5565b50836020015181600101600082015181600001908051906020019061295b929190612bd5565b506020820151816001019080519060200190612978929190612bd5565b506040820151816002019080519060200190612995929190612bd5565b5090505060005b846040015151811015612aed57846040015181815181106129c0576129bf613f92565b5b60200260200101518260040182815481106129de576129dd613f92565b5b90600052602060002090600702016000820151816000019080519060200190612a08929190612bd5565b506020820151816001016000820151816000019080519060200190612a2e929190612bd5565b506020820151816001019080519060200190612a4b929190612bd5565b5050506040820151816003016000820151816000019080519060200190612a73929190612bd5565b506020820151816001019080519060200190612a90929190612bd5565b506040820151816002019080519060200190612aad929190612bd5565b50505060608201518160060160006101000a81548163ffffffff021916908363ffffffff1602179055509050508080612ae5906140fb565b91505061299c565b5083606001518160050160006101000a81548163ffffffff021916908363ffffffff16021790555083608001518160050160046101000a81548163ffffffff021916908363ffffffff1602179055508160000160076000600660009054906101000a900463ffffffff1663ffffffff1663ffffffff168152602001908152602001600020908054612b7d90613ff0565b612b88929190612c5b565b506006600081819054906101000a900463ffffffff1680929190612bab90614143565b91906101000a81548163ffffffff021916908363ffffffff16021790555050505050505050505050565b828054612be190613ff0565b90600052602060002090601f016020900481019282612c035760008555612c4a565b82601f10612c1c57805160ff1916838001178555612c4a565b82800160010185558215612c4a579182015b82811115612c49578251825591602001919060010190612c2e565b5b509050612c579190612ce8565b5090565b828054612c6790613ff0565b90600052602060002090601f016020900481019282612c895760008555612cd7565b82601f10612c9a5780548555612cd7565b82800160010185558215612cd757600052602060002091601f016020900482015b82811115612cd6578254825591600101919060010190612cbb565b5b509050612ce49190612ce8565b5090565b5b80821115612d01576000816000905550600101612ce9565b5090565b6000604051905090565b600080fd5b600080fd5b600080fd5b600080fd5b6000601f19601f8301169050919050565b7f4e487b7100000000000000000000000000000000000000000000000000000000600052604160045260246000fd5b612d6c82612d23565b810181811067ffffffffffffffff82111715612d8b57612d8a612d34565b5b80604052505050565b6000612d9e612d05565b9050612daa8282612d63565b919050565b600067ffffffffffffffff821115612dca57612dc9612d34565b5b612dd382612d23565b9050602081019050919050565b82818337600083830152505050565b6000612e02612dfd84612daf565b612d94565b905082815260208101848484011115612e1e57612e1d612d1e565b5b612e29848285612de0565b509392505050565b600082601f830112612e4657612e45612d19565b5b8135612e56848260208601612def565b91505092915050565b60008060408385031215612e7657612e75612d0f565b5b600083013567ffffffffffffffff811115612e9457612e93612d14565b5b612ea085828601612e31565b925050602083013567ffffffffffffffff811115612ec157612ec0612d14565b5b612ecd85828601612e31565b9150509250929050565b60007fffffffffffffffffffffffffffffffffffffffffffffffffffffffff0000000082169050919050565b612f0c81612ed7565b8114612f1757600080fd5b50565b600081359050612f2981612f03565b92915050565b6000819050919050565b612f4281612f2f565b8114612f4d57600080fd5b50565b600081359050612f5f81612f39565b92915050565b60008060408385031215612f7c57612f7b612d0f565b5b6000612f8a85828601612f1a565b9250506020612f9b85828601612f50565b9150509250929050565b60008115159050919050565b612fba81612fa5565b82525050565b6000602082019050612fd56000830184612fb1565b92915050565b6000819050919050565b612fee81612fdb565b8114612ff957600080fd5b50565b60008135905061300b81612fe5565b92915050565b60006020828403121561302757613026612d0f565b5b600061303584828501612ffc565b91505092915050565b600081519050919050565b600082825260208201905092915050565b60005b8381101561307857808201518184015260208101905061305d565b83811115613087576000848401525b50505050565b60006130988261303e565b6130a28185613049565b93506130b281856020860161305a565b6130bb81612d23565b840191505092915050565b600060808201905081810360008301526130e0818761308d565b905081810360208301526130f4818661308d565b90508181036040830152613108818561308d565b9050818103606083015261311c818461308d565b905095945050505050565b600067ffffffffffffffff82111561314257613141612d34565b5b602082029050602081019050919050565b600080fd5b600080fd5b600080fd5b60006060828403121561317857613177613158565b5b6131826060612d94565b9050600082013567ffffffffffffffff8111156131a2576131a161315d565b5b6131ae84828501612e31565b600083015250602082013567ffffffffffffffff8111156131d2576131d161315d565b5b6131de84828501612e31565b602083015250604082013567ffffffffffffffff8111156132025761320161315d565b5b61320e84828501612e31565b60408301525092915050565b600067ffffffffffffffff82111561323557613234612d34565b5b602082029050602081019050919050565b60006040828403121561325c5761325b613158565b5b6132666040612d94565b9050600082013567ffffffffffffffff8111156132865761328561315d565b5b61329284828501612e31565b600083015250602082013567ffffffffffffffff8111156132b6576132b561315d565b5b6132c284828501612e31565b60208301525092915050565b600063ffffffff82169050919050565b6132e7816132ce565b81146132f257600080fd5b50565b600081359050613304816132de565b92915050565b6000608082840312156133205761331f613158565b5b61332a6080612d94565b9050600082013567ffffffffffffffff81111561334a5761334961315d565b5b61335684828501612e31565b600083015250602082013567ffffffffffffffff81111561337a5761337961315d565b5b61338684828501613246565b602083015250604082013567ffffffffffffffff8111156133aa576133a961315d565b5b6133b684828501613162565b60408301525060606133ca848285016132f5565b60608301525092915050565b60006133e96133e48461321a565b612d94565b9050808382526020820190506020840283018581111561340c5761340b613153565b5b835b8181101561345357803567ffffffffffffffff81111561343157613430612d19565b5b80860161343e898261330a565b8552602085019450505060208101905061340e565b5050509392505050565b600082601f83011261347257613471612d19565b5b81356134828482602086016133d6565b91505092915050565b600060a082840312156134a1576134a0613158565b5b6134ab60a0612d94565b9050600082013567ffffffffffffffff8111156134cb576134ca61315d565b5b6134d784828501612e31565b600083015250602082013567ffffffffffffffff8111156134fb576134fa61315d565b5b61350784828501613162565b602083015250604082013567ffffffffffffffff81111561352b5761352a61315d565b5b6135378482850161345d565b604083015250606061354b848285016132f5565b606083015250608061355f848285016132f5565b60808301525092915050565b600061357e61357984613127565b612d94565b905080838252602082019050602084028301858111156135a1576135a0613153565b5b835b818110156135e857803567ffffffffffffffff8111156135c6576135c5612d19565b5b8086016135d3898261348b565b855260208501945050506020810190506135a3565b5050509392505050565b600082601f83011261360757613606612d19565b5b813561361784826020860161356b565b91505092915050565b600080600080600060a0868803121561363c5761363b612d0f565b5b600086013567ffffffffffffffff81111561365a57613659612d14565b5b61366688828901612e31565b955050602086013567ffffffffffffffff81111561368757613686612d14565b5b61369388828901612e31565b945050604086013567ffffffffffffffff8111156136b4576136b3612d14565b5b6136c088828901612e31565b935050606086013567ffffffffffffffff8111156136e1576136e0612d14565b5b6136ed88828901612e31565b925050608086013567ffffffffffffffff81111561370e5761370d612d14565b5b61371a888289016135f2565b9150509295509295909350565b60006020828403121561373d5761373c612d0f565b5b600082013567ffffffffffffffff81111561375b5761375a612d14565b5b61376784828501612e31565b91505092915050565b6000602082019050818103600083015261378a818461308d565b905092915050565b600060408201905081810360008301526137ac818561308d565b905081810360208301526137c0818461308d565b90509392505050565b600080600080608085870312156137e3576137e2612d0f565b5b600085013567ffffffffffffffff81111561380157613800612d14565b5b61380d87828801612e31565b945050602085013567ffffffffffffffff81111561382e5761382d612d14565b5b61383a87828801612e31565b935050604085013567ffffffffffffffff81111561385b5761385a612d14565b5b61386787828801612e31565b925050606085013567ffffffffffffffff81111561388857613887612d14565b5b61389487828801612e31565b91505092959194509250565b6000806000606084860312156138b9576138b8612d0f565b5b600084013567ffffffffffffffff8111156138d7576138d6612d14565b5b6138e386828701612e31565b935050602084013567ffffffffffffffff81111561390457613903612d14565b5b61391086828701612e31565b925050604084013567ffffffffffffffff81111561393157613930612d14565b5b61393d86828701612e31565b9150509250925092565b61395081612ed7565b82525050565b600060208201905061396b6000830184613947565b92915050565b6000606082019050818103600083015261398b818661308d565b9050818103602083015261399f818561308d565b905081810360408301526139b3818461308d565b9050949350505050565b60008060008060008060c087890312156139da576139d9612d0f565b5b600087013567ffffffffffffffff8111156139f8576139f7612d14565b5b613a0489828a01612e31565b965050602087013567ffffffffffffffff811115613a2557613a24612d14565b5b613a3189828a01612e31565b955050604087013567ffffffffffffffff811115613a5257613a51612d14565b5b613a5e89828a01612e31565b945050606087013567ffffffffffffffff811115613a7f57613a7e612d14565b5b613a8b89828a01612e31565b9350506080613a9c89828a01612ffc565b92505060a087013567ffffffffffffffff811115613abd57613abc612d14565b5b613ac989828a016135f2565b9150509295509295509295565b600060208284031215613aec57613aeb612d0f565b5b6000613afa84828501612f1a565b91505092915050565b613b0c81612f2f565b82525050565b6000602082019050613b276000830184613b03565b92915050565b600082825260208201905092915050565b6000613b498261303e565b613b538185613b2d565b9350613b6381856020860161305a565b613b6c81612d23565b840191505092915050565b60006040830160008301518482036000860152613b948282613b3e565b91505060208301518482036020860152613bae8282613b3e565b9150508091505092915050565b60006060830160008301518482036000860152613bd88282613b3e565b91505060208301518482036020860152613bf28282613b3e565b91505060408301518482036040860152613c0c8282613b3e565b9150508091505092915050565b613c22816132ce565b82525050565b60006080820190508181036000830152613c42818761308d565b90508181036020830152613c568186613b77565b90508181036040830152613c6a8185613bbb565b9050613c796060830184613c19565b95945050505050565b60008060008060808587031215613c9c57613c9b612d0f565b5b600085013567ffffffffffffffff811115613cba57613cb9612d14565b5b613cc687828801612e31565b945050602085013567ffffffffffffffff811115613ce757613ce6612d14565b5b613cf387828801613246565b935050604085013567ffffffffffffffff811115613d1457613d13612d14565b5b613d2087828801613162565b9250506060613d31878288016132f5565b91505092959194509250565b613d4681612fdb565b82525050565b6000610120820190508181036000830152613d67818c61308d565b90508181036020830152613d7b818b61308d565b90508181036040830152613d8f818a61308d565b90508181036060830152613da3818961308d565b90508181036080830152613db7818861308d565b9050613dc660a0830187613d3d565b613dd360c0830186613d3d565b81810360e0830152613de5818561308d565b9050818103610100830152613dfa818461308d565b90509a9950505050505050505050565b60008060008060008060c08789031215613e2757613e26612d0f565b5b600087013567ffffffffffffffff811115613e4557613e44612d14565b5b613e5189828a01612e31565b965050602087013567ffffffffffffffff811115613e7257613e71612d14565b5b613e7e89828a01612e31565b955050604087013567ffffffffffffffff811115613e9f57613e9e612d14565b5b613eab89828a01612e31565b945050606087013567ffffffffffffffff811115613ecc57613ecb612d14565b5b613ed889828a01612e31565b935050608087013567ffffffffffffffff811115613ef957613ef8612d14565b5b613f0589828a01612e31565b92505060a087013567ffffffffffffffff811115613f2657613f25612d14565b5b613f3289828a0161348b565b9150509295509295509295565b600081905092915050565b6000613f558261303e565b613f5f8185613f3f565b9350613f6f81856020860161305a565b80840191505092915050565b6000613f878284613f4a565b915081905092915050565b7f4e487b7100000000000000000000000000000000000000000000000000000000600052603260045260246000fd5b7f4e487b7100000000000000000000000000000000000000000000000000000000600052602260045260246000fd5b6000600282049050600182168061400857607f821691505b60208210810361401b5761401a613fc1565b5b50919050565b60008190508160005260206000209050919050565b6000815461404381613ff0565b61404d8186613f3f565b945060018216600081146140685760018114614079576140ac565b60ff198316865281860193506140ac565b61408285614021565b60005b838110156140a457815481890152600182019150602081019050614085565b838801955050505b50505092915050565b60006140c18284614036565b915081905092915050565b7f4e487b7100000000000000000000000000000000000000000000000000000000600052601160045260246000fd5b600061410682612fdb565b91507fffffffffffffffffffffffffffffffffffffffffffffffffffffffffffffffff8203614138576141376140cc565b5b600182019050919050565b600061414e826132ce565b915063ffffffff8203614164576141636140cc565b5b600182019050919050565b7f41207472616e73616374696f6e2063616e206f6e6c792062652061756469746560008201527f64206f6e63650000000000000000000000000000000000000000000000000000602082015250565b60006141cb602683613049565b91506141d68261416f565b604082019050919050565b600060208201905081810360008301526141fa816141be565b9050919050565b60006040820190506142166000830185613947565b6142236020830184613b03565b939250505056fea264697066735822122069d62e748fa9201fb0cd6d2f34143c182efd78c160eb862902e6e87cab77613264736f6c634300080d0033",
  "linkReferences": {},
  "deployedLinkReferences": {}
}