{
  "_format": "hh-sol-artifact-1",
  "contractName": "TransactionFactory",
  "sourceName": "contracts/TransactionFactory.sol",
  "abi": [
    {
      "inputs": [
        {
          "internalType": "uint256",
          "name": "",
          "type": "uint256"
        }
      ],
      "name": "_auditedTransactions",
      "outputs": [
        {
          "internalType": "string",
          "name": "",
          "type": "string"
        }
      ],
      "stateMutability": "view",
      "type": "function"
    },
    {
      "inputs": [
        {
          "internalType": "string",
          "name": "",
          "type": "string"
        }
      ],
      "name": "_dataHashes",
      "outputs": [
        {
          "internalType": "bytes32",
          "name": "",
          "type": "bytes32"
        }
      ],
      "stateMutability": "view",
      "type": "function"
    },
    {
      "inputs": [
        {
          "internalType": "string",
          "name": "transactionIdentifier",
          "type": "string"
        },
        {
          "internalType": "string",
          "name": "hash",
          "type": "string"
        }
      ],
      "name": "auditTransaction",
      "outputs": [],
      "stateMutability": "nonpayable",
      "type": "function"
    },
    {
      "inputs": [
        {
          "internalType": "string",
          "name": "dataHash",
          "type": "string"
        },
        {
          "internalType": "string",
          "name": "id",
          "type": "string"
        },
        {
          "internalType": "string",
          "name": "isReturn",
          "type": "string"
        },
        {
          "internalType": "string",
          "name": "source",
          "type": "string"
        },
        {
          "internalType": "string",
          "name": "receiptNumber",
          "type": "string"
        },
        {
          "internalType": "string",
          "name": "user",
          "type": "string"
        },
        {
          "internalType": "string",
          "name": "transactionType",
          "type": "string"
        },
        {
          "internalType": "string[][]",
          "name": "newReceivedItems",
          "type": "string[][]"
        },
        {
          "internalType": "string[][]",
          "name": "newItems",
          "type": "string[][]"
        },
        {
          "internalType": "string",
          "name": "createdAt",
          "type": "string"
        },
        {
          "internalType": "string",
          "name": "updatedAt",
          "type": "string"
        }
      ],
      "name": "createReceivingTransaction",
      "outputs": [],
      "stateMutability": "nonpayable",
      "type": "function"
    },
    {
      "inputs": [
        {
          "internalType": "string",
          "name": "dataHash",
          "type": "string"
        },
        {
          "internalType": "string",
          "name": "id",
          "type": "string"
        },
        {
          "internalType": "string",
          "name": "departmentId",
          "type": "string"
        },
        {
          "internalType": "string",
          "name": "departmentName",
          "type": "string"
        },
        {
          "internalType": "string",
          "name": "requiredDate",
          "type": "string"
        },
        {
          "internalType": "string",
          "name": "receiptNumber",
          "type": "string"
        },
        {
          "internalType": "string",
          "name": "user",
          "type": "string"
        },
        {
          "internalType": "string",
          "name": "transactionType",
          "type": "string"
        },
        {
          "internalType": "string[][]",
          "name": "newRequestedItems",
          "type": "string[][]"
        },
        {
          "internalType": "string",
          "name": "createdAt",
          "type": "string"
        },
        {
          "internalType": "string",
          "name": "updatedAt",
          "type": "string"
        }
      ],
      "name": "createRequestingTransaction",
      "outputs": [],
      "stateMutability": "nonpayable",
      "type": "function"
    },
    {
      "inputs": [
        {
          "internalType": "string",
          "name": "dataHash",
          "type": "string"
        },
        {
          "internalType": "string",
          "name": "id",
          "type": "string"
        },
        {
          "internalType": "string",
          "name": "departmentId",
          "type": "string"
        },
        {
          "internalType": "string",
          "name": "departmentName",
          "type": "string"
        },
        {
          "internalType": "string",
          "name": "returnedDate",
          "type": "string"
        },
        {
          "internalType": "string",
          "name": "receiptNumber",
          "type": "string"
        },
        {
          "internalType": "string",
          "name": "user",
          "type": "string"
        },
        {
          "internalType": "string",
          "name": "transactionType",
          "type": "string"
        },
        {
          "internalType": "string[][]",
          "name": "newReturnedItems",
          "type": "string[][]"
        },
        {
          "internalType": "string",
          "name": "createdAt",
          "type": "string"
        },
        {
          "internalType": "string",
          "name": "updatedAt",
          "type": "string"
        }
      ],
      "name": "createReturningTransaction",
      "outputs": [],
      "stateMutability": "nonpayable",
      "type": "function"
    },
    {
      "inputs": [
        {
          "internalType": "string",
          "name": "dataHash",
          "type": "string"
        },
        {
          "internalType": "string",
          "name": "id",
          "type": "string"
        },
        {
          "internalType": "string",
          "name": "requestingTransaction",
          "type": "string"
        },
        {
          "internalType": "string",
          "name": "departmentId",
          "type": "string"
        },
        {
          "internalType": "string",
          "name": "departmentName",
          "type": "string"
        },
        {
          "internalType": "string",
          "name": "receiptNumber",
          "type": "string"
        },
        {
          "internalType": "string",
          "name": "user",
          "type": "string"
        },
        {
          "internalType": "string",
          "name": "transactionType",
          "type": "string"
        },
        {
          "internalType": "string[]",
          "name": "transferredItems",
          "type": "string[]"
        },
        {
          "internalType": "string[]",
          "name": "newItems",
          "type": "string[]"
        },
        {
          "internalType": "string",
          "name": "createdAt",
          "type": "string"
        },
        {
          "internalType": "string",
          "name": "updatedAt",
          "type": "string"
        }
      ],
      "name": "createTransferringTransaction",
      "outputs": [],
      "stateMutability": "nonpayable",
      "type": "function"
    },
    {
      "inputs": [
        {
          "internalType": "string",
          "name": "id",
          "type": "string"
        },
        {
          "internalType": "string",
          "name": "username",
          "type": "string"
        },
        {
          "internalType": "string",
          "name": "createdBy",
          "type": "string"
        },
        {
          "internalType": "string",
          "name": "timestamp",
          "type": "string"
        }
      ],
      "name": "createUser",
      "outputs": [],
      "stateMutability": "nonpayable",
      "type": "function"
    },
    {
      "inputs": [],
      "name": "getAllTransactions",
      "outputs": [
        {
          "internalType": "string[]",
          "name": "auditedlist",
          "type": "string[]"
        }
      ],
      "stateMutability": "view",
      "type": "function"
    },
    {
      "inputs": [
        {
          "internalType": "string",
          "name": "id",
          "type": "string"
        }
      ],
      "name": "getReceivingTransaction",
      "outputs": [
        {
          "components": [
            {
              "internalType": "string",
              "name": "id",
              "type": "string"
            },
            {
              "internalType": "string",
              "name": "isReturn",
              "type": "string"
            },
            {
              "internalType": "string",
              "name": "source",
              "type": "string"
            },
            {
              "internalType": "string",
              "name": "receiptNumber",
              "type": "string"
            },
            {
              "internalType": "string",
              "name": "user",
              "type": "string"
            },
            {
              "internalType": "string",
              "name": "transactionType",
              "type": "string"
            },
            {
              "components": [
                {
                  "internalType": "string",
                  "name": "id",
                  "type": "string"
                },
                {
                  "internalType": "string",
                  "name": "itemTypeId",
                  "type": "string"
                },
                {
                  "internalType": "string",
                  "name": "itemTypeName",
                  "type": "string"
                },
                {
                  "internalType": "string",
                  "name": "quantity",
                  "type": "string"
                },
                {
                  "internalType": "string",
                  "name": "unitCost",
                  "type": "string"
                },
                {
                  "internalType": "string",
                  "name": "subinventoryId",
                  "type": "string"
                },
                {
                  "internalType": "string",
                  "name": "subinventoryName",
                  "type": "string"
                },
                {
                  "internalType": "string[]",
                  "name": "items",
                  "type": "string[]"
                }
              ],
              "internalType": "struct TransactionFactory.ReceivedItems[]",
              "name": "receivedItems",
              "type": "tuple[]"
            },
            {
              "internalType": "string",
              "name": "createdAt",
              "type": "string"
            },
            {
              "internalType": "string",
              "name": "updatedAt",
              "type": "string"
            }
          ],
          "internalType": "struct TransactionFactory.ReceivingTransaction",
          "name": "transaction",
          "type": "tuple"
        }
      ],
      "stateMutability": "view",
      "type": "function"
    },
    {
      "inputs": [
        {
          "internalType": "string",
          "name": "id",
          "type": "string"
        }
      ],
      "name": "getRequestingTransaction",
      "outputs": [
        {
          "components": [
            {
              "internalType": "string",
              "name": "id",
              "type": "string"
            },
            {
              "internalType": "string",
              "name": "departmentId",
              "type": "string"
            },
            {
              "internalType": "string",
              "name": "departmentName",
              "type": "string"
            },
            {
              "internalType": "string",
              "name": "requiredDate",
              "type": "string"
            },
            {
              "internalType": "string",
              "name": "receiptNumber",
              "type": "string"
            },
            {
              "internalType": "string",
              "name": "user",
              "type": "string"
            },
            {
              "internalType": "string",
              "name": "transactionType",
              "type": "string"
            },
            {
              "components": [
                {
                  "internalType": "string",
                  "name": "id",
                  "type": "string"
                },
                {
                  "internalType": "string",
                  "name": "itemTypeId",
                  "type": "string"
                },
                {
                  "internalType": "string",
                  "name": "itemTypeName",
                  "type": "string"
                },
                {
                  "internalType": "string",
                  "name": "status",
                  "type": "string"
                },
                {
                  "internalType": "string",
                  "name": "resolvedBy",
                  "type": "string"
                },
                {
                  "internalType": "string",
                  "name": "remark",
                  "type": "string"
                },
                {
                  "internalType": "string",
                  "name": "quantity",
                  "type": "string"
                }
              ],
              "internalType": "struct TransactionFactory.RequestedItems[]",
              "name": "requestedItems",
              "type": "tuple[]"
            },
            {
              "internalType": "string",
              "name": "createdAt",
              "type": "string"
            },
            {
              "internalType": "string",
              "name": "updatedAt",
              "type": "string"
            }
          ],
          "internalType": "struct TransactionFactory.RequestingTransaction",
          "name": "transaction",
          "type": "tuple"
        }
      ],
      "stateMutability": "view",
      "type": "function"
    },
    {
      "inputs": [
        {
          "internalType": "string",
          "name": "id",
          "type": "string"
        }
      ],
      "name": "getReturningTransaction",
      "outputs": [
        {
          "components": [
            {
              "internalType": "string",
              "name": "id",
              "type": "string"
            },
            {
              "internalType": "string",
              "name": "departmentId",
              "type": "string"
            },
            {
              "internalType": "string",
              "name": "departmentName",
              "type": "string"
            },
            {
              "internalType": "string",
              "name": "returnedDate",
              "type": "string"
            },
            {
              "internalType": "string",
              "name": "receiptNumber",
              "type": "string"
            },
            {
              "internalType": "string",
              "name": "user",
              "type": "string"
            },
            {
              "internalType": "string",
              "name": "transactionType",
              "type": "string"
            },
            {
              "components": [
                {
                  "internalType": "string",
                  "name": "id",
                  "type": "string"
                },
                {
                  "internalType": "string",
                  "name": "item",
                  "type": "string"
                },
                {
                  "internalType": "string",
                  "name": "itemTypeId",
                  "type": "string"
                },
                {
                  "internalType": "string",
                  "name": "itemTypeName",
                  "type": "string"
                },
                {
                  "internalType": "string",
                  "name": "status",
                  "type": "string"
                },
                {
                  "internalType": "string",
                  "name": "resolvedBy",
                  "type": "string"
                }
              ],
              "internalType": "struct TransactionFactory.ReturnedItems[]",
              "name": "returnedItems",
              "type": "tuple[]"
            },
            {
              "internalType": "string",
              "name": "createdAt",
              "type": "string"
            },
            {
              "internalType": "string",
              "name": "updatedAt",
              "type": "string"
            }
          ],
          "internalType": "struct TransactionFactory.ReturningTransaction",
          "name": "transaction",
          "type": "tuple"
        }
      ],
      "stateMutability": "view",
      "type": "function"
    },
    {
      "inputs": [
        {
          "internalType": "string",
          "name": "id",
          "type": "string"
        }
      ],
      "name": "getTransferTransaction",
      "outputs": [
        {
          "components": [
            {
              "internalType": "string",
              "name": "id",
              "type": "string"
            },
            {
              "internalType": "string",
              "name": "requestingTransaction",
              "type": "string"
            },
            {
              "internalType": "string",
              "name": "departmentId",
              "type": "string"
            },
            {
              "internalType": "string",
              "name": "departmentName",
              "type": "string"
            },
            {
              "internalType": "string",
              "name": "receiptNumber",
              "type": "string"
            },
            {
              "internalType": "string",
              "name": "user",
              "type": "string"
            },
            {
              "internalType": "string",
              "name": "transactionType",
              "type": "string"
            },
            {
              "components": [
                {
                  "internalType": "string",
                  "name": "itemTypeId",
                  "type": "string"
                },
                {
                  "internalType": "string",
                  "name": "itemTypeName",
                  "type": "string"
                },
                {
                  "internalType": "string",
                  "name": "quantity",
                  "type": "string"
                },
                {
                  "internalType": "string[]",
                  "name": "items",
                  "type": "string[]"
                }
              ],
              "internalType": "struct TransactionFactory.TransferredItems",
              "name": "transferredItems",
              "type": "tuple"
            },
            {
              "internalType": "string",
              "name": "createdAt",
              "type": "string"
            },
            {
              "internalType": "string",
              "name": "updatedAt",
              "type": "string"
            }
          ],
          "internalType": "struct TransactionFactory.TransferringTransaction",
          "name": "transaction",
          "type": "tuple"
        }
      ],
      "stateMutability": "view",
      "type": "function"
    },
    {
      "inputs": [
        {
          "internalType": "string",
          "name": "id",
          "type": "string"
        }
      ],
      "name": "getUser",
      "outputs": [
        {
          "components": [
            {
              "internalType": "string",
              "name": "id",
              "type": "string"
            },
            {
              "internalType": "string",
              "name": "createdBy",
              "type": "string"
            },
            {
              "internalType": "string",
              "name": "username",
              "type": "string"
            },
            {
              "internalType": "string",
              "name": "timestamp",
              "type": "string"
            }
          ],
          "internalType": "struct TransactionFactory.User",
          "name": "user",
          "type": "tuple"
        }
      ],
      "stateMutability": "view",
      "type": "function"
    },
    {
      "inputs": [
        {
          "internalType": "string",
          "name": "source",
          "type": "string"
        }
      ],
      "name": "stringToBytes32",
      "outputs": [
        {
          "internalType": "bytes32",
          "name": "result",
          "type": "bytes32"
        }
      ],
      "stateMutability": "pure",
      "type": "function"
    },
    {
      "inputs": [
        {
          "internalType": "string",
          "name": "id",
          "type": "string"
        },
        {
          "internalType": "string",
          "name": "transactionType",
          "type": "string"
        },
        {
          "internalType": "uint256",
          "name": "index",
          "type": "uint256"
        },
        {
          "internalType": "string",
          "name": "status",
          "type": "string"
        },
        {
          "internalType": "string",
          "name": "remark",
          "type": "string"
        },
        {
          "internalType": "string",
          "name": "resolvedBy",
          "type": "string"
        },
        {
          "internalType": "string",
          "name": "updatedAt",
          "type": "string"
        }
      ],
      "name": "updateStatus",
      "outputs": [],
      "stateMutability": "nonpayable",
      "type": "function"
    },
    {
      "inputs": [
        {
          "internalType": "string",
          "name": "transactionIdentifier",
          "type": "string"
        },
        {
          "internalType": "string",
          "name": "hash",
          "type": "string"
        },
        {
          "internalType": "string",
          "name": "transactionType",
          "type": "string"
        },
        {
          "internalType": "string[]",
          "name": "statuses",
          "type": "string[]"
        }
      ],
      "name": "validateTransaction",
      "outputs": [
        {
          "internalType": "string",
          "name": "",
          "type": "string"
        }
      ],
      "stateMutability": "view",
      "type": "function"
    }
  ],
  "bytecode": "0x608060405234801561001057600080fd5b506157c180620000216000396000f3fe608060405234801561001057600080fd5b506004361061010b5760003560e01c8063ab63b46f116100a2578063cd13c30711610071578063cd13c30714610242578063cfb5192814610255578063d5936d4e14610276578063dd230f3514610296578063ebca2d45146102c157600080fd5b8063ab63b46f146101e9578063b88942fc146101fc578063c29cbd141461020f578063c9ae1b2f1461022f57600080fd5b80636f7fcddb116100de5780636f7fcddb1461018357806385e8f5c0146101965780639aae0b53146101b6578063a693ed4a146101c957600080fd5b8063207a69f11461011057806327506f531461012557806327a469fb1461014357806331feb67114610163575b600080fd5b61012361011e366004614481565b6102d4565b005b61012d61034f565b60405161013a919061453c565b60405180910390f35b61015661015136600461459e565b610428565b60405161013a91906146b9565b61017661017136600461459e565b610d9c565b60405161013a91906147eb565b610123610191366004614869565b610fb6565b6101a96101a436600461459e565b61103a565b60405161013a9190614a6e565b6101236101c4366004614c0d565b6119f8565b6101dc6101d736600461459e565b611ca0565b60405161013a9190614f2f565b6101236101f736600461501c565b612573565b61012361020a36600461519a565b612873565b61022261021d366004615356565b612c18565b60405161013a919061536f565b61012361023d36600461519a565b612cc4565b610222610250366004615389565b6130a4565b61026861026336600461459e565b61353b565b60405190815260200161013a565b61028961028436600461459e565b61355a565b60405161013a919061548b565b6102686102a436600461459e565b805160208183018101805160058252928201919093012091525481565b6101236102cf366004615578565b613ccf565b60006102df8261353b565b9050806005846040516102f291906156b2565b9081526040516020918190038201902091909155600680546001810182556000919091528451610349927ff652222313e28459528d920b65115c16c04f3efc82aaedc97be59f3f377c0d3f90920191860190614204565b50505050565b60606006805480602002602001604051908101604052809291908181526020016000905b8282101561041f578382906000526020600020018054610392906156ce565b80601f01602080910402602001604051908101604052809291908181526020018280546103be906156ce565b801561040b5780601f106103e05761010080835404028352916020019161040b565b820191906000526020600020905b8154815290600101906020018083116103ee57829003601f168201915b505050505081526020019060010190610373565b50505050905090565b61047e604051806101400160405280606081526020016060815260200160608152602001606081526020016060815260200160608152602001606081526020016060815260200160608152602001606081525090565b60038260405161048e91906156b2565b9081526020016040518091039020604051806101400160405290816000820180546104b8906156ce565b80601f01602080910402602001604051908101604052809291908181526020018280546104e4906156ce565b80156105315780601f1061050657610100808354040283529160200191610531565b820191906000526020600020905b81548152906001019060200180831161051457829003601f168201915b5050505050815260200160018201805461054a906156ce565b80601f0160208091040260200160405190810160405280929190818152602001828054610576906156ce565b80156105c35780601f10610598576101008083540402835291602001916105c3565b820191906000526020600020905b8154815290600101906020018083116105a657829003601f168201915b505050505081526020016002820180546105dc906156ce565b80601f0160208091040260200160405190810160405280929190818152602001828054610608906156ce565b80156106555780601f1061062a57610100808354040283529160200191610655565b820191906000526020600020905b81548152906001019060200180831161063857829003601f168201915b5050505050815260200160038201805461066e906156ce565b80601f016020809104026020016040519081016040528092919081815260200182805461069a906156ce565b80156106e75780601f106106bc576101008083540402835291602001916106e7565b820191906000526020600020905b8154815290600101906020018083116106ca57829003601f168201915b50505050508152602001600482018054610700906156ce565b80601f016020809104026020016040519081016040528092919081815260200182805461072c906156ce565b80156107795780601f1061074e57610100808354040283529160200191610779565b820191906000526020600020905b81548152906001019060200180831161075c57829003601f168201915b50505050508152602001600582018054610792906156ce565b80601f01602080910402602001604051908101604052809291908181526020018280546107be906156ce565b801561080b5780601f106107e05761010080835404028352916020019161080b565b820191906000526020600020905b8154815290600101906020018083116107ee57829003601f168201915b50505050508152602001600682018054610824906156ce565b80601f0160208091040260200160405190810160405280929190818152602001828054610850906156ce565b801561089d5780601f106108725761010080835404028352916020019161089d565b820191906000526020600020905b81548152906001019060200180831161088057829003601f168201915b5050505050815260200160078201805480602002602001604051908101604052809291908181526020016000905b82821015610c6957838290600052602060002090600602016040518060c00160405290816000820180546108fe906156ce565b80601f016020809104026020016040519081016040528092919081815260200182805461092a906156ce565b80156109775780601f1061094c57610100808354040283529160200191610977565b820191906000526020600020905b81548152906001019060200180831161095a57829003601f168201915b50505050508152602001600182018054610990906156ce565b80601f01602080910402602001604051908101604052809291908181526020018280546109bc906156ce565b8015610a095780601f106109de57610100808354040283529160200191610a09565b820191906000526020600020905b8154815290600101906020018083116109ec57829003601f168201915b50505050508152602001600282018054610a22906156ce565b80601f0160208091040260200160405190810160405280929190818152602001828054610a4e906156ce565b8015610a9b5780601f10610a7057610100808354040283529160200191610a9b565b820191906000526020600020905b815481529060010190602001808311610a7e57829003601f168201915b50505050508152602001600382018054610ab4906156ce565b80601f0160208091040260200160405190810160405280929190818152602001828054610ae0906156ce565b8015610b2d5780601f10610b0257610100808354040283529160200191610b2d565b820191906000526020600020905b815481529060010190602001808311610b1057829003601f168201915b50505050508152602001600482018054610b46906156ce565b80601f0160208091040260200160405190810160405280929190818152602001828054610b72906156ce565b8015610bbf5780601f10610b9457610100808354040283529160200191610bbf565b820191906000526020600020905b815481529060010190602001808311610ba257829003601f168201915b50505050508152602001600582018054610bd8906156ce565b80601f0160208091040260200160405190810160405280929190818152602001828054610c04906156ce565b8015610c515780601f10610c2657610100808354040283529160200191610c51565b820191906000526020600020905b815481529060010190602001808311610c3457829003601f168201915b505050505081525050815260200190600101906108cb565b505050508152602001600882018054610c81906156ce565b80601f0160208091040260200160405190810160405280929190818152602001828054610cad906156ce565b8015610cfa5780601f10610ccf57610100808354040283529160200191610cfa565b820191906000526020600020905b815481529060010190602001808311610cdd57829003601f168201915b50505050508152602001600982018054610d13906156ce565b80601f0160208091040260200160405190810160405280929190818152602001828054610d3f906156ce565b8015610d8c5780601f10610d6157610100808354040283529160200191610d8c565b820191906000526020600020905b815481529060010190602001808311610d6f57829003601f168201915b5050505050815250509050919050565b610dc76040518060800160405280606081526020016060815260200160608152602001606081525090565b600482604051610dd791906156b2565b9081526020016040518091039020604051806080016040529081600082018054610e00906156ce565b80601f0160208091040260200160405190810160405280929190818152602001828054610e2c906156ce565b8015610e795780601f10610e4e57610100808354040283529160200191610e79565b820191906000526020600020905b815481529060010190602001808311610e5c57829003601f168201915b50505050508152602001600182018054610e92906156ce565b80601f0160208091040260200160405190810160405280929190818152602001828054610ebe906156ce565b8015610f0b5780601f10610ee057610100808354040283529160200191610f0b565b820191906000526020600020905b815481529060010190602001808311610eee57829003601f168201915b50505050508152602001600282018054610f24906156ce565b80601f0160208091040260200160405190810160405280929190818152602001828054610f50906156ce565b8015610f9d5780601f10610f7257610100808354040283529160200191610f9d565b820191906000526020600020905b815481529060010190602001808311610f8057829003601f168201915b50505050508152602001600382018054610d13906156ce565b6000600485604051610fc891906156b2565b9081526020016040518091039020905084816000019080519060200190610ff0929190614204565b5083516110069060028301906020870190614204565b50825161101c9060018301906020860190614204565b5081516110329060038301906020850190614204565b505050505050565b6110896040518061012001604052806060815260200160608152602001606081526020016060815260200160608152602001606081526020016060815260200160608152602001606081525090565b60018260405161109991906156b2565b9081526020016040518091039020604051806101200160405290816000820180546110c3906156ce565b80601f01602080910402602001604051908101604052809291908181526020018280546110ef906156ce565b801561113c5780601f106111115761010080835404028352916020019161113c565b820191906000526020600020905b81548152906001019060200180831161111f57829003601f168201915b50505050508152602001600182018054611155906156ce565b80601f0160208091040260200160405190810160405280929190818152602001828054611181906156ce565b80156111ce5780601f106111a3576101008083540402835291602001916111ce565b820191906000526020600020905b8154815290600101906020018083116111b157829003601f168201915b505050505081526020016002820180546111e7906156ce565b80601f0160208091040260200160405190810160405280929190818152602001828054611213906156ce565b80156112605780601f1061123557610100808354040283529160200191611260565b820191906000526020600020905b81548152906001019060200180831161124357829003601f168201915b50505050508152602001600382018054611279906156ce565b80601f01602080910402602001604051908101604052809291908181526020018280546112a5906156ce565b80156112f25780601f106112c7576101008083540402835291602001916112f2565b820191906000526020600020905b8154815290600101906020018083116112d557829003601f168201915b5050505050815260200160048201805461130b906156ce565b80601f0160208091040260200160405190810160405280929190818152602001828054611337906156ce565b80156113845780601f1061135957610100808354040283529160200191611384565b820191906000526020600020905b81548152906001019060200180831161136757829003601f168201915b5050505050815260200160058201805461139d906156ce565b80601f01602080910402602001604051908101604052809291908181526020018280546113c9906156ce565b80156114165780601f106113eb57610100808354040283529160200191611416565b820191906000526020600020905b8154815290600101906020018083116113f957829003601f168201915b5050505050815260200160068201805480602002602001604051908101604052809291908181526020016000905b8282101561194e578382906000526020600020906008020160405180610100016040529081600082018054611478906156ce565b80601f01602080910402602001604051908101604052809291908181526020018280546114a4906156ce565b80156114f15780601f106114c6576101008083540402835291602001916114f1565b820191906000526020600020905b8154815290600101906020018083116114d457829003601f168201915b5050505050815260200160018201805461150a906156ce565b80601f0160208091040260200160405190810160405280929190818152602001828054611536906156ce565b80156115835780601f1061155857610100808354040283529160200191611583565b820191906000526020600020905b81548152906001019060200180831161156657829003601f168201915b5050505050815260200160028201805461159c906156ce565b80601f01602080910402602001604051908101604052809291908181526020018280546115c8906156ce565b80156116155780601f106115ea57610100808354040283529160200191611615565b820191906000526020600020905b8154815290600101906020018083116115f857829003601f168201915b5050505050815260200160038201805461162e906156ce565b80601f016020809104026020016040519081016040528092919081815260200182805461165a906156ce565b80156116a75780601f1061167c576101008083540402835291602001916116a7565b820191906000526020600020905b81548152906001019060200180831161168a57829003601f168201915b505050505081526020016004820180546116c0906156ce565b80601f01602080910402602001604051908101604052809291908181526020018280546116ec906156ce565b80156117395780601f1061170e57610100808354040283529160200191611739565b820191906000526020600020905b81548152906001019060200180831161171c57829003601f168201915b50505050508152602001600582018054611752906156ce565b80601f016020809104026020016040519081016040528092919081815260200182805461177e906156ce565b80156117cb5780601f106117a0576101008083540402835291602001916117cb565b820191906000526020600020905b8154815290600101906020018083116117ae57829003601f168201915b505050505081526020016006820180546117e4906156ce565b80601f0160208091040260200160405190810160405280929190818152602001828054611810906156ce565b801561185d5780601f106118325761010080835404028352916020019161185d565b820191906000526020600020905b81548152906001019060200180831161184057829003601f168201915b5050505050815260200160078201805480602002602001604051908101604052809291908181526020016000905b828210156119375783829060005260206000200180546118aa906156ce565b80601f01602080910402602001604051908101604052809291908181526020018280546118d6906156ce565b80156119235780601f106118f857610100808354040283529160200191611923565b820191906000526020600020905b81548152906001019060200180831161190657829003601f168201915b50505050508152602001906001019061188b565b505050508152505081526020019060010190611444565b505050508152602001600782018054611966906156ce565b80601f0160208091040260200160405190810160405280929190818152602001828054611992906156ce565b80156119df5780601f106119b4576101008083540402835291602001916119df565b820191906000526020600020905b8154815290600101906020018083116119c257829003601f168201915b50505050508152602001600882018054610d13906156ce565b8a600581604051611a0991906156b2565b9081526040519081900360200190205415611a3f5760405162461bcd60e51b8152600401611a3690615708565b60405180910390fd5b6000604051806080016040528087600081518110611a5f57611a5f61574e565b6020026020010151815260200187600181518110611a7f57611a7f61574e565b6020026020010151815260200187600281518110611a9f57611a9f61574e565b602002602001015181526020018681525090506040518061014001604052808e81526020018d81526020018c81526020018b81526020018a81526020018981526020018881526020018281526020018581526020018481525060008e604051611b0891906156b2565b90815260200160405180910390206000820151816000019080519060200190611b32929190614204565b506020828101518051611b4b9260018501920190614204565b5060408201518051611b67916002840191602090910190614204565b5060608201518051611b83916003840191602090910190614204565b5060808201518051611b9f916004840191602090910190614204565b5060a08201518051611bbb916005840191602090910190614204565b5060c08201518051611bd7916006840191602090910190614204565b5060e0820151805180516007840191611bf591839160200190614204565b506020828101518051611c0e9260018501920190614204565b5060408201518051611c2a916002840191602090910190614204565b5060608201518051611c46916003840191602090910190614288565b5050506101008201518051611c6591600b840191602090910190614204565b506101208201518051611c8291600c840191602090910190614204565b50905050611c908d8f6102d4565b5050505050505050505050505050565b611cf6604051806101400160405280606081526020016060815260200160608152602001606081526020016060815260200160608152602001606081526020016060815260200160608152602001606081525090565b600282604051611d0691906156b2565b908152602001604051809103902060405180610140016040529081600082018054611d30906156ce565b80601f0160208091040260200160405190810160405280929190818152602001828054611d5c906156ce565b8015611da95780601f10611d7e57610100808354040283529160200191611da9565b820191906000526020600020905b815481529060010190602001808311611d8c57829003601f168201915b50505050508152602001600182018054611dc2906156ce565b80601f0160208091040260200160405190810160405280929190818152602001828054611dee906156ce565b8015611e3b5780601f10611e1057610100808354040283529160200191611e3b565b820191906000526020600020905b815481529060010190602001808311611e1e57829003601f168201915b50505050508152602001600282018054611e54906156ce565b80601f0160208091040260200160405190810160405280929190818152602001828054611e80906156ce565b8015611ecd5780601f10611ea257610100808354040283529160200191611ecd565b820191906000526020600020905b815481529060010190602001808311611eb057829003601f168201915b50505050508152602001600382018054611ee6906156ce565b80601f0160208091040260200160405190810160405280929190818152602001828054611f12906156ce565b8015611f5f5780601f10611f3457610100808354040283529160200191611f5f565b820191906000526020600020905b815481529060010190602001808311611f4257829003601f168201915b50505050508152602001600482018054611f78906156ce565b80601f0160208091040260200160405190810160405280929190818152602001828054611fa4906156ce565b8015611ff15780601f10611fc657610100808354040283529160200191611ff1565b820191906000526020600020905b815481529060010190602001808311611fd457829003601f168201915b5050505050815260200160058201805461200a906156ce565b80601f0160208091040260200160405190810160405280929190818152602001828054612036906156ce565b80156120835780601f1061205857610100808354040283529160200191612083565b820191906000526020600020905b81548152906001019060200180831161206657829003601f168201915b5050505050815260200160068201805461209c906156ce565b80601f01602080910402602001604051908101604052809291908181526020018280546120c8906156ce565b80156121155780601f106120ea57610100808354040283529160200191612115565b820191906000526020600020905b8154815290600101906020018083116120f857829003601f168201915b5050505050815260200160078201805480602002602001604051908101604052809291908181526020016000905b82821015610c6957838290600052602060002090600702016040518060e0016040529081600082018054612176906156ce565b80601f01602080910402602001604051908101604052809291908181526020018280546121a2906156ce565b80156121ef5780601f106121c4576101008083540402835291602001916121ef565b820191906000526020600020905b8154815290600101906020018083116121d257829003601f168201915b50505050508152602001600182018054612208906156ce565b80601f0160208091040260200160405190810160405280929190818152602001828054612234906156ce565b80156122815780601f1061225657610100808354040283529160200191612281565b820191906000526020600020905b81548152906001019060200180831161226457829003601f168201915b5050505050815260200160028201805461229a906156ce565b80601f01602080910402602001604051908101604052809291908181526020018280546122c6906156ce565b80156123135780601f106122e857610100808354040283529160200191612313565b820191906000526020600020905b8154815290600101906020018083116122f657829003601f168201915b5050505050815260200160038201805461232c906156ce565b80601f0160208091040260200160405190810160405280929190818152602001828054612358906156ce565b80156123a55780601f1061237a576101008083540402835291602001916123a5565b820191906000526020600020905b81548152906001019060200180831161238857829003601f168201915b505050505081526020016004820180546123be906156ce565b80601f01602080910402602001604051908101604052809291908181526020018280546123ea906156ce565b80156124375780601f1061240c57610100808354040283529160200191612437565b820191906000526020600020905b81548152906001019060200180831161241a57829003601f168201915b50505050508152602001600582018054612450906156ce565b80601f016020809104026020016040519081016040528092919081815260200182805461247c906156ce565b80156124c95780601f1061249e576101008083540402835291602001916124c9565b820191906000526020600020905b8154815290600101906020018083116124ac57829003601f168201915b505050505081526020016006820180546124e2906156ce565b80601f016020809104026020016040519081016040528092919081815260200182805461250e906156ce565b801561255b5780601f106125305761010080835404028352916020019161255b565b820191906000526020600020905b81548152906001019060200180831161253e57829003601f168201915b50505050508152505081526020019060010190612143565b604051752932b8bab2b9ba34b733afaa3930b739b0b1ba34b7b760511b602082015260360160405160208183030381529060405280519060200120866040516020016125bf91906156b2565b604051602081830303815290604052805190602001200361271d57836002886040516125eb91906156b2565b9081526020016040518091039020600701868154811061260d5761260d61574e565b90600052602060002090600702016003019080519060200190612631929190614204565b508260028860405161264391906156b2565b908152602001604051809103902060070186815481106126655761266561574e565b90600052602060002090600702016005019080519060200190612689929190614204565b508160028860405161269b91906156b2565b908152602001604051809103902060070186815481106126bd576126bd61574e565b906000526020600020906007020160040190805190602001906126e1929190614204565b50806002886040516126f391906156b2565b90815260200160405180910390206009019080519060200190612717929190614204565b5061286a565b604051742932ba3ab93734b733afaa3930b739b0b1ba34b7b760591b6020820152603501604051602081830303815290604052805190602001208660405160200161276891906156b2565b604051602081830303815290604052805190602001200361286a578360038860405161279491906156b2565b908152602001604051809103902060070186815481106127b6576127b661574e565b906000526020600020906006020160040190805190602001906127da929190614204565b50816003886040516127ec91906156b2565b9081526020016040518091039020600701868154811061280e5761280e61574e565b90600052602060002090600602016005019080519060200190612832929190614204565b508060038860405161284491906156b2565b90815260200160405180910390206009019080519060200190612868929190614204565b505b50505050505050565b8960058160405161288491906156b2565b90815260405190819003602001902054156128b15760405162461bcd60e51b8152600401611a3690615708565b600060038c6040516128c391906156b2565b908152602001604051809103902090508b8160000190805190602001906128eb929190614204565b508a5161290190600183019060208e0190614204565b50895161291790600283019060208d0190614204565b50885161292d90600383019060208c0190614204565b50875161294390600483019060208b0190614204565b50865161295990600583019060208a0190614204565b50855161296f9060068301906020890190614204565b5083516129859060088301906020870190614204565b50825161299b9060098301906020860190614204565b5060005b8551811015612bfe57600782018054600101815560009081526040805160c08101909152875181908990859081106129d9576129d961574e565b60200260200101516000815181106129f3576129f361574e565b60200260200101518152602001888481518110612a1257612a1261574e565b6020026020010151600181518110612a2c57612a2c61574e565b60200260200101518152602001888481518110612a4b57612a4b61574e565b6020026020010151600281518110612a6557612a6561574e565b60200260200101518152602001888481518110612a8457612a8461574e565b6020026020010151600381518110612a9e57612a9e61574e565b60200260200101518152602001888481518110612abd57612abd61574e565b6020026020010151600481518110612ad757612ad761574e565b60200260200101518152602001888481518110612af657612af661574e565b6020026020010151600581518110612b1057612b1061574e565b6020026020010151815250905080836007018381548110612b3357612b3361574e565b90600052602060002090600602016000820151816000019080519060200190612b5d929190614204565b506020828101518051612b769260018501920190614204565b5060408201518051612b92916002840191602090910190614204565b5060608201518051612bae916003840191602090910190614204565b5060808201518051612bca916004840191602090910190614204565b5060a08201518051612be6916005840191602090910190614204565b50905050508080612bf690615764565b91505061299f565b50612c098c8e6102d4565b50505050505050505050505050565b60068181548110612c2857600080fd5b906000526020600020016000915090508054612c43906156ce565b80601f0160208091040260200160405190810160405280929190818152602001828054612c6f906156ce565b8015612cbc5780601f10612c9157610100808354040283529160200191612cbc565b820191906000526020600020905b815481529060010190602001808311612c9f57829003601f168201915b505050505081565b89600581604051612cd591906156b2565b9081526040519081900360200190205415612d025760405162461bcd60e51b8152600401611a3690615708565b600060028c604051612d1491906156b2565b908152602001604051809103902090508b816000019080519060200190612d3c929190614204565b508a51612d5290600183019060208e0190614204565b508951612d6890600283019060208d0190614204565b508851612d7e90600383019060208c0190614204565b508751612d9490600483019060208b0190614204565b508651612daa90600583019060208a0190614204565b508551612dc09060068301906020890190614204565b508351612dd69060088301906020870190614204565b508251612dec9060098301906020860190614204565b5060005b8551811015612bfe57600782018054600101815560009081526040805160e0810190915287518190899085908110612e2a57612e2a61574e565b6020026020010151600081518110612e4457612e4461574e565b60200260200101518152602001888481518110612e6357612e6361574e565b6020026020010151600181518110612e7d57612e7d61574e565b60200260200101518152602001888481518110612e9c57612e9c61574e565b6020026020010151600281518110612eb657612eb661574e565b60200260200101518152602001888481518110612ed557612ed561574e565b6020026020010151600381518110612eef57612eef61574e565b60200260200101518152602001888481518110612f0e57612f0e61574e565b6020026020010151600481518110612f2857612f2861574e565b60200260200101518152602001888481518110612f4757612f4761574e565b6020026020010151600581518110612f6157612f6161574e565b60200260200101518152602001888481518110612f8057612f8061574e565b6020026020010151600681518110612f9a57612f9a61574e565b6020026020010151815250905080836007018381548110612fbd57612fbd61574e565b90600052602060002090600702016000820151816000019080519060200190612fe7929190614204565b5060208281015180516130009260018501920190614204565b506040820151805161301c916002840191602090910190614204565b5060608201518051613038916003840191602090910190614204565b5060808201518051613054916004840191602090910190614204565b5060a08201518051613070916005840191602090910190614204565b5060c0820151805161308c916006840191602090910190614204565b5090505050808061309c90615764565b915050612df0565b606060006130b18561353b565b90506005866040516130c391906156b2565b908152604051908190036020019020546000036130ff5750506040805180820190915260078152666d697373696e6760c81b6020820152613533565b8060058760405161311091906156b2565b9081526020016040518091039020540361351257604051752932b8bab2b9ba34b733afaa3930b739b0b1ba34b7b760511b6020820152603601604051602081830303815290604052805190602001208460405160200161317091906156b2565b6040516020818303038152906040528051906020012014806131f05750604051742932ba3ab93734b733afaa3930b739b0b1ba34b7b760591b602082015260350160405160208183030381529060405280519060200120846040516020016131d891906156b2565b60405160208183030381529060405280519060200120145b156134ef5760005b83518110156134c857604051752932b8bab2b9ba34b733afaa3930b739b0b1ba34b7b760511b6020820152603601604051602081830303815290604052805190602001208560405160200161324d91906156b2565b60405160208183030381529060405280519060200120036133a657600061333e60028960405161327d91906156b2565b9081526020016040518091039020600701838154811061329f5761329f61574e565b906000526020600020906007020160030180546132bb906156ce565b80601f01602080910402602001604051908101604052809291908181526020018280546132e7906156ce565b80156133345780601f1061330957610100808354040283529160200191613334565b820191906000526020600020905b81548152906001019060200180831161331757829003601f168201915b505050505061353b565b905060006133648684815181106133575761335761574e565b602002602001015161353b565b905080821461339f576040518060400160405280600e81526020016d696e76616c69642073746174757360901b815250945050505050613533565b50506134b6565b604051742932ba3ab93734b733afaa3930b739b0b1ba34b7b760591b602082015260350160405160208183030381529060405280519060200120856040516020016133f191906156b2565b60405160208183030381529060405280519060200120036134b657600061345f60038960405161342191906156b2565b908152602001604051809103902060070183815481106134435761344361574e565b906000526020600020906006020160040180546132bb906156ce565b905060006134788684815181106133575761335761574e565b90508082146134b3576040518060400160405280600e81526020016d696e76616c69642073746174757360901b815250945050505050613533565b50505b806134c081615764565b9150506131f8565b50604051806040016040528060058152602001641d985b1a5960da1b815250915050613533565b50506040805180820190915260058152641d985b1a5960da1b6020820152613533565b50506040805180820190915260078152661a5b9d985b1a5960ca1b60208201525b949350505050565b8051600090829082036135515750600092915050565b50506020015190565b6135626142e1565b60008260405161357291906156b2565b90815260200160405180910390206040518061014001604052908160008201805461359c906156ce565b80601f01602080910402602001604051908101604052809291908181526020018280546135c8906156ce565b80156136155780601f106135ea57610100808354040283529160200191613615565b820191906000526020600020905b8154815290600101906020018083116135f857829003601f168201915b5050505050815260200160018201805461362e906156ce565b80601f016020809104026020016040519081016040528092919081815260200182805461365a906156ce565b80156136a75780601f1061367c576101008083540402835291602001916136a7565b820191906000526020600020905b81548152906001019060200180831161368a57829003601f168201915b505050505081526020016002820180546136c0906156ce565b80601f01602080910402602001604051908101604052809291908181526020018280546136ec906156ce565b80156137395780601f1061370e57610100808354040283529160200191613739565b820191906000526020600020905b81548152906001019060200180831161371c57829003601f168201915b50505050508152602001600382018054613752906156ce565b80601f016020809104026020016040519081016040528092919081815260200182805461377e906156ce565b80156137cb5780601f106137a0576101008083540402835291602001916137cb565b820191906000526020600020905b8154815290600101906020018083116137ae57829003601f168201915b505050505081526020016004820180546137e4906156ce565b80601f0160208091040260200160405190810160405280929190818152602001828054613810906156ce565b801561385d5780601f106138325761010080835404028352916020019161385d565b820191906000526020600020905b81548152906001019060200180831161384057829003601f168201915b50505050508152602001600582018054613876906156ce565b80601f01602080910402602001604051908101604052809291908181526020018280546138a2906156ce565b80156138ef5780601f106138c4576101008083540402835291602001916138ef565b820191906000526020600020905b8154815290600101906020018083116138d257829003601f168201915b50505050508152602001600682018054613908906156ce565b80601f0160208091040260200160405190810160405280929190818152602001828054613934906156ce565b80156139815780601f1061395657610100808354040283529160200191613981565b820191906000526020600020905b81548152906001019060200180831161396457829003601f168201915b50505050508152602001600782016040518060800160405290816000820180546139aa906156ce565b80601f01602080910402602001604051908101604052809291908181526020018280546139d6906156ce565b8015613a235780601f106139f857610100808354040283529160200191613a23565b820191906000526020600020905b815481529060010190602001808311613a0657829003601f168201915b50505050508152602001600182018054613a3c906156ce565b80601f0160208091040260200160405190810160405280929190818152602001828054613a68906156ce565b8015613ab55780601f10613a8a57610100808354040283529160200191613ab5565b820191906000526020600020905b815481529060010190602001808311613a9857829003601f168201915b50505050508152602001600282018054613ace906156ce565b80601f0160208091040260200160405190810160405280929190818152602001828054613afa906156ce565b8015613b475780601f10613b1c57610100808354040283529160200191613b47565b820191906000526020600020905b815481529060010190602001808311613b2a57829003601f168201915b5050505050815260200160038201805480602002602001604051908101604052809291908181526020016000905b82821015613c21578382906000526020600020018054613b94906156ce565b80601f0160208091040260200160405190810160405280929190818152602001828054613bc0906156ce565b8015613c0d5780601f10613be257610100808354040283529160200191613c0d565b820191906000526020600020905b815481529060010190602001808311613bf057829003601f168201915b505050505081526020019060010190613b75565b50505050815250508152602001600b82018054613c3d906156ce565b80601f0160208091040260200160405190810160405280929190818152602001828054613c69906156ce565b8015613cb65780601f10613c8b57610100808354040283529160200191613cb6565b820191906000526020600020905b815481529060010190602001808311613c9957829003601f168201915b50505050508152602001600c82018054610d13906156ce565b89600581604051613ce091906156b2565b9081526040519081900360200190205415613d0d5760405162461bcd60e51b8152600401611a3690615708565b600060018c604051613d1f91906156b2565b908152602001604051809103902090508b816000019080519060200190613d47929190614204565b508a51613d5d90600183019060208e0190614204565b508951613d7390600283019060208d0190614204565b508851613d8990600383019060208c0190614204565b508751613d9f90600483019060208b0190614204565b508651613db590600583019060208a0190614204565b508351613dcb9060078301906020870190614204565b508251613de19060088301906020860190614204565b5060005b8651811015612bfe5760068201805460010181556000528651879082908110613e1057613e1061574e565b6020026020010151600081518110613e2a57613e2a61574e565b6020026020010151826006018281548110613e4757613e4761574e565b90600052602060002090600802016000019080519060200190613e6b929190614204565b50868181518110613e7e57613e7e61574e565b6020026020010151600181518110613e9857613e9861574e565b6020026020010151826006018281548110613eb557613eb561574e565b90600052602060002090600802016001019080519060200190613ed9929190614204565b50868181518110613eec57613eec61574e565b6020026020010151600281518110613f0657613f0661574e565b6020026020010151826006018281548110613f2357613f2361574e565b90600052602060002090600802016002019080519060200190613f47929190614204565b50868181518110613f5a57613f5a61574e565b6020026020010151600381518110613f7457613f7461574e565b6020026020010151826006018281548110613f9157613f9161574e565b90600052602060002090600802016003019080519060200190613fb5929190614204565b50868181518110613fc857613fc861574e565b6020026020010151600481518110613fe257613fe261574e565b6020026020010151826006018281548110613fff57613fff61574e565b90600052602060002090600802016004019080519060200190614023929190614204565b508681815181106140365761403661574e565b60200260200101516005815181106140505761405061574e565b602002602001015182600601828154811061406d5761406d61574e565b90600052602060002090600802016005019080519060200190614091929190614204565b508681815181106140a4576140a461574e565b60200260200101516006815181106140be576140be61574e565b60200260200101518260060182815481106140db576140db61574e565b906000526020600020906008020160060190805190602001906140ff929190614204565b5060005b8682815181106141155761411561574e565b6020026020010151518110156141f15782600601828154811061413a5761413a61574e565b60009182526020822060076008909202010180546001018155905286518790839081106141695761416961574e565b602002602001015181815181106141825761418261574e565b602002602001015183600601838154811061419f5761419f61574e565b906000526020600020906008020160070182815481106141c1576141c161574e565b9060005260206000200190805190602001906141de929190614204565b50806141e981615764565b915050614103565b50806141fc81615764565b915050613de5565b828054614210906156ce565b90600052602060002090601f0160209004810192826142325760008555614278565b82601f1061424b57805160ff1916838001178555614278565b82800160010185558215614278579182015b8281111561427857825182559160200191906001019061425d565b5061428492915061435d565b5090565b8280548282559060005260206000209081019282156142d5579160200282015b828111156142d557825180516142c5918491602090910190614204565b50916020019190600101906142a8565b50614284929150614372565b604051806101400160405280606081526020016060815260200160608152602001606081526020016060815260200160608152602001606081526020016143496040518060800160405280606081526020016060815260200160608152602001606081525090565b815260200160608152602001606081525090565b5b80821115614284576000815560010161435e565b80821115614284576000614386828261438f565b50600101614372565b50805461439b906156ce565b6000825580601f106143ab575050565b601f0160209004906000526020600020908101906143c9919061435d565b50565b634e487b7160e01b600052604160045260246000fd5b604051601f8201601f191681016001600160401b038111828210171561440a5761440a6143cc565b604052919050565b600082601f83011261442357600080fd5b81356001600160401b0381111561443c5761443c6143cc565b61444f601f8201601f19166020016143e2565b81815284602083860101111561446457600080fd5b816020850160208301376000918101602001919091529392505050565b6000806040838503121561449457600080fd5b82356001600160401b03808211156144ab57600080fd5b6144b786838701614412565b935060208501359150808211156144cd57600080fd5b506144da85828601614412565b9150509250929050565b60005b838110156144ff5781810151838201526020016144e7565b838111156103495750506000910152565b600081518084526145288160208601602086016144e4565b601f01601f19169290920160200192915050565b6000602080830181845280855180835260408601915060408160051b870101925083870160005b8281101561459157603f1988860301845261457f858351614510565b94509285019290850190600101614563565b5092979650505050505050565b6000602082840312156145b057600080fd5b81356001600160401b038111156145c657600080fd5b61353384828501614412565b600081518084526020808501808196508360051b8101915082860160005b858110156146ac578284038952815160c0815181875261461282880182614510565b915050868201518682038888015261462a8282614510565b915050604080830151878303828901526146448382614510565b925050506060808301518783038289015261465f8382614510565b925050506080808301518783038289015261467a8382614510565b9250505060a080830151925086820381880152506146988183614510565b9a87019a95505050908401906001016145f0565b5091979650505050505050565b60208152600082516101408060208501526146d8610160850183614510565b91506020850151601f19808685030160408701526146f68483614510565b935060408701519150808685030160608701526147138483614510565b935060608701519150808685030160808701526147308483614510565b935060808701519150808685030160a087015261474d8483614510565b935060a08701519150808685030160c087015261476a8483614510565b935060c08701519150808685030160e08701526147878483614510565b935060e087015191506101008187860301818801526147a685846145d2565b9450808801519250506101208187860301818801526147c58584614510565b9088015187820390920184880152935090506147e18382614510565b9695505050505050565b60208152600082516080602084015261480760a0840182614510565b90506020840151601f19808584030160408601526148258383614510565b925060408601519150808584030160608601526148428383614510565b92506060860151915080858403016080860152506148608282614510565b95945050505050565b6000806000806080858703121561487f57600080fd5b84356001600160401b038082111561489657600080fd5b6148a288838901614412565b955060208701359150808211156148b857600080fd5b6148c488838901614412565b945060408701359150808211156148da57600080fd5b6148e688838901614412565b935060608701359150808211156148fc57600080fd5b5061490987828801614412565b91505092959194509250565b600081518084526020808501808196508360051b8101915082860160005b858110156146ac57828403895261494b848351614510565b98850198935090840190600101614933565b600081518084526020808501808196508360051b8101915082860160005b858110156146ac5782840389528151610100815181875261499e82880182614510565b91505086820151868203888801526149b68282614510565b915050604080830151878303828901526149d08382614510565b92505050606080830151878303828901526149eb8382614510565b9250505060808083015187830382890152614a068382614510565b9250505060a08083015187830382890152614a218382614510565b9250505060c08083015187830382890152614a3c8382614510565b9250505060e08083015192508682038188015250614a5a8183614915565b9a87019a955050509084019060010161497b565b6020815260008251610120806020850152614a8d610140850183614510565b91506020850151601f1980868503016040870152614aab8483614510565b93506040870151915080868503016060870152614ac88483614510565b93506060870151915080868503016080870152614ae58483614510565b935060808701519150808685030160a0870152614b028483614510565b935060a08701519150808685030160c0870152614b1f8483614510565b935060c08701519150808685030160e0870152614b3c848361495d565b935060e087015191506101008187860301818801526147c58584614510565b60006001600160401b03821115614b7457614b746143cc565b5060051b60200190565b600082601f830112614b8f57600080fd5b81356020614ba4614b9f83614b5b565b6143e2565b82815260059290921b84018101918181019086841115614bc357600080fd5b8286015b84811015614c025780356001600160401b03811115614be65760008081fd5b614bf48986838b0101614412565b845250918301918301614bc7565b509695505050505050565b6000806000806000806000806000806000806101808d8f031215614c3057600080fd5b6001600160401b038d351115614c4557600080fd5b614c528e8e358f01614412565b9b506001600160401b0360208e01351115614c6c57600080fd5b614c7c8e60208f01358f01614412565b9a506001600160401b0360408e01351115614c9657600080fd5b614ca68e60408f01358f01614412565b99506001600160401b0360608e01351115614cc057600080fd5b614cd08e60608f01358f01614412565b98506001600160401b0360808e01351115614cea57600080fd5b614cfa8e60808f01358f01614412565b97506001600160401b0360a08e01351115614d1457600080fd5b614d248e60a08f01358f01614412565b96506001600160401b0360c08e01351115614d3e57600080fd5b614d4e8e60c08f01358f01614412565b95506001600160401b0360e08e01351115614d6857600080fd5b614d788e60e08f01358f01614412565b94506001600160401b036101008e01351115614d9357600080fd5b614da48e6101008f01358f01614b7e565b93506001600160401b036101208e01351115614dbf57600080fd5b614dd08e6101208f01358f01614b7e565b92506001600160401b036101408e01351115614deb57600080fd5b614dfc8e6101408f01358f01614412565b91506001600160401b036101608e01351115614e1757600080fd5b614e288e6101608f01358f01614412565b90509295989b509295989b509295989b565b600081518084526020808501808196508360051b8101915082860160005b858110156146ac578284038952815160e08151818752614e7a82880182614510565b9150508682015186820388880152614e928282614510565b91505060408083015187830382890152614eac8382614510565b9250505060608083015187830382890152614ec78382614510565b9250505060808083015187830382890152614ee28382614510565b9250505060a08083015187830382890152614efd8382614510565b9250505060c08083015192508682038188015250614f1b8183614510565b9a87019a9550505090840190600101614e58565b6020815260008251610140806020850152614f4e610160850183614510565b91506020850151601f1980868503016040870152614f6c8483614510565b93506040870151915080868503016060870152614f898483614510565b93506060870151915080868503016080870152614fa68483614510565b935060808701519150808685030160a0870152614fc38483614510565b935060a08701519150808685030160c0870152614fe08483614510565b935060c08701519150808685030160e0870152614ffd8483614510565b935060e087015191506101008187860301818801526147a68584614e3a565b600080600080600080600060e0888a03121561503757600080fd5b87356001600160401b038082111561504e57600080fd5b61505a8b838c01614412565b985060208a013591508082111561507057600080fd5b61507c8b838c01614412565b975060408a0135965060608a013591508082111561509957600080fd5b6150a58b838c01614412565b955060808a01359150808211156150bb57600080fd5b6150c78b838c01614412565b945060a08a01359150808211156150dd57600080fd5b6150e98b838c01614412565b935060c08a01359150808211156150ff57600080fd5b5061510c8a828b01614412565b91505092959891949750929550565b600082601f83011261512c57600080fd5b8135602061513c614b9f83614b5b565b82815260059290921b8401810191818101908684111561515b57600080fd5b8286015b84811015614c025780356001600160401b0381111561517e5760008081fd5b61518c8986838b0101614b7e565b84525091830191830161515f565b60008060008060008060008060008060006101608c8e0312156151bc57600080fd5b6001600160401b03808d3511156151d257600080fd5b6151df8e8e358f01614412565b9b508060208e013511156151f257600080fd5b6152028e60208f01358f01614412565b9a508060408e0135111561521557600080fd5b6152258e60408f01358f01614412565b99508060608e0135111561523857600080fd5b6152488e60608f01358f01614412565b98508060808e0135111561525b57600080fd5b61526b8e60808f01358f01614412565b97508060a08e0135111561527e57600080fd5b61528e8e60a08f01358f01614412565b96508060c08e013511156152a157600080fd5b6152b18e60c08f01358f01614412565b95508060e08e013511156152c457600080fd5b6152d48e60e08f01358f01614412565b9450806101008e013511156152e857600080fd5b6152f98e6101008f01358f0161511b565b9350806101208e0135111561530d57600080fd5b61531e8e6101208f01358f01614412565b9250806101408e0135111561533257600080fd5b506153448d6101408e01358e01614412565b90509295989b509295989b9093969950565b60006020828403121561536857600080fd5b5035919050565b6020815260006153826020830184614510565b9392505050565b6000806000806080858703121561539f57600080fd5b84356001600160401b03808211156153b657600080fd5b6153c288838901614412565b955060208701359150808211156153d857600080fd5b6153e488838901614412565b945060408701359150808211156153fa57600080fd5b61540688838901614412565b9350606087013591508082111561541c57600080fd5b5061490987828801614b7e565b600081516080845261543e6080850182614510565b9050602083015184820360208601526154578282614510565b915050604083015184820360408601526154718282614510565b915050606083015184820360608601526148608282614915565b60208152600082516101408060208501526154aa610160850183614510565b91506020850151601f19808685030160408701526154c88483614510565b935060408701519150808685030160608701526154e58483614510565b935060608701519150808685030160808701526155028483614510565b935060808701519150808685030160a087015261551f8483614510565b935060a08701519150808685030160c087015261553c8483614510565b935060c08701519150808685030160e08701526155598483614510565b935060e087015191506101008187860301818801526147a68584615429565b60008060008060008060008060008060006101608c8e03121561559a57600080fd5b6001600160401b03808d3511156155b057600080fd5b6155bd8e8e358f01614412565b9b508060208e013511156155d057600080fd5b6155e08e60208f01358f01614412565b9a508060408e013511156155f357600080fd5b6156038e60408f01358f01614412565b99508060608e0135111561561657600080fd5b6156268e60608f01358f01614412565b98508060808e0135111561563957600080fd5b6156498e60808f01358f01614412565b97508060a08e0135111561565c57600080fd5b61566c8e60a08f01358f01614412565b96508060c08e0135111561567f57600080fd5b61568f8e60c08f01358f01614412565b95508060e08e013511156156a257600080fd5b6152d48e60e08f01358f0161511b565b600082516156c48184602087016144e4565b9190910192915050565b600181811c908216806156e257607f821691505b60208210810361570257634e487b7160e01b600052602260045260246000fd5b50919050565b60208082526026908201527f41207472616e73616374696f6e2063616e206f6e6c792062652061756469746560408201526564206f6e636560d01b606082015260800190565b634e487b7160e01b600052603260045260246000fd5b60006001820161578457634e487b7160e01b600052601160045260246000fd5b506001019056fea2646970667358221220792dfc00d1a507f0b5389c551f5112a412f711a02f4e7ec45a543c5323f53f9964736f6c634300080d0033",
  "linkReferences": {},
  "deployedLinkReferences": {}
}