{
  "_format": "hh-sol-artifact-1",
  "contractName": "TransactionFactory",
  "sourceName": "contracts/TransactionFactory.sol",
  "abi": [
    {
      "inputs": [
        {
          "internalType": "string",
          "name": "transactionIdentifier",
          "type": "string"
        },
        {
          "internalType": "string",
          "name": "hash",
          "type": "string"
        }
      ],
      "name": "auditTransaction",
      "outputs": [],
      "stateMutability": "nonpayable",
      "type": "function"
    },
    {
      "inputs": [
        {
          "internalType": "uint256",
          "name": "",
          "type": "uint256"
        }
      ],
      "name": "auditedTransactions",
      "outputs": [
        {
          "internalType": "string",
          "name": "",
          "type": "string"
        }
      ],
      "stateMutability": "view",
      "type": "function"
    },
    {
      "inputs": [
        {
          "internalType": "string",
          "name": "dataHash",
          "type": "string"
        },
        {
          "internalType": "string",
          "name": "id",
          "type": "string"
        },
        {
          "internalType": "string",
          "name": "source",
          "type": "string"
        },
        {
          "internalType": "string",
          "name": "receiptNumber",
          "type": "string"
        },
        {
          "internalType": "string",
          "name": "user",
          "type": "string"
        },
        {
          "internalType": "string",
          "name": "transactionType",
          "type": "string"
        },
        {
          "internalType": "string[][]",
          "name": "newReceivedItems",
          "type": "string[][]"
        },
        {
          "internalType": "string[][]",
          "name": "newItems",
          "type": "string[][]"
        }
      ],
      "name": "createReceivingTransaction",
      "outputs": [],
      "stateMutability": "nonpayable",
      "type": "function"
    },
    {
      "inputs": [
        {
          "internalType": "string",
          "name": "dataHash",
          "type": "string"
        },
        {
          "internalType": "string",
          "name": "id",
          "type": "string"
        },
        {
          "internalType": "string",
          "name": "department",
          "type": "string"
        },
        {
          "internalType": "string",
          "name": "requiredDate",
          "type": "string"
        },
        {
          "internalType": "string",
          "name": "receiptNumber",
          "type": "string"
        },
        {
          "internalType": "string",
          "name": "user",
          "type": "string"
        },
        {
          "internalType": "string",
          "name": "transactionType",
          "type": "string"
        },
        {
          "internalType": "string[][]",
          "name": "newRequestedItems",
          "type": "string[][]"
        }
      ],
      "name": "createRequestingTransaction",
      "outputs": [],
      "stateMutability": "nonpayable",
      "type": "function"
    },
    {
      "inputs": [
        {
          "internalType": "string",
          "name": "dataHash",
          "type": "string"
        },
        {
          "internalType": "string",
          "name": "id",
          "type": "string"
        },
        {
          "internalType": "string",
          "name": "department",
          "type": "string"
        },
        {
          "internalType": "string",
          "name": "returnedDate",
          "type": "string"
        },
        {
          "internalType": "string",
          "name": "receiptNumber",
          "type": "string"
        },
        {
          "internalType": "string",
          "name": "user",
          "type": "string"
        },
        {
          "internalType": "string",
          "name": "transactionType",
          "type": "string"
        },
        {
          "internalType": "string[][]",
          "name": "newReturnedItems",
          "type": "string[][]"
        }
      ],
      "name": "createReturningTransaction",
      "outputs": [],
      "stateMutability": "nonpayable",
      "type": "function"
    },
    {
      "inputs": [
        {
          "internalType": "string",
          "name": "dataHash",
          "type": "string"
        },
        {
          "internalType": "string",
          "name": "id",
          "type": "string"
        },
        {
          "internalType": "string",
          "name": "requestingTransaction",
          "type": "string"
        },
        {
          "internalType": "string",
          "name": "department",
          "type": "string"
        },
        {
          "internalType": "string",
          "name": "receiptNumber",
          "type": "string"
        },
        {
          "internalType": "string",
          "name": "user",
          "type": "string"
        },
        {
          "internalType": "string",
          "name": "transactionType",
          "type": "string"
        },
        {
          "internalType": "string[]",
          "name": "transferredItems",
          "type": "string[]"
        },
        {
          "internalType": "string[]",
          "name": "newItems",
          "type": "string[]"
        }
      ],
      "name": "createTransferringTransaction",
      "outputs": [],
      "stateMutability": "nonpayable",
      "type": "function"
    },
    {
      "inputs": [
        {
          "internalType": "string",
          "name": "",
          "type": "string"
        }
      ],
      "name": "dataHashes",
      "outputs": [
        {
          "internalType": "bytes32",
          "name": "",
          "type": "bytes32"
        }
      ],
      "stateMutability": "view",
      "type": "function"
    },
    {
      "inputs": [
        {
          "internalType": "string",
          "name": "id",
          "type": "string"
        }
      ],
      "name": "getReceivingTransaction",
      "outputs": [
        {
          "components": [
            {
              "internalType": "string",
              "name": "id",
              "type": "string"
            },
            {
              "internalType": "string",
              "name": "source",
              "type": "string"
            },
            {
              "internalType": "string",
              "name": "receiptNumber",
              "type": "string"
            },
            {
              "internalType": "string",
              "name": "user",
              "type": "string"
            },
            {
              "internalType": "string",
              "name": "transactionType",
              "type": "string"
            },
            {
              "components": [
                {
                  "internalType": "string",
                  "name": "id",
                  "type": "string"
                },
                {
                  "internalType": "string",
                  "name": "itemType",
                  "type": "string"
                },
                {
                  "internalType": "string",
                  "name": "quantity",
                  "type": "string"
                },
                {
                  "internalType": "string",
                  "name": "unitCost",
                  "type": "string"
                },
                {
                  "internalType": "string",
                  "name": "subinventory",
                  "type": "string"
                },
                {
                  "internalType": "string[]",
                  "name": "items",
                  "type": "string[]"
                }
              ],
              "internalType": "struct TransactionFactory.ReceivedItems[]",
              "name": "receivedItems",
              "type": "tuple[]"
            }
          ],
          "internalType": "struct TransactionFactory.ReceivingTransaction",
          "name": "transaction",
          "type": "tuple"
        }
      ],
      "stateMutability": "view",
      "type": "function"
    },
    {
      "inputs": [
        {
          "internalType": "string",
          "name": "id",
          "type": "string"
        }
      ],
      "name": "getRequestingTransaction",
      "outputs": [
        {
          "components": [
            {
              "internalType": "string",
              "name": "id",
              "type": "string"
            },
            {
              "internalType": "string",
              "name": "department",
              "type": "string"
            },
            {
              "internalType": "string",
              "name": "requiredDate",
              "type": "string"
            },
            {
              "internalType": "string",
              "name": "receiptNumber",
              "type": "string"
            },
            {
              "internalType": "string",
              "name": "user",
              "type": "string"
            },
            {
              "internalType": "string",
              "name": "transactionType",
              "type": "string"
            },
            {
              "components": [
                {
                  "internalType": "string",
                  "name": "id",
                  "type": "string"
                },
                {
                  "internalType": "string",
                  "name": "itemType",
                  "type": "string"
                },
                {
                  "internalType": "string",
                  "name": "status",
                  "type": "string"
                },
                {
                  "internalType": "string",
                  "name": "quantity",
                  "type": "string"
                }
              ],
              "internalType": "struct TransactionFactory.RequestedItems[]",
              "name": "requestedItems",
              "type": "tuple[]"
            }
          ],
          "internalType": "struct TransactionFactory.RequestingTransaction",
          "name": "transaction",
          "type": "tuple"
        }
      ],
      "stateMutability": "view",
      "type": "function"
    },
    {
      "inputs": [
        {
          "internalType": "string",
          "name": "id",
          "type": "string"
        }
      ],
      "name": "getReturningTransaction",
      "outputs": [
        {
          "components": [
            {
              "internalType": "string",
              "name": "id",
              "type": "string"
            },
            {
              "internalType": "string",
              "name": "department",
              "type": "string"
            },
            {
              "internalType": "string",
              "name": "returnedDate",
              "type": "string"
            },
            {
              "internalType": "string",
              "name": "receiptNumber",
              "type": "string"
            },
            {
              "internalType": "string",
              "name": "user",
              "type": "string"
            },
            {
              "internalType": "string",
              "name": "transactionType",
              "type": "string"
            },
            {
              "components": [
                {
                  "internalType": "string",
                  "name": "id",
                  "type": "string"
                },
                {
                  "internalType": "string",
                  "name": "item",
                  "type": "string"
                },
                {
                  "internalType": "string",
                  "name": "itemType",
                  "type": "string"
                },
                {
                  "internalType": "string",
                  "name": "status",
                  "type": "string"
                }
              ],
              "internalType": "struct TransactionFactory.ReturnedItems[]",
              "name": "returnedItems",
              "type": "tuple[]"
            }
          ],
          "internalType": "struct TransactionFactory.ReturningTransaction",
          "name": "transaction",
          "type": "tuple"
        }
      ],
      "stateMutability": "view",
      "type": "function"
    },
    {
      "inputs": [
        {
          "internalType": "string",
          "name": "id",
          "type": "string"
        }
      ],
      "name": "getTransferTransaction",
      "outputs": [
        {
          "components": [
            {
              "internalType": "string",
              "name": "id",
              "type": "string"
            },
            {
              "internalType": "string",
              "name": "requestingTransaction",
              "type": "string"
            },
            {
              "internalType": "string",
              "name": "department",
              "type": "string"
            },
            {
              "internalType": "string",
              "name": "receiptNumber",
              "type": "string"
            },
            {
              "internalType": "string",
              "name": "user",
              "type": "string"
            },
            {
              "internalType": "string",
              "name": "transactionType",
              "type": "string"
            },
            {
              "components": [
                {
                  "internalType": "string",
                  "name": "itemType",
                  "type": "string"
                },
                {
                  "internalType": "string",
                  "name": "quantity",
                  "type": "string"
                },
                {
                  "internalType": "string[]",
                  "name": "items",
                  "type": "string[]"
                }
              ],
              "internalType": "struct TransactionFactory.TransferredItems",
              "name": "transferredItems",
              "type": "tuple"
            }
          ],
          "internalType": "struct TransactionFactory.TransferringTransaction",
          "name": "transaction",
          "type": "tuple"
        }
      ],
      "stateMutability": "view",
      "type": "function"
    },
    {
      "inputs": [
        {
          "internalType": "string",
          "name": "source",
          "type": "string"
        }
      ],
      "name": "stringToBytes32",
      "outputs": [
        {
          "internalType": "bytes32",
          "name": "result",
          "type": "bytes32"
        }
      ],
      "stateMutability": "pure",
      "type": "function"
    },
    {
      "inputs": [
        {
          "internalType": "string",
          "name": "transactionIdentifier",
          "type": "string"
        },
        {
          "internalType": "string",
          "name": "hash",
          "type": "string"
        }
      ],
      "name": "validateTransaction",
      "outputs": [
        {
          "internalType": "string",
          "name": "",
          "type": "string"
        }
      ],
      "stateMutability": "view",
      "type": "function"
    }
  ],
  "bytecode": "0x608060405234801561001057600080fd5b506138b2806100206000396000f3fe608060405234801561001057600080fd5b50600436106100cf5760003560e01c80638e598f181161008c578063d5936d4e11610066578063d5936d4e146101e0578063ec4605f214610200578063f93ffaee14610213578063fc2cd2081461022657600080fd5b80638e598f181461019a578063a693ed4a146101ad578063cfb51928146101cd57600080fd5b80631b5a7392146100d4578063207a69f11461011257806327a469fb146101275780636194417b1461014757806385e8f5c01461015a5780638b7edbd41461017a575b600080fd5b6100ff6100e2366004612c04565b805160208183018101805160048252928201919093012091525481565b6040519081526020015b60405180910390f35b610125610120366004612c41565b610239565b005b61013a610135366004612c04565b6102b4565b6040516101099190612dc0565b610125610155366004612fc1565b610936565b61016d610168366004612c04565b610d6d565b6040516101099190613156565b61018d610188366004612c41565b6114b3565b60405161010991906132d4565b61018d6101a83660046132ee565b61157d565b6101c06101bb366004612c04565b611629565b604051610109919061334f565b6100ff6101db366004612c04565b611c9d565b6101f36101ee366004612c04565b611cbc565b6040516101099190613464565b61012561020e366004613531565b61226e565b610125610221366004613531565b61250d565b61012561023436600461363e565b6127ac565b600061024482611c9d565b90508060048460405161025791906137a3565b90815260405160209181900382019020919091556005805460018101825560009190915284516102ae927f036b6384b5eca791c62761152d0c79bb0604c104a5fb6f4eb0703f3154bb3db0909201918601906129a3565b50505050565b6102f46040518060e00160405280606081526020016060815260200160608152602001606081526020016060815260200160608152602001606081525090565b60038260405161030491906137a3565b90815260200160405180910390206040518060e001604052908160008201805461032d906137bf565b80601f0160208091040260200160405190810160405280929190818152602001828054610359906137bf565b80156103a65780601f1061037b576101008083540402835291602001916103a6565b820191906000526020600020905b81548152906001019060200180831161038957829003601f168201915b505050505081526020016001820180546103bf906137bf565b80601f01602080910402602001604051908101604052809291908181526020018280546103eb906137bf565b80156104385780601f1061040d57610100808354040283529160200191610438565b820191906000526020600020905b81548152906001019060200180831161041b57829003601f168201915b50505050508152602001600282018054610451906137bf565b80601f016020809104026020016040519081016040528092919081815260200182805461047d906137bf565b80156104ca5780601f1061049f576101008083540402835291602001916104ca565b820191906000526020600020905b8154815290600101906020018083116104ad57829003601f168201915b505050505081526020016003820180546104e3906137bf565b80601f016020809104026020016040519081016040528092919081815260200182805461050f906137bf565b801561055c5780601f106105315761010080835404028352916020019161055c565b820191906000526020600020905b81548152906001019060200180831161053f57829003601f168201915b50505050508152602001600482018054610575906137bf565b80601f01602080910402602001604051908101604052809291908181526020018280546105a1906137bf565b80156105ee5780601f106105c3576101008083540402835291602001916105ee565b820191906000526020600020905b8154815290600101906020018083116105d157829003601f168201915b50505050508152602001600582018054610607906137bf565b80601f0160208091040260200160405190810160405280929190818152602001828054610633906137bf565b80156106805780601f1061065557610100808354040283529160200191610680565b820191906000526020600020905b81548152906001019060200180831161066357829003601f168201915b5050505050815260200160068201805480602002602001604051908101604052809291908181526020016000905b8282101561092857838290600052602060002090600402016040518060800160405290816000820180546106e1906137bf565b80601f016020809104026020016040519081016040528092919081815260200182805461070d906137bf565b801561075a5780601f1061072f5761010080835404028352916020019161075a565b820191906000526020600020905b81548152906001019060200180831161073d57829003601f168201915b50505050508152602001600182018054610773906137bf565b80601f016020809104026020016040519081016040528092919081815260200182805461079f906137bf565b80156107ec5780601f106107c1576101008083540402835291602001916107ec565b820191906000526020600020905b8154815290600101906020018083116107cf57829003601f168201915b50505050508152602001600282018054610805906137bf565b80601f0160208091040260200160405190810160405280929190818152602001828054610831906137bf565b801561087e5780601f106108535761010080835404028352916020019161087e565b820191906000526020600020905b81548152906001019060200180831161086157829003601f168201915b50505050508152602001600382018054610897906137bf565b80601f01602080910402602001604051908101604052809291908181526020018280546108c3906137bf565b80156109105780601f106108e557610100808354040283529160200191610910565b820191906000526020600020905b8154815290600101906020018083116108f357829003601f168201915b505050505081525050815260200190600101906106ae565b505050915250909392505050565b8660048160405161094791906137a3565b908152604051908190036020019020541561097d5760405162461bcd60e51b8152600401610974906137f9565b60405180910390fd5b600060018960405161098f91906137a3565b90815260200160405180910390209050888160000190805190602001906109b79291906129a3565b5087516109cd90600183019060208b01906129a3565b5086516109e390600283019060208a01906129a3565b5085516109f990600383019060208901906129a3565b508451610a0f90600483019060208801906129a3565b5060005b8451811015610d565760058201805460010181556000528451859082908110610a3e57610a3e61383f565b6020026020010151600081518110610a5857610a5861383f565b6020026020010151826005018281548110610a7557610a7561383f565b90600052602060002090600602016000019080519060200190610a999291906129a3565b50848181518110610aac57610aac61383f565b6020026020010151600181518110610ac657610ac661383f565b6020026020010151826005018281548110610ae357610ae361383f565b90600052602060002090600602016001019080519060200190610b079291906129a3565b50848181518110610b1a57610b1a61383f565b6020026020010151600281518110610b3457610b3461383f565b6020026020010151826005018281548110610b5157610b5161383f565b90600052602060002090600602016002019080519060200190610b759291906129a3565b50848181518110610b8857610b8861383f565b6020026020010151600381518110610ba257610ba261383f565b6020026020010151826005018281548110610bbf57610bbf61383f565b90600052602060002090600602016003019080519060200190610be39291906129a3565b50848181518110610bf657610bf661383f565b6020026020010151600481518110610c1057610c1061383f565b6020026020010151826005018281548110610c2d57610c2d61383f565b90600052602060002090600602016004019080519060200190610c519291906129a3565b5060005b848281518110610c6757610c6761383f565b602002602001015151811015610d4357826005018281548110610c8c57610c8c61383f565b6000918252602082206005600690920201018054600101815590528451859083908110610cbb57610cbb61383f565b60200260200101518181518110610cd457610cd461383f565b6020026020010151836005018381548110610cf157610cf161383f565b90600052602060002090600602016005018281548110610d1357610d1361383f565b906000526020600020019080519060200190610d309291906129a3565b5080610d3b81613855565b915050610c55565b5080610d4e81613855565b915050610a13565b50610d61898b610239565b50505050505050505050565b610da66040518060c001604052806060815260200160608152602001606081526020016060815260200160608152602001606081525090565b600182604051610db691906137a3565b90815260200160405180910390206040518060c0016040529081600082018054610ddf906137bf565b80601f0160208091040260200160405190810160405280929190818152602001828054610e0b906137bf565b8015610e585780601f10610e2d57610100808354040283529160200191610e58565b820191906000526020600020905b815481529060010190602001808311610e3b57829003601f168201915b50505050508152602001600182018054610e71906137bf565b80601f0160208091040260200160405190810160405280929190818152602001828054610e9d906137bf565b8015610eea5780601f10610ebf57610100808354040283529160200191610eea565b820191906000526020600020905b815481529060010190602001808311610ecd57829003601f168201915b50505050508152602001600282018054610f03906137bf565b80601f0160208091040260200160405190810160405280929190818152602001828054610f2f906137bf565b8015610f7c5780601f10610f5157610100808354040283529160200191610f7c565b820191906000526020600020905b815481529060010190602001808311610f5f57829003601f168201915b50505050508152602001600382018054610f95906137bf565b80601f0160208091040260200160405190810160405280929190818152602001828054610fc1906137bf565b801561100e5780601f10610fe35761010080835404028352916020019161100e565b820191906000526020600020905b815481529060010190602001808311610ff157829003601f168201915b50505050508152602001600482018054611027906137bf565b80601f0160208091040260200160405190810160405280929190818152602001828054611053906137bf565b80156110a05780601f10611075576101008083540402835291602001916110a0565b820191906000526020600020905b81548152906001019060200180831161108357829003601f168201915b5050505050815260200160058201805480602002602001604051908101604052809291908181526020016000905b8282101561092857838290600052602060002090600602016040518060c0016040529081600082018054611101906137bf565b80601f016020809104026020016040519081016040528092919081815260200182805461112d906137bf565b801561117a5780601f1061114f5761010080835404028352916020019161117a565b820191906000526020600020905b81548152906001019060200180831161115d57829003601f168201915b50505050508152602001600182018054611193906137bf565b80601f01602080910402602001604051908101604052809291908181526020018280546111bf906137bf565b801561120c5780601f106111e15761010080835404028352916020019161120c565b820191906000526020600020905b8154815290600101906020018083116111ef57829003601f168201915b50505050508152602001600282018054611225906137bf565b80601f0160208091040260200160405190810160405280929190818152602001828054611251906137bf565b801561129e5780601f106112735761010080835404028352916020019161129e565b820191906000526020600020905b81548152906001019060200180831161128157829003601f168201915b505050505081526020016003820180546112b7906137bf565b80601f01602080910402602001604051908101604052809291908181526020018280546112e3906137bf565b80156113305780601f1061130557610100808354040283529160200191611330565b820191906000526020600020905b81548152906001019060200180831161131357829003601f168201915b50505050508152602001600482018054611349906137bf565b80601f0160208091040260200160405190810160405280929190818152602001828054611375906137bf565b80156113c25780601f10611397576101008083540402835291602001916113c2565b820191906000526020600020905b8154815290600101906020018083116113a557829003601f168201915b5050505050815260200160058201805480602002602001604051908101604052809291908181526020016000905b8282101561149c57838290600052602060002001805461140f906137bf565b80601f016020809104026020016040519081016040528092919081815260200182805461143b906137bf565b80156114885780601f1061145d57610100808354040283529160200191611488565b820191906000526020600020905b81548152906001019060200180831161146b57829003601f168201915b5050505050815260200190600101906113f0565b5050505081525050815260200190600101906110ce565b606060006114c083611c9d565b90506004846040516114d291906137a3565b9081526040519081900360200190205460000361150e5750506040805180820190915260078152666d697373696e6760c81b6020820152611577565b8060048560405161151f91906137a3565b908152602001604051809103902054036115565750506040805180820190915260058152641d985b1a5960da1b6020820152611577565b50506040805180820190915260078152661a5b9d985b1a5960ca1b60208201525b92915050565b6005818154811061158d57600080fd5b9060005260206000200160009150905080546115a8906137bf565b80601f01602080910402602001604051908101604052809291908181526020018280546115d4906137bf565b80156116215780601f106115f657610100808354040283529160200191611621565b820191906000526020600020905b81548152906001019060200180831161160457829003601f168201915b505050505081565b6116696040518060e00160405280606081526020016060815260200160608152602001606081526020016060815260200160608152602001606081525090565b60028260405161167991906137a3565b90815260200160405180910390206040518060e00160405290816000820180546116a2906137bf565b80601f01602080910402602001604051908101604052809291908181526020018280546116ce906137bf565b801561171b5780601f106116f05761010080835404028352916020019161171b565b820191906000526020600020905b8154815290600101906020018083116116fe57829003601f168201915b50505050508152602001600182018054611734906137bf565b80601f0160208091040260200160405190810160405280929190818152602001828054611760906137bf565b80156117ad5780601f10611782576101008083540402835291602001916117ad565b820191906000526020600020905b81548152906001019060200180831161179057829003601f168201915b505050505081526020016002820180546117c6906137bf565b80601f01602080910402602001604051908101604052809291908181526020018280546117f2906137bf565b801561183f5780601f106118145761010080835404028352916020019161183f565b820191906000526020600020905b81548152906001019060200180831161182257829003601f168201915b50505050508152602001600382018054611858906137bf565b80601f0160208091040260200160405190810160405280929190818152602001828054611884906137bf565b80156118d15780601f106118a6576101008083540402835291602001916118d1565b820191906000526020600020905b8154815290600101906020018083116118b457829003601f168201915b505050505081526020016004820180546118ea906137bf565b80601f0160208091040260200160405190810160405280929190818152602001828054611916906137bf565b80156119635780601f1061193857610100808354040283529160200191611963565b820191906000526020600020905b81548152906001019060200180831161194657829003601f168201915b5050505050815260200160058201805461197c906137bf565b80601f01602080910402602001604051908101604052809291908181526020018280546119a8906137bf565b80156119f55780601f106119ca576101008083540402835291602001916119f5565b820191906000526020600020905b8154815290600101906020018083116119d857829003601f168201915b5050505050815260200160068201805480602002602001604051908101604052809291908181526020016000905b828210156109285783829060005260206000209060040201604051806080016040529081600082018054611a56906137bf565b80601f0160208091040260200160405190810160405280929190818152602001828054611a82906137bf565b8015611acf5780601f10611aa457610100808354040283529160200191611acf565b820191906000526020600020905b815481529060010190602001808311611ab257829003601f168201915b50505050508152602001600182018054611ae8906137bf565b80601f0160208091040260200160405190810160405280929190818152602001828054611b14906137bf565b8015611b615780601f10611b3657610100808354040283529160200191611b61565b820191906000526020600020905b815481529060010190602001808311611b4457829003601f168201915b50505050508152602001600282018054611b7a906137bf565b80601f0160208091040260200160405190810160405280929190818152602001828054611ba6906137bf565b8015611bf35780601f10611bc857610100808354040283529160200191611bf3565b820191906000526020600020905b815481529060010190602001808311611bd657829003601f168201915b50505050508152602001600382018054611c0c906137bf565b80601f0160208091040260200160405190810160405280929190818152602001828054611c38906137bf565b8015611c855780601f10611c5a57610100808354040283529160200191611c85565b820191906000526020600020905b815481529060010190602001808311611c6857829003601f168201915b50505050508152505081526020019060010190611a23565b805160009082908203611cb35750600092915050565b50506020015190565b611cc4612a27565b600082604051611cd491906137a3565b90815260200160405180910390206040518060e0016040529081600082018054611cfd906137bf565b80601f0160208091040260200160405190810160405280929190818152602001828054611d29906137bf565b8015611d765780601f10611d4b57610100808354040283529160200191611d76565b820191906000526020600020905b815481529060010190602001808311611d5957829003601f168201915b50505050508152602001600182018054611d8f906137bf565b80601f0160208091040260200160405190810160405280929190818152602001828054611dbb906137bf565b8015611e085780601f10611ddd57610100808354040283529160200191611e08565b820191906000526020600020905b815481529060010190602001808311611deb57829003601f168201915b50505050508152602001600282018054611e21906137bf565b80601f0160208091040260200160405190810160405280929190818152602001828054611e4d906137bf565b8015611e9a5780601f10611e6f57610100808354040283529160200191611e9a565b820191906000526020600020905b815481529060010190602001808311611e7d57829003601f168201915b50505050508152602001600382018054611eb3906137bf565b80601f0160208091040260200160405190810160405280929190818152602001828054611edf906137bf565b8015611f2c5780601f10611f0157610100808354040283529160200191611f2c565b820191906000526020600020905b815481529060010190602001808311611f0f57829003601f168201915b50505050508152602001600482018054611f45906137bf565b80601f0160208091040260200160405190810160405280929190818152602001828054611f71906137bf565b8015611fbe5780601f10611f9357610100808354040283529160200191611fbe565b820191906000526020600020905b815481529060010190602001808311611fa157829003601f168201915b50505050508152602001600582018054611fd7906137bf565b80601f0160208091040260200160405190810160405280929190818152602001828054612003906137bf565b80156120505780601f1061202557610100808354040283529160200191612050565b820191906000526020600020905b81548152906001019060200180831161203357829003601f168201915b5050505050815260200160068201604051806060016040529081600082018054612079906137bf565b80601f01602080910402602001604051908101604052809291908181526020018280546120a5906137bf565b80156120f25780601f106120c7576101008083540402835291602001916120f2565b820191906000526020600020905b8154815290600101906020018083116120d557829003601f168201915b5050505050815260200160018201805461210b906137bf565b80601f0160208091040260200160405190810160405280929190818152602001828054612137906137bf565b80156121845780601f1061215957610100808354040283529160200191612184565b820191906000526020600020905b81548152906001019060200180831161216757829003601f168201915b5050505050815260200160028201805480602002602001604051908101604052809291908181526020016000905b8282101561225e5783829060005260206000200180546121d1906137bf565b80601f01602080910402602001604051908101604052809291908181526020018280546121fd906137bf565b801561224a5780601f1061221f5761010080835404028352916020019161224a565b820191906000526020600020905b81548152906001019060200180831161222d57829003601f168201915b5050505050815260200190600101906121b2565b5050509152505090525092915050565b8660048160405161227f91906137a3565b90815260405190819003602001902054156122ac5760405162461bcd60e51b8152600401610974906137f9565b60006002896040516122be91906137a3565b90815260200160405180910390209050888160000190805190602001906122e69291906129a3565b5087516122fc90600183019060208b01906129a3565b50865161231290600283019060208a01906129a3565b50855161232890600383019060208901906129a3565b50845161233e90600483019060208801906129a3565b50835161235490600583019060208701906129a3565b5060005b8351811015610d5657600682018054600101815560009081526040805160808101909152855181908790859081106123925761239261383f565b60200260200101516000815181106123ac576123ac61383f565b602002602001015181526020018684815181106123cb576123cb61383f565b60200260200101516001815181106123e5576123e561383f565b602002602001015181526020018684815181106124045761240461383f565b602002602001015160028151811061241e5761241e61383f565b6020026020010151815260200186848151811061243d5761243d61383f565b60200260200101516003815181106124575761245761383f565b602002602001015181525090508083600601838154811061247a5761247a61383f565b906000526020600020906004020160008201518160000190805190602001906124a49291906129a3565b5060208281015180516124bd92600185019201906129a3565b50604082015180516124d99160028401916020909101906129a3565b50606082015180516124f59160038401916020909101906129a3565b5090505050808061250590613855565b915050612358565b8660048160405161251e91906137a3565b908152604051908190036020019020541561254b5760405162461bcd60e51b8152600401610974906137f9565b600060038960405161255d91906137a3565b90815260200160405180910390209050888160000190805190602001906125859291906129a3565b50875161259b90600183019060208b01906129a3565b5086516125b190600283019060208a01906129a3565b5085516125c790600383019060208901906129a3565b5084516125dd90600483019060208801906129a3565b5083516125f390600583019060208701906129a3565b5060005b8351811015610d5657600682018054600101815560009081526040805160808101909152855181908790859081106126315761263161383f565b602002602001015160008151811061264b5761264b61383f565b6020026020010151815260200186848151811061266a5761266a61383f565b60200260200101516001815181106126845761268461383f565b602002602001015181526020018684815181106126a3576126a361383f565b60200260200101516002815181106126bd576126bd61383f565b602002602001015181526020018684815181106126dc576126dc61383f565b60200260200101516003815181106126f6576126f661383f565b60200260200101518152509050808360060183815481106127195761271961383f565b906000526020600020906004020160008201518160000190805190602001906127439291906129a3565b50602082810151805161275c92600185019201906129a3565b50604082015180516127789160028401916020909101906129a3565b50606082015180516127949160038401916020909101906129a3565b509050505080806127a490613855565b9150506125f7565b876004816040516127bd91906137a3565b90815260405190819003602001902054156127ea5760405162461bcd60e51b8152600401610974906137f9565b600060405180606001604052808560008151811061280a5761280a61383f565b602002602001015181526020018560018151811061282a5761282a61383f565b602002602001015181526020018481525090506040518060e001604052808b81526020018a81526020018981526020018881526020018781526020018681526020018281525060008b60405161288091906137a3565b908152602001604051809103902060008201518160000190805190602001906128aa9291906129a3565b5060208281015180516128c392600185019201906129a3565b50604082015180516128df9160028401916020909101906129a3565b50606082015180516128fb9160038401916020909101906129a3565b50608082015180516129179160048401916020909101906129a3565b5060a082015180516129339160058401916020909101906129a3565b5060c0820151805180516006840191612951918391602001906129a3565b50602082810151805161296a92600185019201906129a3565b5060408201518051612986916002840191602090910190612a85565b5050509050506129968a8c610239565b5050505050505050505050565b8280546129af906137bf565b90600052602060002090601f0160209004810192826129d15760008555612a17565b82601f106129ea57805160ff1916838001178555612a17565b82800160010185558215612a17579182015b82811115612a175782518255916020019190600101906129fc565b50612a23929150612ade565b5090565b6040518060e00160405280606081526020016060815260200160608152602001606081526020016060815260200160608152602001612a8060405180606001604052806060815260200160608152602001606081525090565b905290565b828054828255906000526020600020908101928215612ad2579160200282015b82811115612ad25782518051612ac29184916020909101906129a3565b5091602001919060010190612aa5565b50612a23929150612af3565b5b80821115612a235760008155600101612adf565b80821115612a23576000612b078282612b10565b50600101612af3565b508054612b1c906137bf565b6000825580601f10612b2c575050565b601f016020900490600052602060002090810190612b4a9190612ade565b50565b634e487b7160e01b600052604160045260246000fd5b604051601f8201601f1916810167ffffffffffffffff81118282101715612b8c57612b8c612b4d565b604052919050565b600082601f830112612ba557600080fd5b813567ffffffffffffffff811115612bbf57612bbf612b4d565b612bd2601f8201601f1916602001612b63565b818152846020838601011115612be757600080fd5b816020850160208301376000918101602001919091529392505050565b600060208284031215612c1657600080fd5b813567ffffffffffffffff811115612c2d57600080fd5b612c3984828501612b94565b949350505050565b60008060408385031215612c5457600080fd5b823567ffffffffffffffff80821115612c6c57600080fd5b612c7886838701612b94565b93506020850135915080821115612c8e57600080fd5b50612c9b85828601612b94565b9150509250929050565b60005b83811015612cc0578181015183820152602001612ca8565b838111156102ae5750506000910152565b60008151808452612ce9816020860160208601612ca5565b601f01601f19169290920160200192915050565b6000815160808452612d126080850182612cd1565b905060208301518482036020860152612d2b8282612cd1565b91505060408301518482036040860152612d458282612cd1565b91505060608301518482036060860152612d5f8282612cd1565b95945050505050565b600082825180855260208086019550808260051b84010181860160005b84811015612db357601f19868403018952612da1838351612cfd565b98840198925090830190600101612d85565b5090979650505050505050565b602081526000825160e06020840152612ddd610100840182612cd1565b90506020840151601f1980858403016040860152612dfb8383612cd1565b92506040860151915080858403016060860152612e188383612cd1565b92506060860151915080858403016080860152612e358383612cd1565b925060808601519150808584030160a0860152612e528383612cd1565b925060a08601519150808584030160c0860152612e6f8383612cd1565b925060c08601519150808584030160e086015250612d5f8282612d68565b600067ffffffffffffffff821115612ea757612ea7612b4d565b5060051b60200190565b600082601f830112612ec257600080fd5b81356020612ed7612ed283612e8d565b612b63565b82815260059290921b84018101918181019086841115612ef657600080fd5b8286015b84811015612f3657803567ffffffffffffffff811115612f1a5760008081fd5b612f288986838b0101612b94565b845250918301918301612efa565b509695505050505050565b600082601f830112612f5257600080fd5b81356020612f62612ed283612e8d565b82815260059290921b84018101918181019086841115612f8157600080fd5b8286015b84811015612f3657803567ffffffffffffffff811115612fa55760008081fd5b612fb38986838b0101612eb1565b845250918301918301612f85565b600080600080600080600080610100898b031215612fde57600080fd5b883567ffffffffffffffff80821115612ff657600080fd5b6130028c838d01612b94565b995060208b013591508082111561301857600080fd5b6130248c838d01612b94565b985060408b013591508082111561303a57600080fd5b6130468c838d01612b94565b975060608b013591508082111561305c57600080fd5b6130688c838d01612b94565b965060808b013591508082111561307e57600080fd5b61308a8c838d01612b94565b955060a08b01359150808211156130a057600080fd5b6130ac8c838d01612b94565b945060c08b01359150808211156130c257600080fd5b6130ce8c838d01612f41565b935060e08b01359150808211156130e457600080fd5b506130f18b828c01612f41565b9150509295985092959890939650565b600081518084526020808501808196508360051b8101915082860160005b85811015613149578284038952613137848351612cd1565b9885019893509084019060010161311f565b5091979650505050505050565b60006020808352835160c08285015261317260e0850182612cd1565b905081850151601f1960408187850301818801526131908484612cd1565b935080880151925060608288860301818901526131ad8585612cd1565b945080890151935060808389870301818a01526131ca8686612cd1565b9550808a0151945060a0848a880301818b01526131e78787612cd1565b8b8201518b8203870160c08d015280518083529198508901965088880190600581901b89018a0160005b828110156132c257888b83030184528951805160c0845261323560c0850182612cd1565b90508d8201518482038f86015261324c8282612cd1565b915050898201518482038b8601526132648282612cd1565b915050888201518482038a86015261327c8282612cd1565b91505087820151848203898601526132948282612cd1565b915050868201519150838103878501526132ae8183613101565b9b8e019b958e019593505050600101613211565b509d9c50505050505050505050505050565b6020815260006132e76020830184612cd1565b9392505050565b60006020828403121561330057600080fd5b5035919050565b600081518084526020808501808196508360051b8101915082860160005b8581101561314957828403895261333d848351612cfd565b98850198935090840190600101613325565b602081526000825160e0602084015261336c610100840182612cd1565b90506020840151601f198085840301604086015261338a8383612cd1565b925060408601519150808584030160608601526133a78383612cd1565b925060608601519150808584030160808601526133c48383612cd1565b925060808601519150808584030160a08601526133e18383612cd1565b925060a08601519150808584030160c08601526133fe8383612cd1565b925060c08601519150808584030160e086015250612d5f8282613307565b60008151606084526134316060850182612cd1565b90506020830151848203602086015261344a8282612cd1565b91505060408301518482036040860152612d5f8282613101565b602081526000825160e06020840152613481610100840182612cd1565b90506020840151601f198085840301604086015261349f8383612cd1565b925060408601519150808584030160608601526134bc8383612cd1565b925060608601519150808584030160808601526134d98383612cd1565b925060808601519150808584030160a08601526134f68383612cd1565b925060a08601519150808584030160c08601526135138383612cd1565b925060c08601519150808584030160e086015250612d5f828261341c565b600080600080600080600080610100898b03121561354e57600080fd5b883567ffffffffffffffff8082111561356657600080fd5b6135728c838d01612b94565b995060208b013591508082111561358857600080fd5b6135948c838d01612b94565b985060408b01359150808211156135aa57600080fd5b6135b68c838d01612b94565b975060608b01359150808211156135cc57600080fd5b6135d88c838d01612b94565b965060808b01359150808211156135ee57600080fd5b6135fa8c838d01612b94565b955060a08b013591508082111561361057600080fd5b61361c8c838d01612b94565b945060c08b013591508082111561363257600080fd5b6130ce8c838d01612b94565b60008060008060008060008060006101208a8c03121561365d57600080fd5b893567ffffffffffffffff8082111561367557600080fd5b6136818d838e01612b94565b9a5060208c013591508082111561369757600080fd5b6136a38d838e01612b94565b995060408c01359150808211156136b957600080fd5b6136c58d838e01612b94565b985060608c01359150808211156136db57600080fd5b6136e78d838e01612b94565b975060808c01359150808211156136fd57600080fd5b6137098d838e01612b94565b965060a08c013591508082111561371f57600080fd5b61372b8d838e01612b94565b955060c08c013591508082111561374157600080fd5b61374d8d838e01612b94565b945060e08c013591508082111561376357600080fd5b61376f8d838e01612eb1565b93506101008c013591508082111561378657600080fd5b506137938c828d01612eb1565b9150509295985092959850929598565b600082516137b5818460208701612ca5565b9190910192915050565b600181811c908216806137d357607f821691505b6020821081036137f357634e487b7160e01b600052602260045260246000fd5b50919050565b60208082526026908201527f41207472616e73616374696f6e2063616e206f6e6c792062652061756469746560408201526564206f6e636560d01b606082015260800190565b634e487b7160e01b600052603260045260246000fd5b60006001820161387557634e487b7160e01b600052601160045260246000fd5b506001019056fea264697066735822122020053d735fe9efb052b40fafa3eeb50a554493475f9d4d9d5736949270285db764736f6c634300080d0033",
  "linkReferences": {},
  "deployedLinkReferences": {}
}