{
  "_format": "hh-sol-artifact-1",
  "contractName": "TransactionFactory",
  "sourceName": "contracts/TransactionFactory.sol",
  "abi": [
    {
      "inputs": [
        {
          "internalType": "string",
          "name": "transactionIdentifier",
          "type": "string"
        },
        {
          "internalType": "string",
          "name": "hash",
          "type": "string"
        }
      ],
      "name": "auditTransaction",
      "outputs": [],
      "stateMutability": "nonpayable",
      "type": "function"
    },
    {
      "inputs": [
        {
          "internalType": "uint256",
          "name": "",
          "type": "uint256"
        }
      ],
      "name": "auditedTransactions",
      "outputs": [
        {
          "internalType": "string",
          "name": "",
          "type": "string"
        }
      ],
      "stateMutability": "view",
      "type": "function"
    },
    {
      "inputs": [
        {
          "internalType": "string",
          "name": "dataHash",
          "type": "string"
        },
        {
          "internalType": "string",
          "name": "id",
          "type": "string"
        },
        {
          "internalType": "string",
          "name": "source",
          "type": "string"
        },
        {
          "internalType": "string",
          "name": "receiptNumber",
          "type": "string"
        },
        {
          "internalType": "string",
          "name": "user",
          "type": "string"
        },
        {
          "internalType": "string",
          "name": "transactionType",
          "type": "string"
        },
        {
          "internalType": "string[][]",
          "name": "newReceivedItems",
          "type": "string[][]"
        },
        {
          "internalType": "string[][]",
          "name": "newItems",
          "type": "string[][]"
        }
      ],
      "name": "createReceivingTransaction",
      "outputs": [],
      "stateMutability": "nonpayable",
      "type": "function"
    },
    {
      "inputs": [
        {
          "internalType": "string",
          "name": "dataHash",
          "type": "string"
        },
        {
          "internalType": "string",
          "name": "id",
          "type": "string"
        },
        {
          "internalType": "string",
          "name": "departmentId",
          "type": "string"
        },
        {
          "internalType": "string",
          "name": "departmentName",
          "type": "string"
        },
        {
          "internalType": "string",
          "name": "requiredDate",
          "type": "string"
        },
        {
          "internalType": "string",
          "name": "receiptNumber",
          "type": "string"
        },
        {
          "internalType": "string",
          "name": "user",
          "type": "string"
        },
        {
          "internalType": "string",
          "name": "transactionType",
          "type": "string"
        },
        {
          "internalType": "string[][]",
          "name": "newRequestedItems",
          "type": "string[][]"
        }
      ],
      "name": "createRequestingTransaction",
      "outputs": [],
      "stateMutability": "nonpayable",
      "type": "function"
    },
    {
      "inputs": [
        {
          "internalType": "string",
          "name": "dataHash",
          "type": "string"
        },
        {
          "internalType": "string",
          "name": "id",
          "type": "string"
        },
        {
          "internalType": "string",
          "name": "departmentId",
          "type": "string"
        },
        {
          "internalType": "string",
          "name": "departmentName",
          "type": "string"
        },
        {
          "internalType": "string",
          "name": "returnedDate",
          "type": "string"
        },
        {
          "internalType": "string",
          "name": "receiptNumber",
          "type": "string"
        },
        {
          "internalType": "string",
          "name": "user",
          "type": "string"
        },
        {
          "internalType": "string",
          "name": "transactionType",
          "type": "string"
        },
        {
          "internalType": "string[][]",
          "name": "newReturnedItems",
          "type": "string[][]"
        }
      ],
      "name": "createReturningTransaction",
      "outputs": [],
      "stateMutability": "nonpayable",
      "type": "function"
    },
    {
      "inputs": [
        {
          "internalType": "string",
          "name": "dataHash",
          "type": "string"
        },
        {
          "internalType": "string",
          "name": "id",
          "type": "string"
        },
        {
          "internalType": "string",
          "name": "requestingTransaction",
          "type": "string"
        },
        {
          "internalType": "string",
          "name": "departmentId",
          "type": "string"
        },
        {
          "internalType": "string",
          "name": "departmentName",
          "type": "string"
        },
        {
          "internalType": "string",
          "name": "receiptNumber",
          "type": "string"
        },
        {
          "internalType": "string",
          "name": "user",
          "type": "string"
        },
        {
          "internalType": "string",
          "name": "transactionType",
          "type": "string"
        },
        {
          "internalType": "string[]",
          "name": "transferredItems",
          "type": "string[]"
        },
        {
          "internalType": "string[]",
          "name": "newItems",
          "type": "string[]"
        }
      ],
      "name": "createTransferringTransaction",
      "outputs": [],
      "stateMutability": "nonpayable",
      "type": "function"
    },
    {
      "inputs": [
        {
          "internalType": "string",
          "name": "id",
          "type": "string"
        },
        {
          "internalType": "string",
          "name": "username",
          "type": "string"
        },
        {
          "internalType": "string",
          "name": "createdBy",
          "type": "string"
        },
        {
          "internalType": "string",
          "name": "timestamp",
          "type": "string"
        }
      ],
      "name": "createUser",
      "outputs": [],
      "stateMutability": "nonpayable",
      "type": "function"
    },
    {
      "inputs": [
        {
          "internalType": "string",
          "name": "",
          "type": "string"
        }
      ],
      "name": "dataHashes",
      "outputs": [
        {
          "internalType": "bytes32",
          "name": "",
          "type": "bytes32"
        }
      ],
      "stateMutability": "view",
      "type": "function"
    },
    {
      "inputs": [],
      "name": "getAllTransactions",
      "outputs": [
        {
          "internalType": "string[]",
          "name": "auditedlist",
          "type": "string[]"
        }
      ],
      "stateMutability": "view",
      "type": "function"
    },
    {
      "inputs": [
        {
          "internalType": "string",
          "name": "id",
          "type": "string"
        }
      ],
      "name": "getReceivingTransaction",
      "outputs": [
        {
          "components": [
            {
              "internalType": "string",
              "name": "id",
              "type": "string"
            },
            {
              "internalType": "string",
              "name": "source",
              "type": "string"
            },
            {
              "internalType": "string",
              "name": "receiptNumber",
              "type": "string"
            },
            {
              "internalType": "string",
              "name": "user",
              "type": "string"
            },
            {
              "internalType": "string",
              "name": "transactionType",
              "type": "string"
            },
            {
              "components": [
                {
                  "internalType": "string",
                  "name": "id",
                  "type": "string"
                },
                {
                  "internalType": "string",
                  "name": "itemTypeId",
                  "type": "string"
                },
                {
                  "internalType": "string",
                  "name": "itemTypeName",
                  "type": "string"
                },
                {
                  "internalType": "string",
                  "name": "quantity",
                  "type": "string"
                },
                {
                  "internalType": "string",
                  "name": "unitCost",
                  "type": "string"
                },
                {
                  "internalType": "string",
                  "name": "subinventoryId",
                  "type": "string"
                },
                {
                  "internalType": "string",
                  "name": "subinventoryName",
                  "type": "string"
                },
                {
                  "internalType": "string[]",
                  "name": "items",
                  "type": "string[]"
                }
              ],
              "internalType": "struct TransactionFactory.ReceivedItems[]",
              "name": "receivedItems",
              "type": "tuple[]"
            }
          ],
          "internalType": "struct TransactionFactory.ReceivingTransaction",
          "name": "transaction",
          "type": "tuple"
        }
      ],
      "stateMutability": "view",
      "type": "function"
    },
    {
      "inputs": [
        {
          "internalType": "string",
          "name": "id",
          "type": "string"
        }
      ],
      "name": "getRequestingTransaction",
      "outputs": [
        {
          "components": [
            {
              "internalType": "string",
              "name": "id",
              "type": "string"
            },
            {
              "internalType": "string",
              "name": "departmentId",
              "type": "string"
            },
            {
              "internalType": "string",
              "name": "departmentName",
              "type": "string"
            },
            {
              "internalType": "string",
              "name": "requiredDate",
              "type": "string"
            },
            {
              "internalType": "string",
              "name": "receiptNumber",
              "type": "string"
            },
            {
              "internalType": "string",
              "name": "user",
              "type": "string"
            },
            {
              "internalType": "string",
              "name": "transactionType",
              "type": "string"
            },
            {
              "components": [
                {
                  "internalType": "string",
                  "name": "id",
                  "type": "string"
                },
                {
                  "internalType": "string",
                  "name": "itemTypeId",
                  "type": "string"
                },
                {
                  "internalType": "string",
                  "name": "itemTypeName",
                  "type": "string"
                },
                {
                  "internalType": "string",
                  "name": "status",
                  "type": "string"
                },
                {
                  "internalType": "string",
                  "name": "quantity",
                  "type": "string"
                }
              ],
              "internalType": "struct TransactionFactory.RequestedItems[]",
              "name": "requestedItems",
              "type": "tuple[]"
            }
          ],
          "internalType": "struct TransactionFactory.RequestingTransaction",
          "name": "transaction",
          "type": "tuple"
        }
      ],
      "stateMutability": "view",
      "type": "function"
    },
    {
      "inputs": [
        {
          "internalType": "string",
          "name": "id",
          "type": "string"
        }
      ],
      "name": "getReturningTransaction",
      "outputs": [
        {
          "components": [
            {
              "internalType": "string",
              "name": "id",
              "type": "string"
            },
            {
              "internalType": "string",
              "name": "departmentId",
              "type": "string"
            },
            {
              "internalType": "string",
              "name": "departmentName",
              "type": "string"
            },
            {
              "internalType": "string",
              "name": "returnedDate",
              "type": "string"
            },
            {
              "internalType": "string",
              "name": "receiptNumber",
              "type": "string"
            },
            {
              "internalType": "string",
              "name": "user",
              "type": "string"
            },
            {
              "internalType": "string",
              "name": "transactionType",
              "type": "string"
            },
            {
              "components": [
                {
                  "internalType": "string",
                  "name": "id",
                  "type": "string"
                },
                {
                  "internalType": "string",
                  "name": "item",
                  "type": "string"
                },
                {
                  "internalType": "string",
                  "name": "itemTypeId",
                  "type": "string"
                },
                {
                  "internalType": "string",
                  "name": "itemTypeName",
                  "type": "string"
                },
                {
                  "internalType": "string",
                  "name": "status",
                  "type": "string"
                }
              ],
              "internalType": "struct TransactionFactory.ReturnedItems[]",
              "name": "returnedItems",
              "type": "tuple[]"
            }
          ],
          "internalType": "struct TransactionFactory.ReturningTransaction",
          "name": "transaction",
          "type": "tuple"
        }
      ],
      "stateMutability": "view",
      "type": "function"
    },
    {
      "inputs": [
        {
          "internalType": "string",
          "name": "id",
          "type": "string"
        }
      ],
      "name": "getTransferTransaction",
      "outputs": [
        {
          "components": [
            {
              "internalType": "string",
              "name": "id",
              "type": "string"
            },
            {
              "internalType": "string",
              "name": "requestingTransaction",
              "type": "string"
            },
            {
              "internalType": "string",
              "name": "departmentId",
              "type": "string"
            },
            {
              "internalType": "string",
              "name": "departmentName",
              "type": "string"
            },
            {
              "internalType": "string",
              "name": "receiptNumber",
              "type": "string"
            },
            {
              "internalType": "string",
              "name": "user",
              "type": "string"
            },
            {
              "internalType": "string",
              "name": "transactionType",
              "type": "string"
            },
            {
              "components": [
                {
                  "internalType": "string",
                  "name": "itemTypeId",
                  "type": "string"
                },
                {
                  "internalType": "string",
                  "name": "itemTypeName",
                  "type": "string"
                },
                {
                  "internalType": "string",
                  "name": "quantity",
                  "type": "string"
                },
                {
                  "internalType": "string[]",
                  "name": "items",
                  "type": "string[]"
                }
              ],
              "internalType": "struct TransactionFactory.TransferredItems",
              "name": "transferredItems",
              "type": "tuple"
            }
          ],
          "internalType": "struct TransactionFactory.TransferringTransaction",
          "name": "transaction",
          "type": "tuple"
        }
      ],
      "stateMutability": "view",
      "type": "function"
    },
    {
      "inputs": [
        {
          "internalType": "string",
          "name": "id",
          "type": "string"
        }
      ],
      "name": "getUser",
      "outputs": [
        {
          "components": [
            {
              "internalType": "string",
              "name": "id",
              "type": "string"
            },
            {
              "internalType": "string",
              "name": "createdBy",
              "type": "string"
            },
            {
              "internalType": "string",
              "name": "username",
              "type": "string"
            },
            {
              "internalType": "string",
              "name": "timestamp",
              "type": "string"
            }
          ],
          "internalType": "struct TransactionFactory.Users",
          "name": "user",
          "type": "tuple"
        }
      ],
      "stateMutability": "view",
      "type": "function"
    },
    {
      "inputs": [
        {
          "internalType": "string",
          "name": "source",
          "type": "string"
        }
      ],
      "name": "stringToBytes32",
      "outputs": [
        {
          "internalType": "bytes32",
          "name": "result",
          "type": "bytes32"
        }
      ],
      "stateMutability": "pure",
      "type": "function"
    },
    {
      "inputs": [
        {
          "internalType": "string",
          "name": "transactionIdentifier",
          "type": "string"
        },
        {
          "internalType": "string",
          "name": "hash",
          "type": "string"
        }
      ],
      "name": "validateTransaction",
      "outputs": [
        {
          "internalType": "string",
          "name": "",
          "type": "string"
        }
      ],
      "stateMutability": "view",
      "type": "function"
    }
  ],
  "bytecode": "0x608060405234801561001057600080fd5b5061451e806100206000396000f3fe608060405234801561001057600080fd5b50600436106101005760003560e01c80636194417b116100975780638e598f18116100665780638e598f181461024c578063a693ed4a1461025f578063cfb5192814610272578063d5936d4e1461028557600080fd5b80636194417b146101e65780636f7fcddb146101f957806385e8f5c01461020c5780638b7edbd41461022c57600080fd5b80632615bed0116100d35780632615bed01461017e57806327506f531461019157806327a469fb146101a657806331feb671146101c657600080fd5b806302a578c4146101055780631af156b11461011a5780631b5a73921461012d578063207a69f11461016b575b600080fd5b61011861011336600461386b565b6102a5565b005b61011861012836600461386b565b6105d0565b61015861013b3660046139d0565b805160208183018101805160058252928201919093012091525481565b6040519081526020015b60405180910390f35b610118610179366004613a0d565b6108da565b61011861018c366004613a71565b610955565b610199610bac565b6040516101629190613ca9565b6101b96101b43660046139d0565b610c85565b6040516101629190613d82565b6101d96101d43660046139d0565b611434565b6040516101629190613e77565b6101186101f4366004613ef5565b6116d7565b610118610207366004614035565b611be1565b61021f61021a3660046139d0565b611c4f565b60405161016291906140e2565b61023f61023a366004613a0d565b6124ba565b6040516101629190614296565b61023f61025a3660046142a9565b612584565b6101b961026d3660046139d0565b612630565b6101586102803660046139d0565b612dd1565b6102986102933660046139d0565b612df0565b6040516101629190614324565b876005816040516102b6919061440f565b90815260405190819003602001902054156102ec5760405162461bcd60e51b81526004016102e39061442b565b60405180910390fd5b600060028a6040516102fe919061440f565b90815260200160405180910390209050898160000190805190602001906103269291906134c7565b50885161033c90600183019060208c01906134c7565b50875161035290600283019060208b01906134c7565b50865161036890600383019060208a01906134c7565b50855161037e90600483019060208901906134c7565b50845161039490600583019060208801906134c7565b5083516103aa90600683019060208701906134c7565b5060005b83518110156105b857600782018054600101815560009081526040805160a08101909152855181908790859081106103e8576103e8614471565b602002602001015160008151811061040257610402614471565b6020026020010151815260200186848151811061042157610421614471565b602002602001015160018151811061043b5761043b614471565b6020026020010151815260200186848151811061045a5761045a614471565b602002602001015160028151811061047457610474614471565b6020026020010151815260200186848151811061049357610493614471565b60200260200101516003815181106104ad576104ad614471565b602002602001015181526020018684815181106104cc576104cc614471565b60200260200101516004815181106104e6576104e6614471565b602002602001015181525090508083600701838154811061050957610509614471565b906000526020600020906005020160008201518160000190805190602001906105339291906134c7565b50602082810151805161054c92600185019201906134c7565b50604082015180516105689160028401916020909101906134c7565b50606082015180516105849160038401916020909101906134c7565b50608082015180516105a09160048401916020909101906134c7565b509050505080806105b090614487565b9150506103ae565b506105c38a8c6108da565b5050505050505050505050565b876005816040516105e1919061440f565b908152604051908190036020019020541561060e5760405162461bcd60e51b81526004016102e39061442b565b600060038a604051610620919061440f565b90815260200160405180910390209050898160000190805190602001906106489291906134c7565b50885161065e90600183019060208c01906134c7565b50875161067490600283019060208b01906134c7565b50865161068a90600383019060208a01906134c7565b5085516106a090600483019060208901906134c7565b5084516106b690600583019060208801906134c7565b5083516106cc90600683019060208701906134c7565b5060005b83518110156105b857600782018054600101815560009081526040805160a081019091528551819087908590811061070a5761070a614471565b602002602001015160008151811061072457610724614471565b6020026020010151815260200186848151811061074357610743614471565b602002602001015160018151811061075d5761075d614471565b6020026020010151815260200186848151811061077c5761077c614471565b602002602001015160028151811061079657610796614471565b602002602001015181526020018684815181106107b5576107b5614471565b60200260200101516003815181106107cf576107cf614471565b602002602001015181526020018684815181106107ee576107ee614471565b602002602001015160048151811061080857610808614471565b602002602001015181525090508083600701838154811061082b5761082b614471565b906000526020600020906005020160008201518160000190805190602001906108559291906134c7565b50602082810151805161086e92600185019201906134c7565b506040820151805161088a9160028401916020909101906134c7565b50606082015180516108a69160038401916020909101906134c7565b50608082015180516108c29160048401916020909101906134c7565b509050505080806108d290614487565b9150506106d0565b60006108e582612dd1565b9050806005846040516108f8919061440f565b908152604051602091819003820190209190915560068054600181018255600091909152845161094f927ff652222313e28459528d920b65115c16c04f3efc82aaedc97be59f3f377c0d3f909201918601906134c7565b50505050565b88600581604051610966919061440f565b90815260405190819003602001902054156109935760405162461bcd60e51b81526004016102e39061442b565b60006040518060800160405280856000815181106109b3576109b3614471565b60200260200101518152602001856001815181106109d3576109d3614471565b60200260200101518152602001856002815181106109f3576109f3614471565b602002602001015181526020018481525090506040518061010001604052808c81526020018b81526020018a81526020018981526020018881526020018781526020018681526020018281525060008c604051610a50919061440f565b90815260200160405180910390206000820151816000019080519060200190610a7a9291906134c7565b506020828101518051610a9392600185019201906134c7565b5060408201518051610aaf9160028401916020909101906134c7565b5060608201518051610acb9160038401916020909101906134c7565b5060808201518051610ae79160048401916020909101906134c7565b5060a08201518051610b039160058401916020909101906134c7565b5060c08201518051610b1f9160068401916020909101906134c7565b5060e0820151805180516007840191610b3d918391602001906134c7565b506020828101518051610b5692600185019201906134c7565b5060408201518051610b729160028401916020909101906134c7565b5060608201518051610b8e91600384019160209091019061354b565b505050905050610b9e8b8d6108da565b505050505050505050505050565b60606006805480602002602001604051908101604052809291908181526020016000905b82821015610c7c578382906000526020600020018054610bef906144ae565b80601f0160208091040260200160405190810160405280929190818152602001828054610c1b906144ae565b8015610c685780601f10610c3d57610100808354040283529160200191610c68565b820191906000526020600020905b815481529060010190602001808311610c4b57829003601f168201915b505050505081526020019060010190610bd0565b50505050905090565b610ccd60405180610100016040528060608152602001606081526020016060815260200160608152602001606081526020016060815260200160608152602001606081525090565b600382604051610cdd919061440f565b908152602001604051809103902060405180610100016040529081600082018054610d07906144ae565b80601f0160208091040260200160405190810160405280929190818152602001828054610d33906144ae565b8015610d805780601f10610d5557610100808354040283529160200191610d80565b820191906000526020600020905b815481529060010190602001808311610d6357829003601f168201915b50505050508152602001600182018054610d99906144ae565b80601f0160208091040260200160405190810160405280929190818152602001828054610dc5906144ae565b8015610e125780601f10610de757610100808354040283529160200191610e12565b820191906000526020600020905b815481529060010190602001808311610df557829003601f168201915b50505050508152602001600282018054610e2b906144ae565b80601f0160208091040260200160405190810160405280929190818152602001828054610e57906144ae565b8015610ea45780601f10610e7957610100808354040283529160200191610ea4565b820191906000526020600020905b815481529060010190602001808311610e8757829003601f168201915b50505050508152602001600382018054610ebd906144ae565b80601f0160208091040260200160405190810160405280929190818152602001828054610ee9906144ae565b8015610f365780601f10610f0b57610100808354040283529160200191610f36565b820191906000526020600020905b815481529060010190602001808311610f1957829003601f168201915b50505050508152602001600482018054610f4f906144ae565b80601f0160208091040260200160405190810160405280929190818152602001828054610f7b906144ae565b8015610fc85780601f10610f9d57610100808354040283529160200191610fc8565b820191906000526020600020905b815481529060010190602001808311610fab57829003601f168201915b50505050508152602001600582018054610fe1906144ae565b80601f016020809104026020016040519081016040528092919081815260200182805461100d906144ae565b801561105a5780601f1061102f5761010080835404028352916020019161105a565b820191906000526020600020905b81548152906001019060200180831161103d57829003601f168201915b50505050508152602001600682018054611073906144ae565b80601f016020809104026020016040519081016040528092919081815260200182805461109f906144ae565b80156110ec5780601f106110c1576101008083540402835291602001916110ec565b820191906000526020600020905b8154815290600101906020018083116110cf57829003601f168201915b5050505050815260200160078201805480602002602001604051908101604052809291908181526020016000905b8282101561142657838290600052602060002090600502016040518060a001604052908160008201805461114d906144ae565b80601f0160208091040260200160405190810160405280929190818152602001828054611179906144ae565b80156111c65780601f1061119b576101008083540402835291602001916111c6565b820191906000526020600020905b8154815290600101906020018083116111a957829003601f168201915b505050505081526020016001820180546111df906144ae565b80601f016020809104026020016040519081016040528092919081815260200182805461120b906144ae565b80156112585780601f1061122d57610100808354040283529160200191611258565b820191906000526020600020905b81548152906001019060200180831161123b57829003601f168201915b50505050508152602001600282018054611271906144ae565b80601f016020809104026020016040519081016040528092919081815260200182805461129d906144ae565b80156112ea5780601f106112bf576101008083540402835291602001916112ea565b820191906000526020600020905b8154815290600101906020018083116112cd57829003601f168201915b50505050508152602001600382018054611303906144ae565b80601f016020809104026020016040519081016040528092919081815260200182805461132f906144ae565b801561137c5780601f106113515761010080835404028352916020019161137c565b820191906000526020600020905b81548152906001019060200180831161135f57829003601f168201915b50505050508152602001600482018054611395906144ae565b80601f01602080910402602001604051908101604052809291908181526020018280546113c1906144ae565b801561140e5780601f106113e35761010080835404028352916020019161140e565b820191906000526020600020905b8154815290600101906020018083116113f157829003601f168201915b5050505050815250508152602001906001019061111a565b505050915250909392505050565b61145f6040518060800160405280606081526020016060815260200160608152602001606081525090565b60048260405161146f919061440f565b9081526020016040518091039020604051806080016040529081600082018054611498906144ae565b80601f01602080910402602001604051908101604052809291908181526020018280546114c4906144ae565b80156115115780601f106114e657610100808354040283529160200191611511565b820191906000526020600020905b8154815290600101906020018083116114f457829003601f168201915b5050505050815260200160018201805461152a906144ae565b80601f0160208091040260200160405190810160405280929190818152602001828054611556906144ae565b80156115a35780601f10611578576101008083540402835291602001916115a3565b820191906000526020600020905b81548152906001019060200180831161158657829003601f168201915b505050505081526020016002820180546115bc906144ae565b80601f01602080910402602001604051908101604052809291908181526020018280546115e8906144ae565b80156116355780601f1061160a57610100808354040283529160200191611635565b820191906000526020600020905b81548152906001019060200180831161161857829003601f168201915b5050505050815260200160038201805461164e906144ae565b80601f016020809104026020016040519081016040528092919081815260200182805461167a906144ae565b80156116c75780601f1061169c576101008083540402835291602001916116c7565b820191906000526020600020905b8154815290600101906020018083116116aa57829003601f168201915b5050505050815250509050919050565b866005816040516116e8919061440f565b90815260405190819003602001902054156117155760405162461bcd60e51b81526004016102e39061442b565b6000600189604051611727919061440f565b908152602001604051809103902090508881600001908051906020019061174f9291906134c7565b50875161176590600183019060208b01906134c7565b50865161177b90600283019060208a01906134c7565b50855161179190600383019060208901906134c7565b5084516117a790600483019060208801906134c7565b5060005b8451811015611bca57600582018054600101815560005284518590829081106117d6576117d6614471565b60200260200101516000815181106117f0576117f0614471565b602002602001015182600501828154811061180d5761180d614471565b906000526020600020906008020160000190805190602001906118319291906134c7565b5084818151811061184457611844614471565b602002602001015160018151811061185e5761185e614471565b602002602001015182600501828154811061187b5761187b614471565b9060005260206000209060080201600101908051906020019061189f9291906134c7565b508481815181106118b2576118b2614471565b60200260200101516002815181106118cc576118cc614471565b60200260200101518260050182815481106118e9576118e9614471565b9060005260206000209060080201600201908051906020019061190d9291906134c7565b5084818151811061192057611920614471565b602002602001015160038151811061193a5761193a614471565b602002602001015182600501828154811061195757611957614471565b9060005260206000209060080201600301908051906020019061197b9291906134c7565b5084818151811061198e5761198e614471565b60200260200101516004815181106119a8576119a8614471565b60200260200101518260050182815481106119c5576119c5614471565b906000526020600020906008020160040190805190602001906119e99291906134c7565b508481815181106119fc576119fc614471565b6020026020010151600581518110611a1657611a16614471565b6020026020010151826005018281548110611a3357611a33614471565b90600052602060002090600802016005019080519060200190611a579291906134c7565b50848181518110611a6a57611a6a614471565b6020026020010151600681518110611a8457611a84614471565b6020026020010151826005018281548110611aa157611aa1614471565b90600052602060002090600802016006019080519060200190611ac59291906134c7565b5060005b848281518110611adb57611adb614471565b602002602001015151811015611bb757826005018281548110611b0057611b00614471565b6000918252602082206007600890920201018054600101815590528451859083908110611b2f57611b2f614471565b60200260200101518181518110611b4857611b48614471565b6020026020010151836005018381548110611b6557611b65614471565b90600052602060002090600802016007018281548110611b8757611b87614471565b906000526020600020019080519060200190611ba49291906134c7565b5080611baf81614487565b915050611ac9565b5080611bc281614487565b9150506117ab565b50611bd5898b6108da565b50505050505050505050565b6000600485604051611bf3919061440f565b9081526020016040518091039020905083816002019080519060200190611c1b9291906134c7565b508251611c3190600183019060208601906134c7565b508151611c4790600383019060208501906134c7565b505050505050565b611c886040518060c001604052806060815260200160608152602001606081526020016060815260200160608152602001606081525090565b600182604051611c98919061440f565b90815260200160405180910390206040518060c0016040529081600082018054611cc1906144ae565b80601f0160208091040260200160405190810160405280929190818152602001828054611ced906144ae565b8015611d3a5780601f10611d0f57610100808354040283529160200191611d3a565b820191906000526020600020905b815481529060010190602001808311611d1d57829003601f168201915b50505050508152602001600182018054611d53906144ae565b80601f0160208091040260200160405190810160405280929190818152602001828054611d7f906144ae565b8015611dcc5780601f10611da157610100808354040283529160200191611dcc565b820191906000526020600020905b815481529060010190602001808311611daf57829003601f168201915b50505050508152602001600282018054611de5906144ae565b80601f0160208091040260200160405190810160405280929190818152602001828054611e11906144ae565b8015611e5e5780601f10611e3357610100808354040283529160200191611e5e565b820191906000526020600020905b815481529060010190602001808311611e4157829003601f168201915b50505050508152602001600382018054611e77906144ae565b80601f0160208091040260200160405190810160405280929190818152602001828054611ea3906144ae565b8015611ef05780601f10611ec557610100808354040283529160200191611ef0565b820191906000526020600020905b815481529060010190602001808311611ed357829003601f168201915b50505050508152602001600482018054611f09906144ae565b80601f0160208091040260200160405190810160405280929190818152602001828054611f35906144ae565b8015611f825780601f10611f5757610100808354040283529160200191611f82565b820191906000526020600020905b815481529060010190602001808311611f6557829003601f168201915b5050505050815260200160058201805480602002602001604051908101604052809291908181526020016000905b82821015611426578382906000526020600020906008020160405180610100016040529081600082018054611fe4906144ae565b80601f0160208091040260200160405190810160405280929190818152602001828054612010906144ae565b801561205d5780601f106120325761010080835404028352916020019161205d565b820191906000526020600020905b81548152906001019060200180831161204057829003601f168201915b50505050508152602001600182018054612076906144ae565b80601f01602080910402602001604051908101604052809291908181526020018280546120a2906144ae565b80156120ef5780601f106120c4576101008083540402835291602001916120ef565b820191906000526020600020905b8154815290600101906020018083116120d257829003601f168201915b50505050508152602001600282018054612108906144ae565b80601f0160208091040260200160405190810160405280929190818152602001828054612134906144ae565b80156121815780601f1061215657610100808354040283529160200191612181565b820191906000526020600020905b81548152906001019060200180831161216457829003601f168201915b5050505050815260200160038201805461219a906144ae565b80601f01602080910402602001604051908101604052809291908181526020018280546121c6906144ae565b80156122135780601f106121e857610100808354040283529160200191612213565b820191906000526020600020905b8154815290600101906020018083116121f657829003601f168201915b5050505050815260200160048201805461222c906144ae565b80601f0160208091040260200160405190810160405280929190818152602001828054612258906144ae565b80156122a55780601f1061227a576101008083540402835291602001916122a5565b820191906000526020600020905b81548152906001019060200180831161228857829003601f168201915b505050505081526020016005820180546122be906144ae565b80601f01602080910402602001604051908101604052809291908181526020018280546122ea906144ae565b80156123375780601f1061230c57610100808354040283529160200191612337565b820191906000526020600020905b81548152906001019060200180831161231a57829003601f168201915b50505050508152602001600682018054612350906144ae565b80601f016020809104026020016040519081016040528092919081815260200182805461237c906144ae565b80156123c95780601f1061239e576101008083540402835291602001916123c9565b820191906000526020600020905b8154815290600101906020018083116123ac57829003601f168201915b5050505050815260200160078201805480602002602001604051908101604052809291908181526020016000905b828210156124a3578382906000526020600020018054612416906144ae565b80601f0160208091040260200160405190810160405280929190818152602001828054612442906144ae565b801561248f5780601f106124645761010080835404028352916020019161248f565b820191906000526020600020905b81548152906001019060200180831161247257829003601f168201915b5050505050815260200190600101906123f7565b505050508152505081526020019060010190611fb0565b606060006124c783612dd1565b90506005846040516124d9919061440f565b908152604051908190036020019020546000036125155750506040805180820190915260078152666d697373696e6760c81b602082015261257e565b80600585604051612526919061440f565b9081526020016040518091039020540361255d5750506040805180820190915260058152641d985b1a5960da1b602082015261257e565b50506040805180820190915260078152661a5b9d985b1a5960ca1b60208201525b92915050565b6006818154811061259457600080fd5b9060005260206000200160009150905080546125af906144ae565b80601f01602080910402602001604051908101604052809291908181526020018280546125db906144ae565b80156126285780601f106125fd57610100808354040283529160200191612628565b820191906000526020600020905b81548152906001019060200180831161260b57829003601f168201915b505050505081565b61267860405180610100016040528060608152602001606081526020016060815260200160608152602001606081526020016060815260200160608152602001606081525090565b600282604051612688919061440f565b9081526020016040518091039020604051806101000160405290816000820180546126b2906144ae565b80601f01602080910402602001604051908101604052809291908181526020018280546126de906144ae565b801561272b5780601f106127005761010080835404028352916020019161272b565b820191906000526020600020905b81548152906001019060200180831161270e57829003601f168201915b50505050508152602001600182018054612744906144ae565b80601f0160208091040260200160405190810160405280929190818152602001828054612770906144ae565b80156127bd5780601f10612792576101008083540402835291602001916127bd565b820191906000526020600020905b8154815290600101906020018083116127a057829003601f168201915b505050505081526020016002820180546127d6906144ae565b80601f0160208091040260200160405190810160405280929190818152602001828054612802906144ae565b801561284f5780601f106128245761010080835404028352916020019161284f565b820191906000526020600020905b81548152906001019060200180831161283257829003601f168201915b50505050508152602001600382018054612868906144ae565b80601f0160208091040260200160405190810160405280929190818152602001828054612894906144ae565b80156128e15780601f106128b6576101008083540402835291602001916128e1565b820191906000526020600020905b8154815290600101906020018083116128c457829003601f168201915b505050505081526020016004820180546128fa906144ae565b80601f0160208091040260200160405190810160405280929190818152602001828054612926906144ae565b80156129735780601f1061294857610100808354040283529160200191612973565b820191906000526020600020905b81548152906001019060200180831161295657829003601f168201915b5050505050815260200160058201805461298c906144ae565b80601f01602080910402602001604051908101604052809291908181526020018280546129b8906144ae565b8015612a055780601f106129da57610100808354040283529160200191612a05565b820191906000526020600020905b8154815290600101906020018083116129e857829003601f168201915b50505050508152602001600682018054612a1e906144ae565b80601f0160208091040260200160405190810160405280929190818152602001828054612a4a906144ae565b8015612a975780601f10612a6c57610100808354040283529160200191612a97565b820191906000526020600020905b815481529060010190602001808311612a7a57829003601f168201915b5050505050815260200160078201805480602002602001604051908101604052809291908181526020016000905b8282101561142657838290600052602060002090600502016040518060a0016040529081600082018054612af8906144ae565b80601f0160208091040260200160405190810160405280929190818152602001828054612b24906144ae565b8015612b715780601f10612b4657610100808354040283529160200191612b71565b820191906000526020600020905b815481529060010190602001808311612b5457829003601f168201915b50505050508152602001600182018054612b8a906144ae565b80601f0160208091040260200160405190810160405280929190818152602001828054612bb6906144ae565b8015612c035780601f10612bd857610100808354040283529160200191612c03565b820191906000526020600020905b815481529060010190602001808311612be657829003601f168201915b50505050508152602001600282018054612c1c906144ae565b80601f0160208091040260200160405190810160405280929190818152602001828054612c48906144ae565b8015612c955780601f10612c6a57610100808354040283529160200191612c95565b820191906000526020600020905b815481529060010190602001808311612c7857829003601f168201915b50505050508152602001600382018054612cae906144ae565b80601f0160208091040260200160405190810160405280929190818152602001828054612cda906144ae565b8015612d275780601f10612cfc57610100808354040283529160200191612d27565b820191906000526020600020905b815481529060010190602001808311612d0a57829003601f168201915b50505050508152602001600482018054612d40906144ae565b80601f0160208091040260200160405190810160405280929190818152602001828054612d6c906144ae565b8015612db95780601f10612d8e57610100808354040283529160200191612db9565b820191906000526020600020905b815481529060010190602001808311612d9c57829003601f168201915b50505050508152505081526020019060010190612ac5565b805160009082908203612de75750600092915050565b50506020015190565b612df86135a4565b600082604051612e08919061440f565b908152602001604051809103902060405180610100016040529081600082018054612e32906144ae565b80601f0160208091040260200160405190810160405280929190818152602001828054612e5e906144ae565b8015612eab5780601f10612e8057610100808354040283529160200191612eab565b820191906000526020600020905b815481529060010190602001808311612e8e57829003601f168201915b50505050508152602001600182018054612ec4906144ae565b80601f0160208091040260200160405190810160405280929190818152602001828054612ef0906144ae565b8015612f3d5780601f10612f1257610100808354040283529160200191612f3d565b820191906000526020600020905b815481529060010190602001808311612f2057829003601f168201915b50505050508152602001600282018054612f56906144ae565b80601f0160208091040260200160405190810160405280929190818152602001828054612f82906144ae565b8015612fcf5780601f10612fa457610100808354040283529160200191612fcf565b820191906000526020600020905b815481529060010190602001808311612fb257829003601f168201915b50505050508152602001600382018054612fe8906144ae565b80601f0160208091040260200160405190810160405280929190818152602001828054613014906144ae565b80156130615780601f1061303657610100808354040283529160200191613061565b820191906000526020600020905b81548152906001019060200180831161304457829003601f168201915b5050505050815260200160048201805461307a906144ae565b80601f01602080910402602001604051908101604052809291908181526020018280546130a6906144ae565b80156130f35780601f106130c8576101008083540402835291602001916130f3565b820191906000526020600020905b8154815290600101906020018083116130d657829003601f168201915b5050505050815260200160058201805461310c906144ae565b80601f0160208091040260200160405190810160405280929190818152602001828054613138906144ae565b80156131855780601f1061315a57610100808354040283529160200191613185565b820191906000526020600020905b81548152906001019060200180831161316857829003601f168201915b5050505050815260200160068201805461319e906144ae565b80601f01602080910402602001604051908101604052809291908181526020018280546131ca906144ae565b80156132175780601f106131ec57610100808354040283529160200191613217565b820191906000526020600020905b8154815290600101906020018083116131fa57829003601f168201915b5050505050815260200160078201604051806080016040529081600082018054613240906144ae565b80601f016020809104026020016040519081016040528092919081815260200182805461326c906144ae565b80156132b95780601f1061328e576101008083540402835291602001916132b9565b820191906000526020600020905b81548152906001019060200180831161329c57829003601f168201915b505050505081526020016001820180546132d2906144ae565b80601f01602080910402602001604051908101604052809291908181526020018280546132fe906144ae565b801561334b5780601f106133205761010080835404028352916020019161334b565b820191906000526020600020905b81548152906001019060200180831161332e57829003601f168201915b50505050508152602001600282018054613364906144ae565b80601f0160208091040260200160405190810160405280929190818152602001828054613390906144ae565b80156133dd5780601f106133b2576101008083540402835291602001916133dd565b820191906000526020600020905b8154815290600101906020018083116133c057829003601f168201915b5050505050815260200160038201805480602002602001604051908101604052809291908181526020016000905b828210156134b757838290600052602060002001805461342a906144ae565b80601f0160208091040260200160405190810160405280929190818152602001828054613456906144ae565b80156134a35780601f10613478576101008083540402835291602001916134a3565b820191906000526020600020905b81548152906001019060200180831161348657829003601f168201915b50505050508152602001906001019061340b565b5050509152505090525092915050565b8280546134d3906144ae565b90600052602060002090601f0160209004810192826134f5576000855561353b565b82601f1061350e57805160ff191683800117855561353b565b8280016001018555821561353b579182015b8281111561353b578251825591602001919060010190613520565b50613547929150613611565b5090565b828054828255906000526020600020908101928215613598579160200282015b8281111561359857825180516135889184916020909101906134c7565b509160200191906001019061356b565b50613547929150613626565b6040518061010001604052806060815260200160608152602001606081526020016060815260200160608152602001606081526020016060815260200161360c6040518060800160405280606081526020016060815260200160608152602001606081525090565b905290565b5b808211156135475760008155600101613612565b8082111561354757600061363a8282613643565b50600101613626565b50805461364f906144ae565b6000825580601f1061365f575050565b601f01602090049060005260206000209081019061367d9190613611565b50565b634e487b7160e01b600052604160045260246000fd5b604051601f8201601f1916810167ffffffffffffffff811182821017156136bf576136bf613680565b604052919050565b600082601f8301126136d857600080fd5b813567ffffffffffffffff8111156136f2576136f2613680565b613705601f8201601f1916602001613696565b81815284602083860101111561371a57600080fd5b816020850160208301376000918101602001919091529392505050565b600067ffffffffffffffff82111561375157613751613680565b5060051b60200190565b600082601f83011261376c57600080fd5b8135602061378161377c83613737565b613696565b82815260059290921b840181019181810190868411156137a057600080fd5b8286015b848110156137e057803567ffffffffffffffff8111156137c45760008081fd5b6137d28986838b01016136c7565b8452509183019183016137a4565b509695505050505050565b600082601f8301126137fc57600080fd5b8135602061380c61377c83613737565b82815260059290921b8401810191818101908684111561382b57600080fd5b8286015b848110156137e057803567ffffffffffffffff81111561384f5760008081fd5b61385d8986838b010161375b565b84525091830191830161382f565b60008060008060008060008060006101208a8c03121561388a57600080fd5b893567ffffffffffffffff808211156138a257600080fd5b6138ae8d838e016136c7565b9a5060208c01359150808211156138c457600080fd5b6138d08d838e016136c7565b995060408c01359150808211156138e657600080fd5b6138f28d838e016136c7565b985060608c013591508082111561390857600080fd5b6139148d838e016136c7565b975060808c013591508082111561392a57600080fd5b6139368d838e016136c7565b965060a08c013591508082111561394c57600080fd5b6139588d838e016136c7565b955060c08c013591508082111561396e57600080fd5b61397a8d838e016136c7565b945060e08c013591508082111561399057600080fd5b61399c8d838e016136c7565b93506101008c01359150808211156139b357600080fd5b506139c08c828d016137eb565b9150509295985092959850929598565b6000602082840312156139e257600080fd5b813567ffffffffffffffff8111156139f957600080fd5b613a05848285016136c7565b949350505050565b60008060408385031215613a2057600080fd5b823567ffffffffffffffff80821115613a3857600080fd5b613a44868387016136c7565b93506020850135915080821115613a5a57600080fd5b50613a67858286016136c7565b9150509250929050565b6000806000806000806000806000806101408b8d031215613a9157600080fd5b8a3567ffffffffffffffff80821115613aa957600080fd5b613ab58e838f016136c7565b9b5060208d0135915080821115613acb57600080fd5b613ad78e838f016136c7565b9a5060408d0135915080821115613aed57600080fd5b613af98e838f016136c7565b995060608d0135915080821115613b0f57600080fd5b613b1b8e838f016136c7565b985060808d0135915080821115613b3157600080fd5b613b3d8e838f016136c7565b975060a08d0135915080821115613b5357600080fd5b613b5f8e838f016136c7565b965060c08d0135915080821115613b7557600080fd5b613b818e838f016136c7565b955060e08d0135915080821115613b9757600080fd5b613ba38e838f016136c7565b94506101008d0135915080821115613bba57600080fd5b613bc68e838f0161375b565b93506101208d0135915080821115613bdd57600080fd5b50613bea8d828e0161375b565b9150509295989b9194979a5092959850565b60005b83811015613c17578181015183820152602001613bff565b8381111561094f5750506000910152565b60008151808452613c40816020860160208601613bfc565b601f01601f19169290920160200192915050565b600081518084526020808501808196508360051b8101915082860160005b85811015613c9c578284038952613c8a848351613c28565b98850198935090840190600101613c72565b5091979650505050505050565b602081526000613cbc6020830184613c54565b9392505050565b600081518084526020808501808196508360051b8101915082860160005b85811015613c9c578284038952815160a08151818752613d0382880182613c28565b9150508682015186820388880152613d1b8282613c28565b91505060408083015187830382890152613d358382613c28565b9250505060608083015187830382890152613d508382613c28565b9250505060808083015192508682038188015250613d6e8183613c28565b9a87019a9550505090840190600101613ce1565b6020815260008251610100806020850152613da1610120850183613c28565b91506020850151601f1980868503016040870152613dbf8483613c28565b93506040870151915080868503016060870152613ddc8483613c28565b93506060870151915080868503016080870152613df98483613c28565b935060808701519150808685030160a0870152613e168483613c28565b935060a08701519150808685030160c0870152613e338483613c28565b935060c08701519150808685030160e0870152613e508483613c28565b935060e0870151915080868503018387015250613e6d8382613cc3565b9695505050505050565b602081526000825160806020840152613e9360a0840182613c28565b90506020840151601f1980858403016040860152613eb18383613c28565b92506040860151915080858403016060860152613ece8383613c28565b9250606086015191508085840301608086015250613eec8282613c28565b95945050505050565b600080600080600080600080610100898b031215613f1257600080fd5b883567ffffffffffffffff80821115613f2a57600080fd5b613f368c838d016136c7565b995060208b0135915080821115613f4c57600080fd5b613f588c838d016136c7565b985060408b0135915080821115613f6e57600080fd5b613f7a8c838d016136c7565b975060608b0135915080821115613f9057600080fd5b613f9c8c838d016136c7565b965060808b0135915080821115613fb257600080fd5b613fbe8c838d016136c7565b955060a08b0135915080821115613fd457600080fd5b613fe08c838d016136c7565b945060c08b0135915080821115613ff657600080fd5b6140028c838d016137eb565b935060e08b013591508082111561401857600080fd5b506140258b828c016137eb565b9150509295985092959890939650565b6000806000806080858703121561404b57600080fd5b843567ffffffffffffffff8082111561406357600080fd5b61406f888389016136c7565b9550602087013591508082111561408557600080fd5b614091888389016136c7565b945060408701359150808211156140a757600080fd5b6140b3888389016136c7565b935060608701359150808211156140c957600080fd5b506140d6878288016136c7565b91505092959194509250565b60006020808352835160c0828501526140fe60e0850182613c28565b905081850151601f19604081878503018188015261411c8484613c28565b935080880151925060608288860301818901526141398585613c28565b945080890151935060808389870301818a01526141568686613c28565b9550808a0151945060a0848a880301818b01526141738787613c28565b8b8201518b8203870160c08d015280518083529198508901965088880190600581901b89018a0160005b8281101561428457888b8303018452895161010081518185526141c282860182613c28565b9150508d8201518482038f8601526141da8282613c28565b915050898201518482038b8601526141f28282613c28565b915050888201518482038a86015261420a8282613c28565b91505087820151848203898601526142228282613c28565b915050868201518482038886015261423a8282613c28565b91505060c082015184820360c08601526142548282613c28565b91505060e0820151915083810360e08501526142708183613c54565b9b8e019b958e01959350505060010161419d565b509d9c50505050505050505050505050565b602081526000613cbc6020830184613c28565b6000602082840312156142bb57600080fd5b5035919050565b60008151608084526142d76080850182613c28565b9050602083015184820360208601526142f08282613c28565b9150506040830151848203604086015261430a8282613c28565b91505060608301518482036060860152613eec8282613c54565b6020815260008251610100806020850152614343610120850183613c28565b91506020850151601f19808685030160408701526143618483613c28565b9350604087015191508086850301606087015261437e8483613c28565b9350606087015191508086850301608087015261439b8483613c28565b935060808701519150808685030160a08701526143b88483613c28565b935060a08701519150808685030160c08701526143d58483613c28565b935060c08701519150808685030160e08701526143f28483613c28565b935060e0870151915080868503018387015250613e6d83826142c2565b60008251614421818460208701613bfc565b9190910192915050565b60208082526026908201527f41207472616e73616374696f6e2063616e206f6e6c792062652061756469746560408201526564206f6e636560d01b606082015260800190565b634e487b7160e01b600052603260045260246000fd5b6000600182016144a757634e487b7160e01b600052601160045260246000fd5b5060010190565b600181811c908216806144c257607f821691505b6020821081036144e257634e487b7160e01b600052602260045260246000fd5b5091905056fea26469706673582212205c4e2d354344cf61776a6c68f7d18f8c36adef95ebac51b23d4a3c4fd796bcd864736f6c634300080d0033",
  "linkReferences": {},
  "deployedLinkReferences": {}
}